{"contracts/auction.sol":{"Auction":{"abi":[{"inputs":[{"internalType":"enum ActivationType","name":"_startType","type":"uint8"}],"stateMutability":"nonpayable","type":"constructor"},{"inputs":[],"name":"ErrAuctionCannotBeStarted","type":"error"},{"inputs":[],"name":"ErrAuctionClosed","type":"error"},{"inputs":[],"name":"ErrAuctionIsManual","type":"error"},{"inputs":[],"name":"ErrAuctionIsTemporal","type":"error"},{"inputs":[],"name":"ErrAuctionNotActive","type":"error"},{"inputs":[],"name":"ErrAuctionNotStarted","type":"error"},{"inputs":[],"name":"ErrAuctionNotYetClosed","type":"error"},{"inputs":[],"name":"ErrAuctionStarted","type":"error"},{"inputs":[],"name":"ErrBadProductCode","type":"error"},{"inputs":[],"name":"ErrBidCannotBeLowerThanPrevious","type":"error"},{"inputs":[],"name":"ErrBidTooLow","type":"error"},{"inputs":[],"name":"ErrBidderNotFound","type":"error"},{"inputs":[],"name":"ErrDuplicateBidder","type":"error"},{"inputs":[],"name":"ErrDurTooShort","type":"error"},{"inputs":[],"name":"ErrForbidden","type":"error"},{"inputs":[],"name":"ErrOutOfBalance","type":"error"},{"inputs":[],"name":"ErrProductNotFound","type":"error"},{"inputs":[],"name":"ErrTooManyProducts","type":"error"},{"inputs":[],"name":"ErrWithdrawFailed","type":"error"},{"anonymous":false,"inputs":[{"indexed":false,"internalType":"uint256","name":"productCode","type":"uint256"},{"indexed":false,"internalType":"uint256","name":"amount","type":"uint256"}],"name":"BidPlaced","type":"event"},{"inputs":[{"internalType":"address","name":"","type":"address"}],"name":"allowedBuyers","outputs":[{"internalType":"bool","name":"","type":"bool"}],"stateMutability":"view","type":"function"},{"inputs":[{"internalType":"address","name":"toBeBuyer","type":"address"}],"name":"authorize","outputs":[],"stateMutability":"nonpayable","type":"function"},{"inputs":[{"internalType":"uint256","name":"productCode","type":"uint256"}],"name":"bid","outputs":[],"stateMutability":"payable","type":"function"},{"inputs":[{"internalType":"uint256","name":"productCode","type":"uint256"},{"internalType":"address","name":"bidder","type":"address"}],"name":"bidAs","outputs":[],"stateMutability":"payable","type":"function"},{"inputs":[],"name":"closeAuction","outputs":[],"stateMutability":"nonpayable","type":"function"},{"inputs":[{"internalType":"uint256","name":"","type":"uint256"},{"internalType":"address","name":"","type":"address"}],"name":"currentBids","outputs":[{"internalType":"address","name":"buyer","type":"address"},{"internalType":"uint256","name":"productCode","type":"uint256"},{"internalType":"uint256","name":"amount","type":"uint256"},{"internalType":"bool","name":"put","type":"bool"}],"stateMutability":"view","type":"function"},{"inputs":[{"internalType":"uint256","name":"productCode","type":"uint256"},{"internalType":"address","name":"bidderAddress","type":"address"}],"name":"getCurrentBids","outputs":[{"internalType":"uint256","name":"","type":"uint256"}],"stateMutability":"view","type":"function"},{"inputs":[{"internalType":"uint256","name":"productCode","type":"uint256"}],"name":"getHighestBid","outputs":[{"internalType":"uint256","name":"","type":"uint256"}],"stateMutability":"view","type":"function"},{"inputs":[],"name":"getMyBalance","outputs":[{"internalType":"uint256","name":"","type":"uint256"}],"stateMutability":"view","type":"function"},{"inputs":[],"name":"getWinners","outputs":[{"internalType":"string","name":"","type":"string"}],"stateMutability":"view","type":"function"},{"inputs":[],"name":"liveProductsCount","outputs":[{"internalType":"uint256","name":"","type":"uint256"}],"stateMutability":"view","type":"function"},{"inputs":[],"name":"owner","outputs":[{"internalType":"address","name":"","type":"address"}],"stateMutability":"view","type":"function"},{"inputs":[{"internalType":"uint256","name":"productCode","type":"uint256"},{"internalType":"uint256","name":"startingBidPrice","type":"uint256"},{"internalType":"bool","name":"isRemove","type":"bool"}],"name":"product","outputs":[],"stateMutability":"nonpayable","type":"function"},{"inputs":[{"internalType":"uint256","name":"","type":"uint256"}],"name":"productsKeys","outputs":[{"internalType":"uint256","name":"","type":"uint256"}],"stateMutability":"view","type":"function"},{"inputs":[{"internalType":"uint256","name":"","type":"uint256"}],"name":"productsMap","outputs":[{"internalType":"uint256","name":"code","type":"uint256"},{"internalType":"uint256","name":"startingPrice","type":"uint256"},{"internalType":"bool","name":"exists","type":"bool"}],"stateMutability":"view","type":"function"},{"inputs":[{"internalType":"uint256","name":"start","type":"uint256"},{"internalType":"uint256","name":"end","type":"uint256"}],"name":"setAuctionTiming","outputs":[],"stateMutability":"nonpayable","type":"function"},{"inputs":[],"name":"startAuction","outputs":[],"stateMutability":"nonpayable","type":"function"},{"inputs":[{"internalType":"address","name":"toBeBuyer","type":"address"}],"name":"unauthorize","outputs":[],"stateMutability":"nonpayable","type":"function"},{"inputs":[],"name":"withdraw","outputs":[],"stateMutability":"nonpayable","type":"function"},{"inputs":[{"internalType":"address","name":"bidder","type":"address"}],"name":"withdrawAs","outputs":[],"stateMutability":"nonpayable","type":"function"},{"stateMutability":"payable","type":"receive"}],"evm":{"bytecode":{"linkReferences":{},"object":"608060405260008060016101000a81548160ff021916908360028111156100295761002861015f565b5b02179055506003600155620f4240600255600060085534801561004b57600080fd5b50604051613d1d380380613d1d833981810160405281019061006d91906101b8565b806000806101000a81548160ff021916908360018111156100915761009061015f565b5b021790555033600060026101000a81548173ffffffffffffffffffffffffffffffffffffffff021916908373ffffffffffffffffffffffffffffffffffffffff1602179055506107086006819055506001600360008060029054906101000a900473ffffffffffffffffffffffffffffffffffffffff1673ffffffffffffffffffffffffffffffffffffffff1673ffffffffffffffffffffffffffffffffffffffff16815260200190815260200160002060006101000a81548160ff021916908315150217905550506101e5565b7f4e487b7100000000000000000000000000000000000000000000000000000000600052602160045260246000fd5b600080fd5b600281106101a057600080fd5b50565b6000815190506101b281610193565b92915050565b6000602082840312156101ce576101cd61018e565b5b60006101dc848285016101a3565b91505092915050565b613b29806101f46000396000f3fe6080604052600436106101235760003560e01c806377dec24c116100a0578063954d4fbd11610064578063954d4fbd146103b5578063b6a5d7de146103de578063b9b4859514610407578063df15c37e14610444578063f0b37c041461046f5761012a565b806377dec24c146102a6578063825ae97e146102e557806387e06e5e146103105780638da5cb5b1461034d5780638f288644146103785761012a565b8063454a2ab3116100e7578063454a2ab3146101df5780634c738909146101fb5780635b0ba29b1461022657806369b2643d1461024f5780636b64c7691461028f5761012a565b80630471b94b1461012f5780630d1f55e314610158578063378252f2146101745780633c7a1e7d1461018b5780633ccfd60b146101c85761012a565b3661012a57005b600080fd5b34801561013b57600080fd5b50610156600480360381019061015191906130d1565b610498565b005b610172600480360381019061016d9190613182565b610549565b005b34801561018057600080fd5b506101896105e1565b005b34801561019757600080fd5b506101b260048036038101906101ad9190613182565b61076d565b6040516101bf91906131d1565b60405180910390f35b3480156101d457600080fd5b506101dd6108ef565b005b6101f960048036038101906101f491906131ec565b610984565b005b34801561020757600080fd5b50610210610a1b565b60405161021d91906131d1565b60405180910390f35b34801561023257600080fd5b5061024d60048036038101906102489190613219565b610aec565b005b34801561025b57600080fd5b5061027660048036038101906102719190613182565b610c13565b6040516102869493929190613277565b60405180910390f35b34801561029b57600080fd5b506102a4610c7d565b005b3480156102b257600080fd5b506102cd60048036038101906102c891906131ec565b610e09565b6040516102dc939291906132bc565b60405180910390f35b3480156102f157600080fd5b506102fa610e40565b60405161030791906131d1565b60405180910390f35b34801561031c57600080fd5b50610337600480360381019061033291906131ec565b610e46565b60405161034491906131d1565b60405180910390f35b34801561035957600080fd5b50610362610e6a565b60405161036f91906132f3565b60405180910390f35b34801561038457600080fd5b5061039f600480360381019061039a91906131ec565b610e90565b6040516103ac91906131d1565b60405180910390f35b3480156103c157600080fd5b506103dc60048036038101906103d7919061330e565b610f97565b005b3480156103ea57600080fd5b506104056004803603810190610400919061330e565b61102a565b005b34801561041357600080fd5b5061042e6004803603810190610429919061330e565b611196565b60405161043b919061333b565b60405180910390f35b34801561045057600080fd5b506104596111b6565b60405161046691906133e6565b60405180910390f35b34801561047b57600080fd5b506104966004803603810190610491919061330e565b6114c8565b005b600060029054906101000a900473ffffffffffffffffffffffffffffffffffffffff1673ffffffffffffffffffffffffffffffffffffffff163373ffffffffffffffffffffffffffffffffffffffff161461051f576040517f11845c2100000000000000000000000000000000000000000000000000000000815260040160405180910390fd5b600015158115150361053a57610535838361162b565b610544565b610543836118c2565b5b505050565b60011515600360003373ffffffffffffffffffffffffffffffffffffffff1673ffffffffffffffffffffffffffffffffffffffff16815260200190815260200160002060009054906101000a900460ff161515146105d3576040517f11845c2100000000000000000000000000000000000000000000000000000000815260040160405180910390fd5b6105dd8282611c07565b5050565b600060029054906101000a900473ffffffffffffffffffffffffffffffffffffffff1673ffffffffffffffffffffffffffffffffffffffff163373ffffffffffffffffffffffffffffffffffffffff1614610668576040517f11845c2100000000000000000000000000000000000000000000000000000000815260040160405180910390fd5b6000600181111561067c5761067b613408565b5b60008054906101000a900460ff16600181111561069c5761069b613408565b5b146106d3576040517fce0e4c9500000000000000000000000000000000000000000000000000000000815260040160405180910390fd5b600160028111156106e7576106e6613408565b5b600060019054906101000a900460ff16600281111561070957610708613408565b5b14610740576040517fbebc7bdd00000000000000000000000000000000000000000000000000000000815260040160405180910390fd5b6001600060016101000a81548160ff0219169083600281111561076657610765613408565b5b0217905550565b60008060029054906101000a900473ffffffffffffffffffffffffffffffffffffffff1673ffffffffffffffffffffffffffffffffffffffff163373ffffffffffffffffffffffffffffffffffffffff16146107f5576040517f11845c2100000000000000000000000000000000000000000000000000000000815260040160405180910390fd5b60011515600a600085815260200190815260200160002060008473ffffffffffffffffffffffffffffffffffffffff1673ffffffffffffffffffffffffffffffffffffffff16815260200190815260200160002060030160009054906101000a900460ff16151514610893576040517f299fb3c400000000000000000000000000000000000000000000000000000000815260040160405180910390fd5b600a600084815260200190815260200160002060008373ffffffffffffffffffffffffffffffffffffffff1673ffffffffffffffffffffffffffffffffffffffff16815260200190815260200160002060020154905092915050565b60011515600360003373ffffffffffffffffffffffffffffffffffffffff1673ffffffffffffffffffffffffffffffffffffffff16815260200190815260200160002060009054906101000a900460ff16151514610979576040517f11845c2100000000000000000000000000000000000000000000000000000000815260040160405180910390fd5b610982336123bf565b565b60011515600360003373ffffffffffffffffffffffffffffffffffffffff1673ffffffffffffffffffffffffffffffffffffffff16815260200190815260200160002060009054906101000a900460ff16151514610a0e576040517f11845c2100000000000000000000000000000000000000000000000000000000815260040160405180910390fd5b610a188133611c07565b50565b600060011515600360003373ffffffffffffffffffffffffffffffffffffffff1673ffffffffffffffffffffffffffffffffffffffff16815260200190815260200160002060009054906101000a900460ff16151514610aa7576040517f11845c2100000000000000000000000000000000000000000000000000000000815260040160405180910390fd5b600c60003373ffffffffffffffffffffffffffffffffffffffff1673ffffffffffffffffffffffffffffffffffffffff16815260200190815260200160002054905090565b600060029054906101000a900473ffffffffffffffffffffffffffffffffffffffff1673ffffffffffffffffffffffffffffffffffffffff163373ffffffffffffffffffffffffffffffffffffffff1614610b73576040517f11845c2100000000000000000000000000000000000000000000000000000000815260040160405180910390fd5b600180811115610b8657610b85613408565b5b60008054906101000a900460ff166001811115610ba657610ba5613408565b5b148015610bcb57508082108015610bca57506006548282610bc79190613466565b10155b5b610c01576040517fa1056f7900000000000000000000000000000000000000000000000000000000815260040160405180910390fd5b81600481905550806005819055505050565b600a602052816000526040600020602052806000526040600020600091509150508060000160009054906101000a900473ffffffffffffffffffffffffffffffffffffffff16908060010154908060020154908060030160009054906101000a900460ff16905084565b600060029054906101000a900473ffffffffffffffffffffffffffffffffffffffff1673ffffffffffffffffffffffffffffffffffffffff163373ffffffffffffffffffffffffffffffffffffffff1614610d04576040517f11845c2100000000000000000000000000000000000000000000000000000000815260040160405180910390fd5b60006001811115610d1857610d17613408565b5b60008054906101000a900460ff166001811115610d3857610d37613408565b5b14610d6f576040517fce0e4c9500000000000000000000000000000000000000000000000000000000815260040160405180910390fd5b60006002811115610d8357610d82613408565b5b600060019054906101000a900460ff166002811115610da557610da4613408565b5b14610ddc576040517fcd7aae3200000000000000000000000000000000000000000000000000000000815260040160405180910390fd5b6001600060016101000a81548160ff02191690836002811115610e0257610e01613408565b5b0217905550565b60076020528060005260406000206000915090508060000154908060010154908060020160009054906101000a900460ff16905083565b60085481565b60098181548110610e5657600080fd5b906000526020600020016000915090505481565b600060029054906101000a900473ffffffffffffffffffffffffffffffffffffffff1681565b60008060029054906101000a900473ffffffffffffffffffffffffffffffffffffffff1673ffffffffffffffffffffffffffffffffffffffff163373ffffffffffffffffffffffffffffffffffffffff1614610f18576040517f11845c2100000000000000000000000000000000000000000000000000000000815260040160405180910390fd5b60011515600b600084815260200190815260200160002060030160009054906101000a900460ff16151514610f79576040517f299fb3c400000000000000000000000000000000000000000000000000000000815260040160405180910390fd5b600b6000838152602001908152602001600020600201549050919050565b600060029054906101000a900473ffffffffffffffffffffffffffffffffffffffff1673ffffffffffffffffffffffffffffffffffffffff163373ffffffffffffffffffffffffffffffffffffffff161461101e576040517f11845c2100000000000000000000000000000000000000000000000000000000815260040160405180910390fd5b611027816123bf565b50565b600060029054906101000a900473ffffffffffffffffffffffffffffffffffffffff1673ffffffffffffffffffffffffffffffffffffffff163373ffffffffffffffffffffffffffffffffffffffff16146110b1576040517f11845c2100000000000000000000000000000000000000000000000000000000815260040160405180910390fd5b60001515600360008373ffffffffffffffffffffffffffffffffffffffff1673ffffffffffffffffffffffffffffffffffffffff16815260200190815260200160002060009054906101000a900460ff1615151461113b576040517fd61d68cc00000000000000000000000000000000000000000000000000000000815260040160405180910390fd5b6001600360008373ffffffffffffffffffffffffffffffffffffffff1673ffffffffffffffffffffffffffffffffffffffff16815260200190815260200160002060006101000a81548160ff02191690831515021790555050565b60036020528060005260406000206000915054906101000a900460ff1681565b606060011515600360003373ffffffffffffffffffffffffffffffffffffffff1673ffffffffffffffffffffffffffffffffffffffff16815260200190815260200160002060009054906101000a900460ff16151514611242576040517f11845c2100000000000000000000000000000000000000000000000000000000815260040160405180910390fd5b600554421161127d576040517f2875c00600000000000000000000000000000000000000000000000000000000815260040160405180910390fd5b611285613044565b61128e8161265c565b905060005b6009805490508110156114b15760011515600b6000600984815481106112bc576112bb61349a565b5b9060005260206000200154815260200190815260200160002060030160009054906101000a900460ff161515036114a4576112f682612695565b91506113766040518060400160405280600b81526020017f70726f64756374436f6465000000000000000000000000000000000000000000815250600b6000600985815481106113495761134861349a565b5b9060005260206000200154815260200190815260200160002060010154846126ce9092919063ffffffff16565b91506113f66040518060400160405280600681526020017f616d6f756e740000000000000000000000000000000000000000000000000000815250600b6000600985815481106113c9576113c861349a565b5b9060005260206000200154815260200190815260200160002060020154846126ce9092919063ffffffff16565b91506114966040518060400160405280600681526020017f77696e6e65720000000000000000000000000000000000000000000000000000815250600b6000600985815481106114495761144861349a565b5b9060005260206000200154815260200190815260200160002060000160009054906101000a900473ffffffffffffffffffffffffffffffffffffffff16846127979092919063ffffffff16565b91506114a182612860565b91505b8080600101915050611293565b506114bb81612899565b9050806020015191505090565b600060029054906101000a900473ffffffffffffffffffffffffffffffffffffffff1673ffffffffffffffffffffffffffffffffffffffff163373ffffffffffffffffffffffffffffffffffffffff161461154f576040517f11845c2100000000000000000000000000000000000000000000000000000000815260040160405180910390fd5b60011515600360008373ffffffffffffffffffffffffffffffffffffffff1673ffffffffffffffffffffffffffffffffffffffff16815260200190815260200160002060009054906101000a900460ff161515146115d9576040517fc82dde3500000000000000000000000000000000000000000000000000000000815260040160405180910390fd5b600360008273ffffffffffffffffffffffffffffffffffffffff1673ffffffffffffffffffffffffffffffffffffffff16815260200190815260200160002060006101000a81549060ff021916905550565b60018081111561163e5761163d613408565b5b60008054906101000a900460ff16600181111561165e5761165d613408565b5b036116a357600454421061169e576040517fbebc7bdd00000000000000000000000000000000000000000000000000000000815260040160405180910390fd5b61174b565b600060018111156116b7576116b6613408565b5b60008054906101000a900460ff1660018111156116d7576116d6613408565b5b0361174a57600060028111156116f0576116ef613408565b5b600060019054906101000a900460ff16600281111561171257611711613408565b5b14611749576040517f0e92065300000000000000000000000000000000000000000000000000000000815260040160405180910390fd5b5b5b6001546009805490501061178b576040517f3153fe7000000000000000000000000000000000000000000000000000000000815260040160405180910390fd5b600082116117c5576040517f8463852800000000000000000000000000000000000000000000000000000000815260040160405180910390fd5b600115156007600084815260200190815260200160002060020160009054906101000a900460ff16151503611814578060076000848152602001908152602001600020600101819055506118be565b60405180606001604052808381526020018281526020016001151581525060076000848152602001908152602001600020600082015181600001556020820151816001015560408201518160020160006101000a81548160ff0219169083151502179055509050506009829080600181540180825580915050600190039060005260206000200160009091909190915055600860008154809291906118b8906134c9565b91905055505b5050565b6001808111156118d5576118d4613408565b5b60008054906101000a900460ff1660018111156118f5576118f4613408565b5b0361193a576004544210611935576040517fbebc7bdd00000000000000000000000000000000000000000000000000000000815260040160405180910390fd5b6119e2565b6000600181111561194e5761194d613408565b5b60008054906101000a900460ff16600181111561196e5761196d613408565b5b036119e1576000600281111561198757611986613408565b5b600060019054906101000a900460ff1660028111156119a9576119a8613408565b5b146119e0576040517f0e92065300000000000000000000000000000000000000000000000000000000815260040160405180910390fd5b5b5b600115156007600083815260200190815260200160002060020160009054906101000a900460ff16151514611a43576040517f299fb3c400000000000000000000000000000000000000000000000000000000815260040160405180910390fd5b60008111611a7d576040517f8463852800000000000000000000000000000000000000000000000000000000815260040160405180910390fd5b600160098054905003611ab45760006009600081548110611aa157611aa061349a565b5b9060005260206000200181905550611bb2565b60005b600980549050811015611bb0578160098281548110611ad957611ad861349a565b5b906000526020600020015414611ba357600060096001600980549050611aff9190613466565b81548110611b1057611b0f61349a565b5b90600052602060002001549050600060096001600980549050611b339190613466565b81548110611b4457611b4361349a565b5b90600052602060002001819055508060098381548110611b6757611b6661349a565b5b90600052602060002001819055506009805480611b8757611b86613511565b5b6001900381819060005260206000200160009055905550611bb0565b8080600101915050611ab7565b505b6007600082815260200190815260200160002060008082016000905560018201600090556002820160006101000a81549060ff0219169055505060086000815480929190611bff90613540565b919050555050565b60011515600360008373ffffffffffffffffffffffffffffffffffffffff1673ffffffffffffffffffffffffffffffffffffffff16815260200190815260200160002060009054906101000a900460ff16151514611c91576040517f11845c2100000000000000000000000000000000000000000000000000000000815260040160405180910390fd5b600180811115611ca457611ca3613408565b5b60008054906101000a900460ff166001811115611cc457611cc3613408565b5b03611d44576004544211611d04576040517fbebc7bdd00000000000000000000000000000000000000000000000000000000815260040160405180910390fd5b6005544210611d3f576040517f3e6f774700000000000000000000000000000000000000000000000000000000815260040160405180910390fd5b611dec565b60006001811115611d5857611d57613408565b5b60008054906101000a900460ff166001811115611d7857611d77613408565b5b03611deb5760016002811115611d9157611d90613408565b5b600060019054906101000a900460ff166002811115611db357611db2613408565b5b14611dea576040517f85c70dac00000000000000000000000000000000000000000000000000000000815260040160405180910390fd5b5b5b600115156007600084815260200190815260200160002060020160009054906101000a900460ff16151514611e4d576040517f299fb3c400000000000000000000000000000000000000000000000000000000815260040160405180910390fd5b6000349050600254811015611e8e576040517f43f79a0600000000000000000000000000000000000000000000000000000000815260040160405180910390fd5b60011515600a600085815260200190815260200160002060008473ffffffffffffffffffffffffffffffffffffffff1673ffffffffffffffffffffffffffffffffffffffff16815260200190815260200160002060030160009054906101000a900460ff161515036120e25780600a600085815260200190815260200160002060008473ffffffffffffffffffffffffffffffffffffffff1673ffffffffffffffffffffffffffffffffffffffff1681526020019081526020016000206002015410611f86576040517fa5e6d6ce00000000000000000000000000000000000000000000000000000000815260040160405180910390fd5b600a600084815260200190815260200160002060008373ffffffffffffffffffffffffffffffffffffffff1673ffffffffffffffffffffffffffffffffffffffff16815260200190815260200160002060020154600d60008473ffffffffffffffffffffffffffffffffffffffff1673ffffffffffffffffffffffffffffffffffffffff16815260200190815260200160002060008282546120289190613466565b9250508190555080600d60008473ffffffffffffffffffffffffffffffffffffffff1673ffffffffffffffffffffffffffffffffffffffff168152602001908152602001600020600082825461207e9190613569565b9250508190555080600a600085815260200190815260200160002060008473ffffffffffffffffffffffffffffffffffffffff1673ffffffffffffffffffffffffffffffffffffffff16815260200190815260200160002060020181905550612241565b80600d60008473ffffffffffffffffffffffffffffffffffffffff1673ffffffffffffffffffffffffffffffffffffffff16815260200190815260200160002060008282546121319190613569565b9250508190555060405180608001604052808373ffffffffffffffffffffffffffffffffffffffff16815260200184815260200182815260200160011515815250600a600085815260200190815260200160002060008473ffffffffffffffffffffffffffffffffffffffff1673ffffffffffffffffffffffffffffffffffffffff16815260200190815260200160002060008201518160000160006101000a81548173ffffffffffffffffffffffffffffffffffffffff021916908373ffffffffffffffffffffffffffffffffffffffff160217905550602082015181600101556040820151816002015560608201518160030160006101000a81548160ff0219169083151502179055509050505b80600b600085815260200190815260200160002060020154101561232b5760405180608001604052808373ffffffffffffffffffffffffffffffffffffffff16815260200184815260200182815260200160011515815250600b600085815260200190815260200160002060008201518160000160006101000a81548173ffffffffffffffffffffffffffffffffffffffff021916908373ffffffffffffffffffffffffffffffffffffffff160217905550602082015181600101556040820151816002015560608201518160030160006101000a81548160ff0219169083151502179055509050505b7f0fc69407039e8ba8cdd517e2a4cae9dd19697b0a500ff37a2425c59ebc649b31838260405161235c92919061359d565b60405180910390a180600c60008473ffffffffffffffffffffffffffffffffffffffff1673ffffffffffffffffffffffffffffffffffffffff16815260200190815260200160002060008282546123b39190613569565b92505081905550505050565b60011515600360008373ffffffffffffffffffffffffffffffffffffffff1673ffffffffffffffffffffffffffffffffffffffff16815260200190815260200160002060009054906101000a900460ff16151514612449576040517f11845c2100000000000000000000000000000000000000000000000000000000815260040160405180910390fd5b6000600c60008373ffffffffffffffffffffffffffffffffffffffff1673ffffffffffffffffffffffffffffffffffffffff16815260200190815260200160002054116124c2576040517f927eca2f00000000000000000000000000000000000000000000000000000000815260040160405180910390fd5b6000600d60008373ffffffffffffffffffffffffffffffffffffffff1673ffffffffffffffffffffffffffffffffffffffff168152602001908152602001600020549050600081600c60008573ffffffffffffffffffffffffffffffffffffffff1673ffffffffffffffffffffffffffffffffffffffff168152602001908152602001600020546125539190613466565b905080600c60008573ffffffffffffffffffffffffffffffffffffffff1673ffffffffffffffffffffffffffffffffffffffff16815260200190815260200160002060008282546125a49190613466565b92505081905550600081116125e5576040517f927eca2f00000000000000000000000000000000000000000000000000000000815260040160405180910390fd5b600115158373ffffffffffffffffffffffffffffffffffffffff166108fc839081150290604051600060405180830381858888f19350505050151514612657576040517ff5ef1ce300000000000000000000000000000000000000000000000000000000815260040160405180910390fd5b505050565b612664613044565b61268e827f5b000000000000000000000000000000000000000000000000000000000000006128d2565b9050919050565b61269d613044565b6126c7827f7b000000000000000000000000000000000000000000000000000000000000006128d2565b9050919050565b6126d6613044565b6000846000015112156127425783602001517f2c0000000000000000000000000000000000000000000000000000000000000084612713856129ba565b60405160200161272694939291906136e7565b604051602081830303815290604052846020018190525061277b565b836020015183612751846129ba565b6040516020016127639392919061373f565b60405160208183030381529060405284602001819052505b61278484612b33565b8460000181815250508390509392505050565b61279f613044565b60008460000151121561280b5783602001517f2c00000000000000000000000000000000000000000000000000000000000000846127dc85612b48565b6040516020016127ef94939291906137d2565b6040516020818303038152906040528460200181905250612844565b83602001518361281a84612b48565b60405160200161282c93929190613835565b60405160208183030381529060405284602001819052505b61284d84612b33565b8460000181815250508390509392505050565b612868613044565b612892827f7d00000000000000000000000000000000000000000000000000000000000000612f9c565b9050919050565b6128a1613044565b6128cb827f5d00000000000000000000000000000000000000000000000000000000000000612f9c565b9050919050565b6128da613044565b60008360000151121561293c5782602001517f2c000000000000000000000000000000000000000000000000000000000000008360405160200161292093929190613887565b604051602081830303815290604052836020018190525061296b565b8260200151826040516020016129539291906138c0565b60405160208183030381529060405283602001819052505b7f7fffffffffffffffffffffffffffffffffffffffffffffffffffffffffffffff8360000181815116915081815250508260000180518091906129ad906138f2565b8152505082905092915050565b606060008203612a01576040518060400160405280600181526020017f30000000000000000000000000000000000000000000000000000000000000008152509050612b2e565b600082905060005b60008214612a33578080612a1c906134c9565b915050600a82612a2c9190613969565b9150612a09565b60008167ffffffffffffffff811115612a4f57612a4e61399a565b5b6040519080825280601f01601f191660200182016040528015612a815781602001600182028036833780820191505090505b50905060008290505b60008614612b2657600a8087612aa09190613969565b612aaa91906139c9565b86612ab59190613466565b6030612ac19190613a18565b60f81b8282612acf90613540565b92508281518110612ae357612ae261349a565b5b60200101907effffffffffffffffffffffffffffffffffffffffffffffffffffffffffffff1916908160001a905350600a86612b1f9190613969565b9550612a8a565b819450505050505b919050565b600060ff6001901b8260000151179050919050565b60606000602867ffffffffffffffff811115612b6757612b6661399a565b5b6040519080825280601f01601f191660200182016040528015612b995781602001600182028036833780820191505090505b509050600083905060005b6028811015612c73577f3031323334353637383961626364656600000000000000000000000000000000600f831673ffffffffffffffffffffffffffffffffffffffff1660108110612bf957612bf861349a565b5b1a60f81b83826027612c0b9190613466565b81518110612c1c57612c1b61349a565b5b60200101907effffffffffffffffffffffffffffffffffffffffffffffffffffffffffffff1916908160001a90535060048273ffffffffffffffffffffffffffffffffffffffff16901c9150806001019050612ba4565b50600082604051602001612c879190613a94565b6040516020818303038152906040528051906020012090506000602a67ffffffffffffffff811115612cbc57612cbb61399a565b5b6040519080825280601f01601f191660200182016040528015612cee5781602001600182028036833780820191505090505b5090507f300000000000000000000000000000000000000000000000000000000000000081600081518110612d2657612d2561349a565b5b60200101907effffffffffffffffffffffffffffffffffffffffffffffffffffffffffffff1916908160001a9053507f780000000000000000000000000000000000000000000000000000000000000081600181518110612d8a57612d8961349a565b5b60200101907effffffffffffffffffffffffffffffffffffffffffffffffffffffffffffff1916908160001a905350600086905060008360601c90506000602990505b6001811115612f6e576000600f831673ffffffffffffffffffffffffffffffffffffffff1690506007811115612e94577f3031323334353637383941424344454600000000000000000000000000000000600f851673ffffffffffffffffffffffffffffffffffffffff1660108110612e4957612e4861349a565b5b1a60f81b858381518110612e6057612e5f61349a565b5b60200101907effffffffffffffffffffffffffffffffffffffffffffffffffffffffffffff1916908160001a905350612f27565b7f3031323334353637383961626364656600000000000000000000000000000000600f851673ffffffffffffffffffffffffffffffffffffffff1660108110612ee057612edf61349a565b5b1a60f81b858381518110612ef757612ef661349a565b5b60200101907effffffffffffffffffffffffffffffffffffffffffffffffffffffffffffff1916908160001a9053505b60048473ffffffffffffffffffffffffffffffffffffffff16901c935060048373ffffffffffffffffffffffffffffffffffffffff16901c92508160019003915050612dcd565b5082604051602001612f809190613a94565b6040516020818303038152906040529650505050505050919050565b612fa4613044565b826020015182604051602001612fbb9291906138c0565b6040516020818303038152906040528360200181905250612fdb83612b33565b8360000181815250506000612fef84613014565b1461300b5782600001805180919061300690613aab565b815250505b82905092915050565b60007f7fffffffffffffffffffffffffffffffffffffffffffffffffffffffffffffff8260000151169050919050565b604051806040016040528060008152602001606081525090565b600080fd5b6000819050919050565b61307681613063565b811461308157600080fd5b50565b6000813590506130938161306d565b92915050565b60008115159050919050565b6130ae81613099565b81146130b957600080fd5b50565b6000813590506130cb816130a5565b92915050565b6000806000606084860312156130ea576130e961305e565b5b60006130f886828701613084565b935050602061310986828701613084565b925050604061311a868287016130bc565b9150509250925092565b600073ffffffffffffffffffffffffffffffffffffffff82169050919050565b600061314f82613124565b9050919050565b61315f81613144565b811461316a57600080fd5b50565b60008135905061317c81613156565b92915050565b600080604083850312156131995761319861305e565b5b60006131a785828601613084565b92505060206131b88582860161316d565b9150509250929050565b6131cb81613063565b82525050565b60006020820190506131e660008301846131c2565b92915050565b6000602082840312156132025761320161305e565b5b600061321084828501613084565b91505092915050565b600080604083850312156132305761322f61305e565b5b600061323e85828601613084565b925050602061324f85828601613084565b9150509250929050565b61326281613144565b82525050565b61327181613099565b82525050565b600060808201905061328c6000830187613259565b61329960208301866131c2565b6132a660408301856131c2565b6132b36060830184613268565b95945050505050565b60006060820190506132d160008301866131c2565b6132de60208301856131c2565b6132eb6040830184613268565b949350505050565b60006020820190506133086000830184613259565b92915050565b6000602082840312156133245761332361305e565b5b60006133328482850161316d565b91505092915050565b60006020820190506133506000830184613268565b92915050565b600081519050919050565b600082825260208201905092915050565b60005b83811015613390578082015181840152602081019050613375565b60008484015250505050565b6000601f19601f8301169050919050565b60006133b882613356565b6133c28185613361565b93506133d2818560208601613372565b6133db8161339c565b840191505092915050565b6000602082019050818103600083015261340081846133ad565b905092915050565b7f4e487b7100000000000000000000000000000000000000000000000000000000600052602160045260246000fd5b7f4e487b7100000000000000000000000000000000000000000000000000000000600052601160045260246000fd5b600061347182613063565b915061347c83613063565b925082820390508181111561349457613493613437565b5b92915050565b7f4e487b7100000000000000000000000000000000000000000000000000000000600052603260045260246000fd5b60006134d482613063565b91507fffffffffffffffffffffffffffffffffffffffffffffffffffffffffffffffff820361350657613505613437565b5b600182019050919050565b7f4e487b7100000000000000000000000000000000000000000000000000000000600052603160045260246000fd5b600061354b82613063565b91506000820361355e5761355d613437565b5b600182039050919050565b600061357482613063565b915061357f83613063565b925082820190508082111561359757613596613437565b5b92915050565b60006040820190506135b260008301856131c2565b6135bf60208301846131c2565b9392505050565b600081905092915050565b60006135dc82613356565b6135e681856135c6565b93506135f6818560208601613372565b80840191505092915050565b60007fff0000000000000000000000000000000000000000000000000000000000000082169050919050565b6000819050919050565b61364961364482613602565b61362e565b82525050565b7f2200000000000000000000000000000000000000000000000000000000000000600082015250565b60006136856001836135c6565b91506136908261364f565b600182019050919050565b7f223a200000000000000000000000000000000000000000000000000000000000600082015250565b60006136d16003836135c6565b91506136dc8261369b565b600382019050919050565b60006136f382876135d1565b91506136ff8286613638565b60018201915061370e82613678565b915061371a82856135d1565b9150613725826136c4565b915061373182846135d1565b915081905095945050505050565b600061374b82866135d1565b915061375682613678565b915061376282856135d1565b915061376d826136c4565b915061377982846135d1565b9150819050949350505050565b7f223a202200000000000000000000000000000000000000000000000000000000600082015250565b60006137bc6004836135c6565b91506137c782613786565b600482019050919050565b60006137de82876135d1565b91506137ea8286613638565b6001820191506137f982613678565b915061380582856135d1565b9150613810826137af565b915061381c82846135d1565b915061382782613678565b915081905095945050505050565b600061384182866135d1565b915061384c82613678565b915061385882856135d1565b9150613863826137af565b915061386f82846135d1565b915061387a82613678565b9150819050949350505050565b600061389382866135d1565b915061389f8285613638565b6001820191506138af8284613638565b600182019150819050949350505050565b60006138cc82856135d1565b91506138d88284613638565b6001820191508190509392505050565b6000819050919050565b60006138fd826138e8565b91507f7fffffffffffffffffffffffffffffffffffffffffffffffffffffffffffffff820361392f5761392e613437565b5b600182019050919050565b7f4e487b7100000000000000000000000000000000000000000000000000000000600052601260045260246000fd5b600061397482613063565b915061397f83613063565b92508261398f5761398e61393a565b5b828204905092915050565b7f4e487b7100000000000000000000000000000000000000000000000000000000600052604160045260246000fd5b60006139d482613063565b91506139df83613063565b92508282026139ed81613063565b91508282048414831517613a0457613a03613437565b5b5092915050565b600060ff82169050919050565b6000613a2382613a0b565b9150613a2e83613a0b565b9250828201905060ff811115613a4757613a46613437565b5b92915050565b600081519050919050565b600081905092915050565b6000613a6e82613a4d565b613a788185613a58565b9350613a88818560208601613372565b80840191505092915050565b6000613aa08284613a63565b915081905092915050565b6000613ab6826138e8565b91507f80000000000000000000000000000000000000000000000000000000000000008203613ae857613ae7613437565b5b60018203905091905056fea2646970667358221220f307738e766d105120920ed4d556ff73c2a042611560551ffa474916cffc085f64736f6c634300081c0033","opcodes":"PUSH1 0x80 PUSH1 0x40 MSTORE PUSH1 0x0 DUP1 PUSH1 0x1 PUSH2 0x100 EXP DUP2 SLOAD DUP2 PUSH1 0xFF MUL NOT AND SWAP1 DUP4 PUSH1 0x2 DUP2 GT ISZERO PUSH2 0x29 JUMPI PUSH2 0x28 PUSH2 0x15F JUMP JUMPDEST JUMPDEST MUL OR SWAP1 SSTORE POP PUSH1 0x3 PUSH1 0x1 SSTORE PUSH3 0xF4240 PUSH1 0x2 SSTORE PUSH1 0x0 PUSH1 0x8 SSTORE CALLVALUE DUP1 ISZERO PUSH2 0x4B JUMPI PUSH1 0x0 DUP1 REVERT JUMPDEST POP PUSH1 0x40 MLOAD PUSH2 0x3D1D CODESIZE SUB DUP1 PUSH2 0x3D1D DUP4 CODECOPY DUP2 DUP2 ADD PUSH1 0x40 MSTORE DUP2 ADD SWAP1 PUSH2 0x6D SWAP2 SWAP1 PUSH2 0x1B8 JUMP JUMPDEST DUP1 PUSH1 0x0 DUP1 PUSH2 0x100 EXP DUP2 SLOAD DUP2 PUSH1 0xFF MUL NOT AND SWAP1 DUP4 PUSH1 0x1 DUP2 GT ISZERO PUSH2 0x91 JUMPI PUSH2 0x90 PUSH2 0x15F JUMP JUMPDEST JUMPDEST MUL OR SWAP1 SSTORE POP CALLER PUSH1 0x0 PUSH1 0x2 PUSH2 0x100 EXP DUP2 SLOAD DUP2 PUSH20 0xFFFFFFFFFFFFFFFFFFFFFFFFFFFFFFFFFFFFFFFF MUL NOT AND SWAP1 DUP4 PUSH20 0xFFFFFFFFFFFFFFFFFFFFFFFFFFFFFFFFFFFFFFFF AND MUL OR SWAP1 SSTORE POP PUSH2 0x708 PUSH1 0x6 DUP2 SWAP1 SSTORE POP PUSH1 0x1 PUSH1 0x3 PUSH1 0x0 DUP1 PUSH1 0x2 SWAP1 SLOAD SWAP1 PUSH2 0x100 EXP SWAP1 DIV PUSH20 0xFFFFFFFFFFFFFFFFFFFFFFFFFFFFFFFFFFFFFFFF AND PUSH20 0xFFFFFFFFFFFFFFFFFFFFFFFFFFFFFFFFFFFFFFFF AND PUSH20 0xFFFFFFFFFFFFFFFFFFFFFFFFFFFFFFFFFFFFFFFF AND DUP2 MSTORE PUSH1 0x20 ADD SWAP1 DUP2 MSTORE PUSH1 0x20 ADD PUSH1 0x0 KECCAK256 PUSH1 0x0 PUSH2 0x100 EXP DUP2 SLOAD DUP2 PUSH1 0xFF MUL NOT AND SWAP1 DUP4 ISZERO ISZERO MUL OR SWAP1 SSTORE POP POP PUSH2 0x1E5 JUMP JUMPDEST PUSH32 0x4E487B7100000000000000000000000000000000000000000000000000000000 PUSH1 0x0 MSTORE PUSH1 0x21 PUSH1 0x4 MSTORE PUSH1 0x24 PUSH1 0x0 REVERT JUMPDEST PUSH1 0x0 DUP1 REVERT JUMPDEST PUSH1 0x2 DUP2 LT PUSH2 0x1A0 JUMPI PUSH1 0x0 DUP1 REVERT JUMPDEST POP JUMP JUMPDEST PUSH1 0x0 DUP2 MLOAD SWAP1 POP PUSH2 0x1B2 DUP2 PUSH2 0x193 JUMP JUMPDEST SWAP3 SWAP2 POP POP JUMP JUMPDEST PUSH1 0x0 PUSH1 0x20 DUP3 DUP5 SUB SLT ISZERO PUSH2 0x1CE JUMPI PUSH2 0x1CD PUSH2 0x18E JUMP JUMPDEST JUMPDEST PUSH1 0x0 PUSH2 0x1DC DUP5 DUP3 DUP6 ADD PUSH2 0x1A3 JUMP JUMPDEST SWAP2 POP POP SWAP3 SWAP2 POP POP JUMP JUMPDEST PUSH2 0x3B29 DUP1 PUSH2 0x1F4 PUSH1 0x0 CODECOPY PUSH1 0x0 RETURN INVALID PUSH1 0x80 PUSH1 0x40 MSTORE PUSH1 0x4 CALLDATASIZE LT PUSH2 0x123 JUMPI PUSH1 0x0 CALLDATALOAD PUSH1 0xE0 SHR DUP1 PUSH4 0x77DEC24C GT PUSH2 0xA0 JUMPI DUP1 PUSH4 0x954D4FBD GT PUSH2 0x64 JUMPI DUP1 PUSH4 0x954D4FBD EQ PUSH2 0x3B5 JUMPI DUP1 PUSH4 0xB6A5D7DE EQ PUSH2 0x3DE JUMPI DUP1 PUSH4 0xB9B48595 EQ PUSH2 0x407 JUMPI DUP1 PUSH4 0xDF15C37E EQ PUSH2 0x444 JUMPI DUP1 PUSH4 0xF0B37C04 EQ PUSH2 0x46F JUMPI PUSH2 0x12A JUMP JUMPDEST DUP1 PUSH4 0x77DEC24C EQ PUSH2 0x2A6 JUMPI DUP1 PUSH4 0x825AE97E EQ PUSH2 0x2E5 JUMPI DUP1 PUSH4 0x87E06E5E EQ PUSH2 0x310 JUMPI DUP1 PUSH4 0x8DA5CB5B EQ PUSH2 0x34D JUMPI DUP1 PUSH4 0x8F288644 EQ PUSH2 0x378 JUMPI PUSH2 0x12A JUMP JUMPDEST DUP1 PUSH4 0x454A2AB3 GT PUSH2 0xE7 JUMPI DUP1 PUSH4 0x454A2AB3 EQ PUSH2 0x1DF JUMPI DUP1 PUSH4 0x4C738909 EQ PUSH2 0x1FB JUMPI DUP1 PUSH4 0x5B0BA29B EQ PUSH2 0x226 JUMPI DUP1 PUSH4 0x69B2643D EQ PUSH2 0x24F JUMPI DUP1 PUSH4 0x6B64C769 EQ PUSH2 0x28F JUMPI PUSH2 0x12A JUMP JUMPDEST DUP1 PUSH4 0x471B94B EQ PUSH2 0x12F JUMPI DUP1 PUSH4 0xD1F55E3 EQ PUSH2 0x158 JUMPI DUP1 PUSH4 0x378252F2 EQ PUSH2 0x174 JUMPI DUP1 PUSH4 0x3C7A1E7D EQ PUSH2 0x18B JUMPI DUP1 PUSH4 0x3CCFD60B EQ PUSH2 0x1C8 JUMPI PUSH2 0x12A JUMP JUMPDEST CALLDATASIZE PUSH2 0x12A JUMPI STOP JUMPDEST PUSH1 0x0 DUP1 REVERT JUMPDEST CALLVALUE DUP1 ISZERO PUSH2 0x13B JUMPI PUSH1 0x0 DUP1 REVERT JUMPDEST POP PUSH2 0x156 PUSH1 0x4 DUP1 CALLDATASIZE SUB DUP2 ADD SWAP1 PUSH2 0x151 SWAP2 SWAP1 PUSH2 0x30D1 JUMP JUMPDEST PUSH2 0x498 JUMP JUMPDEST STOP JUMPDEST PUSH2 0x172 PUSH1 0x4 DUP1 CALLDATASIZE SUB DUP2 ADD SWAP1 PUSH2 0x16D SWAP2 SWAP1 PUSH2 0x3182 JUMP JUMPDEST PUSH2 0x549 JUMP JUMPDEST STOP JUMPDEST CALLVALUE DUP1 ISZERO PUSH2 0x180 JUMPI PUSH1 0x0 DUP1 REVERT JUMPDEST POP PUSH2 0x189 PUSH2 0x5E1 JUMP JUMPDEST STOP JUMPDEST CALLVALUE DUP1 ISZERO PUSH2 0x197 JUMPI PUSH1 0x0 DUP1 REVERT JUMPDEST POP PUSH2 0x1B2 PUSH1 0x4 DUP1 CALLDATASIZE SUB DUP2 ADD SWAP1 PUSH2 0x1AD SWAP2 SWAP1 PUSH2 0x3182 JUMP JUMPDEST PUSH2 0x76D JUMP JUMPDEST PUSH1 0x40 MLOAD PUSH2 0x1BF SWAP2 SWAP1 PUSH2 0x31D1 JUMP JUMPDEST PUSH1 0x40 MLOAD DUP1 SWAP2 SUB SWAP1 RETURN JUMPDEST CALLVALUE DUP1 ISZERO PUSH2 0x1D4 JUMPI PUSH1 0x0 DUP1 REVERT JUMPDEST POP PUSH2 0x1DD PUSH2 0x8EF JUMP JUMPDEST STOP JUMPDEST PUSH2 0x1F9 PUSH1 0x4 DUP1 CALLDATASIZE SUB DUP2 ADD SWAP1 PUSH2 0x1F4 SWAP2 SWAP1 PUSH2 0x31EC JUMP JUMPDEST PUSH2 0x984 JUMP JUMPDEST STOP JUMPDEST CALLVALUE DUP1 ISZERO PUSH2 0x207 JUMPI PUSH1 0x0 DUP1 REVERT JUMPDEST POP PUSH2 0x210 PUSH2 0xA1B JUMP JUMPDEST PUSH1 0x40 MLOAD PUSH2 0x21D SWAP2 SWAP1 PUSH2 0x31D1 JUMP JUMPDEST PUSH1 0x40 MLOAD DUP1 SWAP2 SUB SWAP1 RETURN JUMPDEST CALLVALUE DUP1 ISZERO PUSH2 0x232 JUMPI PUSH1 0x0 DUP1 REVERT JUMPDEST POP PUSH2 0x24D PUSH1 0x4 DUP1 CALLDATASIZE SUB DUP2 ADD SWAP1 PUSH2 0x248 SWAP2 SWAP1 PUSH2 0x3219 JUMP JUMPDEST PUSH2 0xAEC JUMP JUMPDEST STOP JUMPDEST CALLVALUE DUP1 ISZERO PUSH2 0x25B JUMPI PUSH1 0x0 DUP1 REVERT JUMPDEST POP PUSH2 0x276 PUSH1 0x4 DUP1 CALLDATASIZE SUB DUP2 ADD SWAP1 PUSH2 0x271 SWAP2 SWAP1 PUSH2 0x3182 JUMP JUMPDEST PUSH2 0xC13 JUMP JUMPDEST PUSH1 0x40 MLOAD PUSH2 0x286 SWAP5 SWAP4 SWAP3 SWAP2 SWAP1 PUSH2 0x3277 JUMP JUMPDEST PUSH1 0x40 MLOAD DUP1 SWAP2 SUB SWAP1 RETURN JUMPDEST CALLVALUE DUP1 ISZERO PUSH2 0x29B JUMPI PUSH1 0x0 DUP1 REVERT JUMPDEST POP PUSH2 0x2A4 PUSH2 0xC7D JUMP JUMPDEST STOP JUMPDEST CALLVALUE DUP1 ISZERO PUSH2 0x2B2 JUMPI PUSH1 0x0 DUP1 REVERT JUMPDEST POP PUSH2 0x2CD PUSH1 0x4 DUP1 CALLDATASIZE SUB DUP2 ADD SWAP1 PUSH2 0x2C8 SWAP2 SWAP1 PUSH2 0x31EC JUMP JUMPDEST PUSH2 0xE09 JUMP JUMPDEST PUSH1 0x40 MLOAD PUSH2 0x2DC SWAP4 SWAP3 SWAP2 SWAP1 PUSH2 0x32BC JUMP JUMPDEST PUSH1 0x40 MLOAD DUP1 SWAP2 SUB SWAP1 RETURN JUMPDEST CALLVALUE DUP1 ISZERO PUSH2 0x2F1 JUMPI PUSH1 0x0 DUP1 REVERT JUMPDEST POP PUSH2 0x2FA PUSH2 0xE40 JUMP JUMPDEST PUSH1 0x40 MLOAD PUSH2 0x307 SWAP2 SWAP1 PUSH2 0x31D1 JUMP JUMPDEST PUSH1 0x40 MLOAD DUP1 SWAP2 SUB SWAP1 RETURN JUMPDEST CALLVALUE DUP1 ISZERO PUSH2 0x31C JUMPI PUSH1 0x0 DUP1 REVERT JUMPDEST POP PUSH2 0x337 PUSH1 0x4 DUP1 CALLDATASIZE SUB DUP2 ADD SWAP1 PUSH2 0x332 SWAP2 SWAP1 PUSH2 0x31EC JUMP JUMPDEST PUSH2 0xE46 JUMP JUMPDEST PUSH1 0x40 MLOAD PUSH2 0x344 SWAP2 SWAP1 PUSH2 0x31D1 JUMP JUMPDEST PUSH1 0x40 MLOAD DUP1 SWAP2 SUB SWAP1 RETURN JUMPDEST CALLVALUE DUP1 ISZERO PUSH2 0x359 JUMPI PUSH1 0x0 DUP1 REVERT JUMPDEST POP PUSH2 0x362 PUSH2 0xE6A JUMP JUMPDEST PUSH1 0x40 MLOAD PUSH2 0x36F SWAP2 SWAP1 PUSH2 0x32F3 JUMP JUMPDEST PUSH1 0x40 MLOAD DUP1 SWAP2 SUB SWAP1 RETURN JUMPDEST CALLVALUE DUP1 ISZERO PUSH2 0x384 JUMPI PUSH1 0x0 DUP1 REVERT JUMPDEST POP PUSH2 0x39F PUSH1 0x4 DUP1 CALLDATASIZE SUB DUP2 ADD SWAP1 PUSH2 0x39A SWAP2 SWAP1 PUSH2 0x31EC JUMP JUMPDEST PUSH2 0xE90 JUMP JUMPDEST PUSH1 0x40 MLOAD PUSH2 0x3AC SWAP2 SWAP1 PUSH2 0x31D1 JUMP JUMPDEST PUSH1 0x40 MLOAD DUP1 SWAP2 SUB SWAP1 RETURN JUMPDEST CALLVALUE DUP1 ISZERO PUSH2 0x3C1 JUMPI PUSH1 0x0 DUP1 REVERT JUMPDEST POP PUSH2 0x3DC PUSH1 0x4 DUP1 CALLDATASIZE SUB DUP2 ADD SWAP1 PUSH2 0x3D7 SWAP2 SWAP1 PUSH2 0x330E JUMP JUMPDEST PUSH2 0xF97 JUMP JUMPDEST STOP JUMPDEST CALLVALUE DUP1 ISZERO PUSH2 0x3EA JUMPI PUSH1 0x0 DUP1 REVERT JUMPDEST POP PUSH2 0x405 PUSH1 0x4 DUP1 CALLDATASIZE SUB DUP2 ADD SWAP1 PUSH2 0x400 SWAP2 SWAP1 PUSH2 0x330E JUMP JUMPDEST PUSH2 0x102A JUMP JUMPDEST STOP JUMPDEST CALLVALUE DUP1 ISZERO PUSH2 0x413 JUMPI PUSH1 0x0 DUP1 REVERT JUMPDEST POP PUSH2 0x42E PUSH1 0x4 DUP1 CALLDATASIZE SUB DUP2 ADD SWAP1 PUSH2 0x429 SWAP2 SWAP1 PUSH2 0x330E JUMP JUMPDEST PUSH2 0x1196 JUMP JUMPDEST PUSH1 0x40 MLOAD PUSH2 0x43B SWAP2 SWAP1 PUSH2 0x333B JUMP JUMPDEST PUSH1 0x40 MLOAD DUP1 SWAP2 SUB SWAP1 RETURN JUMPDEST CALLVALUE DUP1 ISZERO PUSH2 0x450 JUMPI PUSH1 0x0 DUP1 REVERT JUMPDEST POP PUSH2 0x459 PUSH2 0x11B6 JUMP JUMPDEST PUSH1 0x40 MLOAD PUSH2 0x466 SWAP2 SWAP1 PUSH2 0x33E6 JUMP JUMPDEST PUSH1 0x40 MLOAD DUP1 SWAP2 SUB SWAP1 RETURN JUMPDEST CALLVALUE DUP1 ISZERO PUSH2 0x47B JUMPI PUSH1 0x0 DUP1 REVERT JUMPDEST POP PUSH2 0x496 PUSH1 0x4 DUP1 CALLDATASIZE SUB DUP2 ADD SWAP1 PUSH2 0x491 SWAP2 SWAP1 PUSH2 0x330E JUMP JUMPDEST PUSH2 0x14C8 JUMP JUMPDEST STOP JUMPDEST PUSH1 0x0 PUSH1 0x2 SWAP1 SLOAD SWAP1 PUSH2 0x100 EXP SWAP1 DIV PUSH20 0xFFFFFFFFFFFFFFFFFFFFFFFFFFFFFFFFFFFFFFFF AND PUSH20 0xFFFFFFFFFFFFFFFFFFFFFFFFFFFFFFFFFFFFFFFF AND CALLER PUSH20 0xFFFFFFFFFFFFFFFFFFFFFFFFFFFFFFFFFFFFFFFF AND EQ PUSH2 0x51F JUMPI PUSH1 0x40 MLOAD PUSH32 0x11845C2100000000000000000000000000000000000000000000000000000000 DUP2 MSTORE PUSH1 0x4 ADD PUSH1 0x40 MLOAD DUP1 SWAP2 SUB SWAP1 REVERT JUMPDEST PUSH1 0x0 ISZERO ISZERO DUP2 ISZERO ISZERO SUB PUSH2 0x53A JUMPI PUSH2 0x535 DUP4 DUP4 PUSH2 0x162B JUMP JUMPDEST PUSH2 0x544 JUMP JUMPDEST PUSH2 0x543 DUP4 PUSH2 0x18C2 JUMP JUMPDEST JUMPDEST POP POP POP JUMP JUMPDEST PUSH1 0x1 ISZERO ISZERO PUSH1 0x3 PUSH1 0x0 CALLER PUSH20 0xFFFFFFFFFFFFFFFFFFFFFFFFFFFFFFFFFFFFFFFF AND PUSH20 0xFFFFFFFFFFFFFFFFFFFFFFFFFFFFFFFFFFFFFFFF AND DUP2 MSTORE PUSH1 0x20 ADD SWAP1 DUP2 MSTORE PUSH1 0x20 ADD PUSH1 0x0 KECCAK256 PUSH1 0x0 SWAP1 SLOAD SWAP1 PUSH2 0x100 EXP SWAP1 DIV PUSH1 0xFF AND ISZERO ISZERO EQ PUSH2 0x5D3 JUMPI PUSH1 0x40 MLOAD PUSH32 0x11845C2100000000000000000000000000000000000000000000000000000000 DUP2 MSTORE PUSH1 0x4 ADD PUSH1 0x40 MLOAD DUP1 SWAP2 SUB SWAP1 REVERT JUMPDEST PUSH2 0x5DD DUP3 DUP3 PUSH2 0x1C07 JUMP JUMPDEST POP POP JUMP JUMPDEST PUSH1 0x0 PUSH1 0x2 SWAP1 SLOAD SWAP1 PUSH2 0x100 EXP SWAP1 DIV PUSH20 0xFFFFFFFFFFFFFFFFFFFFFFFFFFFFFFFFFFFFFFFF AND PUSH20 0xFFFFFFFFFFFFFFFFFFFFFFFFFFFFFFFFFFFFFFFF AND CALLER PUSH20 0xFFFFFFFFFFFFFFFFFFFFFFFFFFFFFFFFFFFFFFFF AND EQ PUSH2 0x668 JUMPI PUSH1 0x40 MLOAD PUSH32 0x11845C2100000000000000000000000000000000000000000000000000000000 DUP2 MSTORE PUSH1 0x4 ADD PUSH1 0x40 MLOAD DUP1 SWAP2 SUB SWAP1 REVERT JUMPDEST PUSH1 0x0 PUSH1 0x1 DUP2 GT ISZERO PUSH2 0x67C JUMPI PUSH2 0x67B PUSH2 0x3408 JUMP JUMPDEST JUMPDEST PUSH1 0x0 DUP1 SLOAD SWAP1 PUSH2 0x100 EXP SWAP1 DIV PUSH1 0xFF AND PUSH1 0x1 DUP2 GT ISZERO PUSH2 0x69C JUMPI PUSH2 0x69B PUSH2 0x3408 JUMP JUMPDEST JUMPDEST EQ PUSH2 0x6D3 JUMPI PUSH1 0x40 MLOAD PUSH32 0xCE0E4C9500000000000000000000000000000000000000000000000000000000 DUP2 MSTORE PUSH1 0x4 ADD PUSH1 0x40 MLOAD DUP1 SWAP2 SUB SWAP1 REVERT JUMPDEST PUSH1 0x1 PUSH1 0x2 DUP2 GT ISZERO PUSH2 0x6E7 JUMPI PUSH2 0x6E6 PUSH2 0x3408 JUMP JUMPDEST JUMPDEST PUSH1 0x0 PUSH1 0x1 SWAP1 SLOAD SWAP1 PUSH2 0x100 EXP SWAP1 DIV PUSH1 0xFF AND PUSH1 0x2 DUP2 GT ISZERO PUSH2 0x709 JUMPI PUSH2 0x708 PUSH2 0x3408 JUMP JUMPDEST JUMPDEST EQ PUSH2 0x740 JUMPI PUSH1 0x40 MLOAD PUSH32 0xBEBC7BDD00000000000000000000000000000000000000000000000000000000 DUP2 MSTORE PUSH1 0x4 ADD PUSH1 0x40 MLOAD DUP1 SWAP2 SUB SWAP1 REVERT JUMPDEST PUSH1 0x1 PUSH1 0x0 PUSH1 0x1 PUSH2 0x100 EXP DUP2 SLOAD DUP2 PUSH1 0xFF MUL NOT AND SWAP1 DUP4 PUSH1 0x2 DUP2 GT ISZERO PUSH2 0x766 JUMPI PUSH2 0x765 PUSH2 0x3408 JUMP JUMPDEST JUMPDEST MUL OR SWAP1 SSTORE POP JUMP JUMPDEST PUSH1 0x0 DUP1 PUSH1 0x2 SWAP1 SLOAD SWAP1 PUSH2 0x100 EXP SWAP1 DIV PUSH20 0xFFFFFFFFFFFFFFFFFFFFFFFFFFFFFFFFFFFFFFFF AND PUSH20 0xFFFFFFFFFFFFFFFFFFFFFFFFFFFFFFFFFFFFFFFF AND CALLER PUSH20 0xFFFFFFFFFFFFFFFFFFFFFFFFFFFFFFFFFFFFFFFF AND EQ PUSH2 0x7F5 JUMPI PUSH1 0x40 MLOAD PUSH32 0x11845C2100000000000000000000000000000000000000000000000000000000 DUP2 MSTORE PUSH1 0x4 ADD PUSH1 0x40 MLOAD DUP1 SWAP2 SUB SWAP1 REVERT JUMPDEST PUSH1 0x1 ISZERO ISZERO PUSH1 0xA PUSH1 0x0 DUP6 DUP2 MSTORE PUSH1 0x20 ADD SWAP1 DUP2 MSTORE PUSH1 0x20 ADD PUSH1 0x0 KECCAK256 PUSH1 0x0 DUP5 PUSH20 0xFFFFFFFFFFFFFFFFFFFFFFFFFFFFFFFFFFFFFFFF AND PUSH20 0xFFFFFFFFFFFFFFFFFFFFFFFFFFFFFFFFFFFFFFFF AND DUP2 MSTORE PUSH1 0x20 ADD SWAP1 DUP2 MSTORE PUSH1 0x20 ADD PUSH1 0x0 KECCAK256 PUSH1 0x3 ADD PUSH1 0x0 SWAP1 SLOAD SWAP1 PUSH2 0x100 EXP SWAP1 DIV PUSH1 0xFF AND ISZERO ISZERO EQ PUSH2 0x893 JUMPI PUSH1 0x40 MLOAD PUSH32 0x299FB3C400000000000000000000000000000000000000000000000000000000 DUP2 MSTORE PUSH1 0x4 ADD PUSH1 0x40 MLOAD DUP1 SWAP2 SUB SWAP1 REVERT JUMPDEST PUSH1 0xA PUSH1 0x0 DUP5 DUP2 MSTORE PUSH1 0x20 ADD SWAP1 DUP2 MSTORE PUSH1 0x20 ADD PUSH1 0x0 KECCAK256 PUSH1 0x0 DUP4 PUSH20 0xFFFFFFFFFFFFFFFFFFFFFFFFFFFFFFFFFFFFFFFF AND PUSH20 0xFFFFFFFFFFFFFFFFFFFFFFFFFFFFFFFFFFFFFFFF AND DUP2 MSTORE PUSH1 0x20 ADD SWAP1 DUP2 MSTORE PUSH1 0x20 ADD PUSH1 0x0 KECCAK256 PUSH1 0x2 ADD SLOAD SWAP1 POP SWAP3 SWAP2 POP POP JUMP JUMPDEST PUSH1 0x1 ISZERO ISZERO PUSH1 0x3 PUSH1 0x0 CALLER PUSH20 0xFFFFFFFFFFFFFFFFFFFFFFFFFFFFFFFFFFFFFFFF AND PUSH20 0xFFFFFFFFFFFFFFFFFFFFFFFFFFFFFFFFFFFFFFFF AND DUP2 MSTORE PUSH1 0x20 ADD SWAP1 DUP2 MSTORE PUSH1 0x20 ADD PUSH1 0x0 KECCAK256 PUSH1 0x0 SWAP1 SLOAD SWAP1 PUSH2 0x100 EXP SWAP1 DIV PUSH1 0xFF AND ISZERO ISZERO EQ PUSH2 0x979 JUMPI PUSH1 0x40 MLOAD PUSH32 0x11845C2100000000000000000000000000000000000000000000000000000000 DUP2 MSTORE PUSH1 0x4 ADD PUSH1 0x40 MLOAD DUP1 SWAP2 SUB SWAP1 REVERT JUMPDEST PUSH2 0x982 CALLER PUSH2 0x23BF JUMP JUMPDEST JUMP JUMPDEST PUSH1 0x1 ISZERO ISZERO PUSH1 0x3 PUSH1 0x0 CALLER PUSH20 0xFFFFFFFFFFFFFFFFFFFFFFFFFFFFFFFFFFFFFFFF AND PUSH20 0xFFFFFFFFFFFFFFFFFFFFFFFFFFFFFFFFFFFFFFFF AND DUP2 MSTORE PUSH1 0x20 ADD SWAP1 DUP2 MSTORE PUSH1 0x20 ADD PUSH1 0x0 KECCAK256 PUSH1 0x0 SWAP1 SLOAD SWAP1 PUSH2 0x100 EXP SWAP1 DIV PUSH1 0xFF AND ISZERO ISZERO EQ PUSH2 0xA0E JUMPI PUSH1 0x40 MLOAD PUSH32 0x11845C2100000000000000000000000000000000000000000000000000000000 DUP2 MSTORE PUSH1 0x4 ADD PUSH1 0x40 MLOAD DUP1 SWAP2 SUB SWAP1 REVERT JUMPDEST PUSH2 0xA18 DUP2 CALLER PUSH2 0x1C07 JUMP JUMPDEST POP JUMP JUMPDEST PUSH1 0x0 PUSH1 0x1 ISZERO ISZERO PUSH1 0x3 PUSH1 0x0 CALLER PUSH20 0xFFFFFFFFFFFFFFFFFFFFFFFFFFFFFFFFFFFFFFFF AND PUSH20 0xFFFFFFFFFFFFFFFFFFFFFFFFFFFFFFFFFFFFFFFF AND DUP2 MSTORE PUSH1 0x20 ADD SWAP1 DUP2 MSTORE PUSH1 0x20 ADD PUSH1 0x0 KECCAK256 PUSH1 0x0 SWAP1 SLOAD SWAP1 PUSH2 0x100 EXP SWAP1 DIV PUSH1 0xFF AND ISZERO ISZERO EQ PUSH2 0xAA7 JUMPI PUSH1 0x40 MLOAD PUSH32 0x11845C2100000000000000000000000000000000000000000000000000000000 DUP2 MSTORE PUSH1 0x4 ADD PUSH1 0x40 MLOAD DUP1 SWAP2 SUB SWAP1 REVERT JUMPDEST PUSH1 0xC PUSH1 0x0 CALLER PUSH20 0xFFFFFFFFFFFFFFFFFFFFFFFFFFFFFFFFFFFFFFFF AND PUSH20 0xFFFFFFFFFFFFFFFFFFFFFFFFFFFFFFFFFFFFFFFF AND DUP2 MSTORE PUSH1 0x20 ADD SWAP1 DUP2 MSTORE PUSH1 0x20 ADD PUSH1 0x0 KECCAK256 SLOAD SWAP1 POP SWAP1 JUMP JUMPDEST PUSH1 0x0 PUSH1 0x2 SWAP1 SLOAD SWAP1 PUSH2 0x100 EXP SWAP1 DIV PUSH20 0xFFFFFFFFFFFFFFFFFFFFFFFFFFFFFFFFFFFFFFFF AND PUSH20 0xFFFFFFFFFFFFFFFFFFFFFFFFFFFFFFFFFFFFFFFF AND CALLER PUSH20 0xFFFFFFFFFFFFFFFFFFFFFFFFFFFFFFFFFFFFFFFF AND EQ PUSH2 0xB73 JUMPI PUSH1 0x40 MLOAD PUSH32 0x11845C2100000000000000000000000000000000000000000000000000000000 DUP2 MSTORE PUSH1 0x4 ADD PUSH1 0x40 MLOAD DUP1 SWAP2 SUB SWAP1 REVERT JUMPDEST PUSH1 0x1 DUP1 DUP2 GT ISZERO PUSH2 0xB86 JUMPI PUSH2 0xB85 PUSH2 0x3408 JUMP JUMPDEST JUMPDEST PUSH1 0x0 DUP1 SLOAD SWAP1 PUSH2 0x100 EXP SWAP1 DIV PUSH1 0xFF AND PUSH1 0x1 DUP2 GT ISZERO PUSH2 0xBA6 JUMPI PUSH2 0xBA5 PUSH2 0x3408 JUMP JUMPDEST JUMPDEST EQ DUP1 ISZERO PUSH2 0xBCB JUMPI POP DUP1 DUP3 LT DUP1 ISZERO PUSH2 0xBCA JUMPI POP PUSH1 0x6 SLOAD DUP3 DUP3 PUSH2 0xBC7 SWAP2 SWAP1 PUSH2 0x3466 JUMP JUMPDEST LT ISZERO JUMPDEST JUMPDEST PUSH2 0xC01 JUMPI PUSH1 0x40 MLOAD PUSH32 0xA1056F7900000000000000000000000000000000000000000000000000000000 DUP2 MSTORE PUSH1 0x4 ADD PUSH1 0x40 MLOAD DUP1 SWAP2 SUB SWAP1 REVERT JUMPDEST DUP2 PUSH1 0x4 DUP2 SWAP1 SSTORE POP DUP1 PUSH1 0x5 DUP2 SWAP1 SSTORE POP POP POP JUMP JUMPDEST PUSH1 0xA PUSH1 0x20 MSTORE DUP2 PUSH1 0x0 MSTORE PUSH1 0x40 PUSH1 0x0 KECCAK256 PUSH1 0x20 MSTORE DUP1 PUSH1 0x0 MSTORE PUSH1 0x40 PUSH1 0x0 KECCAK256 PUSH1 0x0 SWAP2 POP SWAP2 POP POP DUP1 PUSH1 0x0 ADD PUSH1 0x0 SWAP1 SLOAD SWAP1 PUSH2 0x100 EXP SWAP1 DIV PUSH20 0xFFFFFFFFFFFFFFFFFFFFFFFFFFFFFFFFFFFFFFFF AND SWAP1 DUP1 PUSH1 0x1 ADD SLOAD SWAP1 DUP1 PUSH1 0x2 ADD SLOAD SWAP1 DUP1 PUSH1 0x3 ADD PUSH1 0x0 SWAP1 SLOAD SWAP1 PUSH2 0x100 EXP SWAP1 DIV PUSH1 0xFF AND SWAP1 POP DUP5 JUMP JUMPDEST PUSH1 0x0 PUSH1 0x2 SWAP1 SLOAD SWAP1 PUSH2 0x100 EXP SWAP1 DIV PUSH20 0xFFFFFFFFFFFFFFFFFFFFFFFFFFFFFFFFFFFFFFFF AND PUSH20 0xFFFFFFFFFFFFFFFFFFFFFFFFFFFFFFFFFFFFFFFF AND CALLER PUSH20 0xFFFFFFFFFFFFFFFFFFFFFFFFFFFFFFFFFFFFFFFF AND EQ PUSH2 0xD04 JUMPI PUSH1 0x40 MLOAD PUSH32 0x11845C2100000000000000000000000000000000000000000000000000000000 DUP2 MSTORE PUSH1 0x4 ADD PUSH1 0x40 MLOAD DUP1 SWAP2 SUB SWAP1 REVERT JUMPDEST PUSH1 0x0 PUSH1 0x1 DUP2 GT ISZERO PUSH2 0xD18 JUMPI PUSH2 0xD17 PUSH2 0x3408 JUMP JUMPDEST JUMPDEST PUSH1 0x0 DUP1 SLOAD SWAP1 PUSH2 0x100 EXP SWAP1 DIV PUSH1 0xFF AND PUSH1 0x1 DUP2 GT ISZERO PUSH2 0xD38 JUMPI PUSH2 0xD37 PUSH2 0x3408 JUMP JUMPDEST JUMPDEST EQ PUSH2 0xD6F JUMPI PUSH1 0x40 MLOAD PUSH32 0xCE0E4C9500000000000000000000000000000000000000000000000000000000 DUP2 MSTORE PUSH1 0x4 ADD PUSH1 0x40 MLOAD DUP1 SWAP2 SUB SWAP1 REVERT JUMPDEST PUSH1 0x0 PUSH1 0x2 DUP2 GT ISZERO PUSH2 0xD83 JUMPI PUSH2 0xD82 PUSH2 0x3408 JUMP JUMPDEST JUMPDEST PUSH1 0x0 PUSH1 0x1 SWAP1 SLOAD SWAP1 PUSH2 0x100 EXP SWAP1 DIV PUSH1 0xFF AND PUSH1 0x2 DUP2 GT ISZERO PUSH2 0xDA5 JUMPI PUSH2 0xDA4 PUSH2 0x3408 JUMP JUMPDEST JUMPDEST EQ PUSH2 0xDDC JUMPI PUSH1 0x40 MLOAD PUSH32 0xCD7AAE3200000000000000000000000000000000000000000000000000000000 DUP2 MSTORE PUSH1 0x4 ADD PUSH1 0x40 MLOAD DUP1 SWAP2 SUB SWAP1 REVERT JUMPDEST PUSH1 0x1 PUSH1 0x0 PUSH1 0x1 PUSH2 0x100 EXP DUP2 SLOAD DUP2 PUSH1 0xFF MUL NOT AND SWAP1 DUP4 PUSH1 0x2 DUP2 GT ISZERO PUSH2 0xE02 JUMPI PUSH2 0xE01 PUSH2 0x3408 JUMP JUMPDEST JUMPDEST MUL OR SWAP1 SSTORE POP JUMP JUMPDEST PUSH1 0x7 PUSH1 0x20 MSTORE DUP1 PUSH1 0x0 MSTORE PUSH1 0x40 PUSH1 0x0 KECCAK256 PUSH1 0x0 SWAP2 POP SWAP1 POP DUP1 PUSH1 0x0 ADD SLOAD SWAP1 DUP1 PUSH1 0x1 ADD SLOAD SWAP1 DUP1 PUSH1 0x2 ADD PUSH1 0x0 SWAP1 SLOAD SWAP1 PUSH2 0x100 EXP SWAP1 DIV PUSH1 0xFF AND SWAP1 POP DUP4 JUMP JUMPDEST PUSH1 0x8 SLOAD DUP2 JUMP JUMPDEST PUSH1 0x9 DUP2 DUP2 SLOAD DUP2 LT PUSH2 0xE56 JUMPI PUSH1 0x0 DUP1 REVERT JUMPDEST SWAP1 PUSH1 0x0 MSTORE PUSH1 0x20 PUSH1 0x0 KECCAK256 ADD PUSH1 0x0 SWAP2 POP SWAP1 POP SLOAD DUP2 JUMP JUMPDEST PUSH1 0x0 PUSH1 0x2 SWAP1 SLOAD SWAP1 PUSH2 0x100 EXP SWAP1 DIV PUSH20 0xFFFFFFFFFFFFFFFFFFFFFFFFFFFFFFFFFFFFFFFF AND DUP2 JUMP JUMPDEST PUSH1 0x0 DUP1 PUSH1 0x2 SWAP1 SLOAD SWAP1 PUSH2 0x100 EXP SWAP1 DIV PUSH20 0xFFFFFFFFFFFFFFFFFFFFFFFFFFFFFFFFFFFFFFFF AND PUSH20 0xFFFFFFFFFFFFFFFFFFFFFFFFFFFFFFFFFFFFFFFF AND CALLER PUSH20 0xFFFFFFFFFFFFFFFFFFFFFFFFFFFFFFFFFFFFFFFF AND EQ PUSH2 0xF18 JUMPI PUSH1 0x40 MLOAD PUSH32 0x11845C2100000000000000000000000000000000000000000000000000000000 DUP2 MSTORE PUSH1 0x4 ADD PUSH1 0x40 MLOAD DUP1 SWAP2 SUB SWAP1 REVERT JUMPDEST PUSH1 0x1 ISZERO ISZERO PUSH1 0xB PUSH1 0x0 DUP5 DUP2 MSTORE PUSH1 0x20 ADD SWAP1 DUP2 MSTORE PUSH1 0x20 ADD PUSH1 0x0 KECCAK256 PUSH1 0x3 ADD PUSH1 0x0 SWAP1 SLOAD SWAP1 PUSH2 0x100 EXP SWAP1 DIV PUSH1 0xFF AND ISZERO ISZERO EQ PUSH2 0xF79 JUMPI PUSH1 0x40 MLOAD PUSH32 0x299FB3C400000000000000000000000000000000000000000000000000000000 DUP2 MSTORE PUSH1 0x4 ADD PUSH1 0x40 MLOAD DUP1 SWAP2 SUB SWAP1 REVERT JUMPDEST PUSH1 0xB PUSH1 0x0 DUP4 DUP2 MSTORE PUSH1 0x20 ADD SWAP1 DUP2 MSTORE PUSH1 0x20 ADD PUSH1 0x0 KECCAK256 PUSH1 0x2 ADD SLOAD SWAP1 POP SWAP2 SWAP1 POP JUMP JUMPDEST PUSH1 0x0 PUSH1 0x2 SWAP1 SLOAD SWAP1 PUSH2 0x100 EXP SWAP1 DIV PUSH20 0xFFFFFFFFFFFFFFFFFFFFFFFFFFFFFFFFFFFFFFFF AND PUSH20 0xFFFFFFFFFFFFFFFFFFFFFFFFFFFFFFFFFFFFFFFF AND CALLER PUSH20 0xFFFFFFFFFFFFFFFFFFFFFFFFFFFFFFFFFFFFFFFF AND EQ PUSH2 0x101E JUMPI PUSH1 0x40 MLOAD PUSH32 0x11845C2100000000000000000000000000000000000000000000000000000000 DUP2 MSTORE PUSH1 0x4 ADD PUSH1 0x40 MLOAD DUP1 SWAP2 SUB SWAP1 REVERT JUMPDEST PUSH2 0x1027 DUP2 PUSH2 0x23BF JUMP JUMPDEST POP JUMP JUMPDEST PUSH1 0x0 PUSH1 0x2 SWAP1 SLOAD SWAP1 PUSH2 0x100 EXP SWAP1 DIV PUSH20 0xFFFFFFFFFFFFFFFFFFFFFFFFFFFFFFFFFFFFFFFF AND PUSH20 0xFFFFFFFFFFFFFFFFFFFFFFFFFFFFFFFFFFFFFFFF AND CALLER PUSH20 0xFFFFFFFFFFFFFFFFFFFFFFFFFFFFFFFFFFFFFFFF AND EQ PUSH2 0x10B1 JUMPI PUSH1 0x40 MLOAD PUSH32 0x11845C2100000000000000000000000000000000000000000000000000000000 DUP2 MSTORE PUSH1 0x4 ADD PUSH1 0x40 MLOAD DUP1 SWAP2 SUB SWAP1 REVERT JUMPDEST PUSH1 0x0 ISZERO ISZERO PUSH1 0x3 PUSH1 0x0 DUP4 PUSH20 0xFFFFFFFFFFFFFFFFFFFFFFFFFFFFFFFFFFFFFFFF AND PUSH20 0xFFFFFFFFFFFFFFFFFFFFFFFFFFFFFFFFFFFFFFFF AND DUP2 MSTORE PUSH1 0x20 ADD SWAP1 DUP2 MSTORE PUSH1 0x20 ADD PUSH1 0x0 KECCAK256 PUSH1 0x0 SWAP1 SLOAD SWAP1 PUSH2 0x100 EXP SWAP1 DIV PUSH1 0xFF AND ISZERO ISZERO EQ PUSH2 0x113B JUMPI PUSH1 0x40 MLOAD PUSH32 0xD61D68CC00000000000000000000000000000000000000000000000000000000 DUP2 MSTORE PUSH1 0x4 ADD PUSH1 0x40 MLOAD DUP1 SWAP2 SUB SWAP1 REVERT JUMPDEST PUSH1 0x1 PUSH1 0x3 PUSH1 0x0 DUP4 PUSH20 0xFFFFFFFFFFFFFFFFFFFFFFFFFFFFFFFFFFFFFFFF AND PUSH20 0xFFFFFFFFFFFFFFFFFFFFFFFFFFFFFFFFFFFFFFFF AND DUP2 MSTORE PUSH1 0x20 ADD SWAP1 DUP2 MSTORE PUSH1 0x20 ADD PUSH1 0x0 KECCAK256 PUSH1 0x0 PUSH2 0x100 EXP DUP2 SLOAD DUP2 PUSH1 0xFF MUL NOT AND SWAP1 DUP4 ISZERO ISZERO MUL OR SWAP1 SSTORE POP POP JUMP JUMPDEST PUSH1 0x3 PUSH1 0x20 MSTORE DUP1 PUSH1 0x0 MSTORE PUSH1 0x40 PUSH1 0x0 KECCAK256 PUSH1 0x0 SWAP2 POP SLOAD SWAP1 PUSH2 0x100 EXP SWAP1 DIV PUSH1 0xFF AND DUP2 JUMP JUMPDEST PUSH1 0x60 PUSH1 0x1 ISZERO ISZERO PUSH1 0x3 PUSH1 0x0 CALLER PUSH20 0xFFFFFFFFFFFFFFFFFFFFFFFFFFFFFFFFFFFFFFFF AND PUSH20 0xFFFFFFFFFFFFFFFFFFFFFFFFFFFFFFFFFFFFFFFF AND DUP2 MSTORE PUSH1 0x20 ADD SWAP1 DUP2 MSTORE PUSH1 0x20 ADD PUSH1 0x0 KECCAK256 PUSH1 0x0 SWAP1 SLOAD SWAP1 PUSH2 0x100 EXP SWAP1 DIV PUSH1 0xFF AND ISZERO ISZERO EQ PUSH2 0x1242 JUMPI PUSH1 0x40 MLOAD PUSH32 0x11845C2100000000000000000000000000000000000000000000000000000000 DUP2 MSTORE PUSH1 0x4 ADD PUSH1 0x40 MLOAD DUP1 SWAP2 SUB SWAP1 REVERT JUMPDEST PUSH1 0x5 SLOAD TIMESTAMP GT PUSH2 0x127D JUMPI PUSH1 0x40 MLOAD PUSH32 0x2875C00600000000000000000000000000000000000000000000000000000000 DUP2 MSTORE PUSH1 0x4 ADD PUSH1 0x40 MLOAD DUP1 SWAP2 SUB SWAP1 REVERT JUMPDEST PUSH2 0x1285 PUSH2 0x3044 JUMP JUMPDEST PUSH2 0x128E DUP2 PUSH2 0x265C JUMP JUMPDEST SWAP1 POP PUSH1 0x0 JUMPDEST PUSH1 0x9 DUP1 SLOAD SWAP1 POP DUP2 LT ISZERO PUSH2 0x14B1 JUMPI PUSH1 0x1 ISZERO ISZERO PUSH1 0xB PUSH1 0x0 PUSH1 0x9 DUP5 DUP2 SLOAD DUP2 LT PUSH2 0x12BC JUMPI PUSH2 0x12BB PUSH2 0x349A JUMP JUMPDEST JUMPDEST SWAP1 PUSH1 0x0 MSTORE PUSH1 0x20 PUSH1 0x0 KECCAK256 ADD SLOAD DUP2 MSTORE PUSH1 0x20 ADD SWAP1 DUP2 MSTORE PUSH1 0x20 ADD PUSH1 0x0 KECCAK256 PUSH1 0x3 ADD PUSH1 0x0 SWAP1 SLOAD SWAP1 PUSH2 0x100 EXP SWAP1 DIV PUSH1 0xFF AND ISZERO ISZERO SUB PUSH2 0x14A4 JUMPI PUSH2 0x12F6 DUP3 PUSH2 0x2695 JUMP JUMPDEST SWAP2 POP PUSH2 0x1376 PUSH1 0x40 MLOAD DUP1 PUSH1 0x40 ADD PUSH1 0x40 MSTORE DUP1 PUSH1 0xB DUP2 MSTORE PUSH1 0x20 ADD PUSH32 0x70726F64756374436F6465000000000000000000000000000000000000000000 DUP2 MSTORE POP PUSH1 0xB PUSH1 0x0 PUSH1 0x9 DUP6 DUP2 SLOAD DUP2 LT PUSH2 0x1349 JUMPI PUSH2 0x1348 PUSH2 0x349A JUMP JUMPDEST JUMPDEST SWAP1 PUSH1 0x0 MSTORE PUSH1 0x20 PUSH1 0x0 KECCAK256 ADD SLOAD DUP2 MSTORE PUSH1 0x20 ADD SWAP1 DUP2 MSTORE PUSH1 0x20 ADD PUSH1 0x0 KECCAK256 PUSH1 0x1 ADD SLOAD DUP5 PUSH2 0x26CE SWAP1 SWAP3 SWAP2 SWAP1 PUSH4 0xFFFFFFFF AND JUMP JUMPDEST SWAP2 POP PUSH2 0x13F6 PUSH1 0x40 MLOAD DUP1 PUSH1 0x40 ADD PUSH1 0x40 MSTORE DUP1 PUSH1 0x6 DUP2 MSTORE PUSH1 0x20 ADD PUSH32 0x616D6F756E740000000000000000000000000000000000000000000000000000 DUP2 MSTORE POP PUSH1 0xB PUSH1 0x0 PUSH1 0x9 DUP6 DUP2 SLOAD DUP2 LT PUSH2 0x13C9 JUMPI PUSH2 0x13C8 PUSH2 0x349A JUMP JUMPDEST JUMPDEST SWAP1 PUSH1 0x0 MSTORE PUSH1 0x20 PUSH1 0x0 KECCAK256 ADD SLOAD DUP2 MSTORE PUSH1 0x20 ADD SWAP1 DUP2 MSTORE PUSH1 0x20 ADD PUSH1 0x0 KECCAK256 PUSH1 0x2 ADD SLOAD DUP5 PUSH2 0x26CE SWAP1 SWAP3 SWAP2 SWAP1 PUSH4 0xFFFFFFFF AND JUMP JUMPDEST SWAP2 POP PUSH2 0x1496 PUSH1 0x40 MLOAD DUP1 PUSH1 0x40 ADD PUSH1 0x40 MSTORE DUP1 PUSH1 0x6 DUP2 MSTORE PUSH1 0x20 ADD PUSH32 0x77696E6E65720000000000000000000000000000000000000000000000000000 DUP2 MSTORE POP PUSH1 0xB PUSH1 0x0 PUSH1 0x9 DUP6 DUP2 SLOAD DUP2 LT PUSH2 0x1449 JUMPI PUSH2 0x1448 PUSH2 0x349A JUMP JUMPDEST JUMPDEST SWAP1 PUSH1 0x0 MSTORE PUSH1 0x20 PUSH1 0x0 KECCAK256 ADD SLOAD DUP2 MSTORE PUSH1 0x20 ADD SWAP1 DUP2 MSTORE PUSH1 0x20 ADD PUSH1 0x0 KECCAK256 PUSH1 0x0 ADD PUSH1 0x0 SWAP1 SLOAD SWAP1 PUSH2 0x100 EXP SWAP1 DIV PUSH20 0xFFFFFFFFFFFFFFFFFFFFFFFFFFFFFFFFFFFFFFFF AND DUP5 PUSH2 0x2797 SWAP1 SWAP3 SWAP2 SWAP1 PUSH4 0xFFFFFFFF AND JUMP JUMPDEST SWAP2 POP PUSH2 0x14A1 DUP3 PUSH2 0x2860 JUMP JUMPDEST SWAP2 POP JUMPDEST DUP1 DUP1 PUSH1 0x1 ADD SWAP2 POP POP PUSH2 0x1293 JUMP JUMPDEST POP PUSH2 0x14BB DUP2 PUSH2 0x2899 JUMP JUMPDEST SWAP1 POP DUP1 PUSH1 0x20 ADD MLOAD SWAP2 POP POP SWAP1 JUMP JUMPDEST PUSH1 0x0 PUSH1 0x2 SWAP1 SLOAD SWAP1 PUSH2 0x100 EXP SWAP1 DIV PUSH20 0xFFFFFFFFFFFFFFFFFFFFFFFFFFFFFFFFFFFFFFFF AND PUSH20 0xFFFFFFFFFFFFFFFFFFFFFFFFFFFFFFFFFFFFFFFF AND CALLER PUSH20 0xFFFFFFFFFFFFFFFFFFFFFFFFFFFFFFFFFFFFFFFF AND EQ PUSH2 0x154F JUMPI PUSH1 0x40 MLOAD PUSH32 0x11845C2100000000000000000000000000000000000000000000000000000000 DUP2 MSTORE PUSH1 0x4 ADD PUSH1 0x40 MLOAD DUP1 SWAP2 SUB SWAP1 REVERT JUMPDEST PUSH1 0x1 ISZERO ISZERO PUSH1 0x3 PUSH1 0x0 DUP4 PUSH20 0xFFFFFFFFFFFFFFFFFFFFFFFFFFFFFFFFFFFFFFFF AND PUSH20 0xFFFFFFFFFFFFFFFFFFFFFFFFFFFFFFFFFFFFFFFF AND DUP2 MSTORE PUSH1 0x20 ADD SWAP1 DUP2 MSTORE PUSH1 0x20 ADD PUSH1 0x0 KECCAK256 PUSH1 0x0 SWAP1 SLOAD SWAP1 PUSH2 0x100 EXP SWAP1 DIV PUSH1 0xFF AND ISZERO ISZERO EQ PUSH2 0x15D9 JUMPI PUSH1 0x40 MLOAD PUSH32 0xC82DDE3500000000000000000000000000000000000000000000000000000000 DUP2 MSTORE PUSH1 0x4 ADD PUSH1 0x40 MLOAD DUP1 SWAP2 SUB SWAP1 REVERT JUMPDEST PUSH1 0x3 PUSH1 0x0 DUP3 PUSH20 0xFFFFFFFFFFFFFFFFFFFFFFFFFFFFFFFFFFFFFFFF AND PUSH20 0xFFFFFFFFFFFFFFFFFFFFFFFFFFFFFFFFFFFFFFFF AND DUP2 MSTORE PUSH1 0x20 ADD SWAP1 DUP2 MSTORE PUSH1 0x20 ADD PUSH1 0x0 KECCAK256 PUSH1 0x0 PUSH2 0x100 EXP DUP2 SLOAD SWAP1 PUSH1 0xFF MUL NOT AND SWAP1 SSTORE POP JUMP JUMPDEST PUSH1 0x1 DUP1 DUP2 GT ISZERO PUSH2 0x163E JUMPI PUSH2 0x163D PUSH2 0x3408 JUMP JUMPDEST JUMPDEST PUSH1 0x0 DUP1 SLOAD SWAP1 PUSH2 0x100 EXP SWAP1 DIV PUSH1 0xFF AND PUSH1 0x1 DUP2 GT ISZERO PUSH2 0x165E JUMPI PUSH2 0x165D PUSH2 0x3408 JUMP JUMPDEST JUMPDEST SUB PUSH2 0x16A3 JUMPI PUSH1 0x4 SLOAD TIMESTAMP LT PUSH2 0x169E JUMPI PUSH1 0x40 MLOAD PUSH32 0xBEBC7BDD00000000000000000000000000000000000000000000000000000000 DUP2 MSTORE PUSH1 0x4 ADD PUSH1 0x40 MLOAD DUP1 SWAP2 SUB SWAP1 REVERT JUMPDEST PUSH2 0x174B JUMP JUMPDEST PUSH1 0x0 PUSH1 0x1 DUP2 GT ISZERO PUSH2 0x16B7 JUMPI PUSH2 0x16B6 PUSH2 0x3408 JUMP JUMPDEST JUMPDEST PUSH1 0x0 DUP1 SLOAD SWAP1 PUSH2 0x100 EXP SWAP1 DIV PUSH1 0xFF AND PUSH1 0x1 DUP2 GT ISZERO PUSH2 0x16D7 JUMPI PUSH2 0x16D6 PUSH2 0x3408 JUMP JUMPDEST JUMPDEST SUB PUSH2 0x174A JUMPI PUSH1 0x0 PUSH1 0x2 DUP2 GT ISZERO PUSH2 0x16F0 JUMPI PUSH2 0x16EF PUSH2 0x3408 JUMP JUMPDEST JUMPDEST PUSH1 0x0 PUSH1 0x1 SWAP1 SLOAD SWAP1 PUSH2 0x100 EXP SWAP1 DIV PUSH1 0xFF AND PUSH1 0x2 DUP2 GT ISZERO PUSH2 0x1712 JUMPI PUSH2 0x1711 PUSH2 0x3408 JUMP JUMPDEST JUMPDEST EQ PUSH2 0x1749 JUMPI PUSH1 0x40 MLOAD PUSH32 0xE92065300000000000000000000000000000000000000000000000000000000 DUP2 MSTORE PUSH1 0x4 ADD PUSH1 0x40 MLOAD DUP1 SWAP2 SUB SWAP1 REVERT JUMPDEST JUMPDEST JUMPDEST PUSH1 0x1 SLOAD PUSH1 0x9 DUP1 SLOAD SWAP1 POP LT PUSH2 0x178B JUMPI PUSH1 0x40 MLOAD PUSH32 0x3153FE7000000000000000000000000000000000000000000000000000000000 DUP2 MSTORE PUSH1 0x4 ADD PUSH1 0x40 MLOAD DUP1 SWAP2 SUB SWAP1 REVERT JUMPDEST PUSH1 0x0 DUP3 GT PUSH2 0x17C5 JUMPI PUSH1 0x40 MLOAD PUSH32 0x8463852800000000000000000000000000000000000000000000000000000000 DUP2 MSTORE PUSH1 0x4 ADD PUSH1 0x40 MLOAD DUP1 SWAP2 SUB SWAP1 REVERT JUMPDEST PUSH1 0x1 ISZERO ISZERO PUSH1 0x7 PUSH1 0x0 DUP5 DUP2 MSTORE PUSH1 0x20 ADD SWAP1 DUP2 MSTORE PUSH1 0x20 ADD PUSH1 0x0 KECCAK256 PUSH1 0x2 ADD PUSH1 0x0 SWAP1 SLOAD SWAP1 PUSH2 0x100 EXP SWAP1 DIV PUSH1 0xFF AND ISZERO ISZERO SUB PUSH2 0x1814 JUMPI DUP1 PUSH1 0x7 PUSH1 0x0 DUP5 DUP2 MSTORE PUSH1 0x20 ADD SWAP1 DUP2 MSTORE PUSH1 0x20 ADD PUSH1 0x0 KECCAK256 PUSH1 0x1 ADD DUP2 SWAP1 SSTORE POP PUSH2 0x18BE JUMP JUMPDEST PUSH1 0x40 MLOAD DUP1 PUSH1 0x60 ADD PUSH1 0x40 MSTORE DUP1 DUP4 DUP2 MSTORE PUSH1 0x20 ADD DUP3 DUP2 MSTORE PUSH1 0x20 ADD PUSH1 0x1 ISZERO ISZERO DUP2 MSTORE POP PUSH1 0x7 PUSH1 0x0 DUP5 DUP2 MSTORE PUSH1 0x20 ADD SWAP1 DUP2 MSTORE PUSH1 0x20 ADD PUSH1 0x0 KECCAK256 PUSH1 0x0 DUP3 ADD MLOAD DUP2 PUSH1 0x0 ADD SSTORE PUSH1 0x20 DUP3 ADD MLOAD DUP2 PUSH1 0x1 ADD SSTORE PUSH1 0x40 DUP3 ADD MLOAD DUP2 PUSH1 0x2 ADD PUSH1 0x0 PUSH2 0x100 EXP DUP2 SLOAD DUP2 PUSH1 0xFF MUL NOT AND SWAP1 DUP4 ISZERO ISZERO MUL OR SWAP1 SSTORE POP SWAP1 POP POP PUSH1 0x9 DUP3 SWAP1 DUP1 PUSH1 0x1 DUP2 SLOAD ADD DUP1 DUP3 SSTORE DUP1 SWAP2 POP POP PUSH1 0x1 SWAP1 SUB SWAP1 PUSH1 0x0 MSTORE PUSH1 0x20 PUSH1 0x0 KECCAK256 ADD PUSH1 0x0 SWAP1 SWAP2 SWAP1 SWAP2 SWAP1 SWAP2 POP SSTORE PUSH1 0x8 PUSH1 0x0 DUP2 SLOAD DUP1 SWAP3 SWAP2 SWAP1 PUSH2 0x18B8 SWAP1 PUSH2 0x34C9 JUMP JUMPDEST SWAP2 SWAP1 POP SSTORE POP JUMPDEST POP POP JUMP JUMPDEST PUSH1 0x1 DUP1 DUP2 GT ISZERO PUSH2 0x18D5 JUMPI PUSH2 0x18D4 PUSH2 0x3408 JUMP JUMPDEST JUMPDEST PUSH1 0x0 DUP1 SLOAD SWAP1 PUSH2 0x100 EXP SWAP1 DIV PUSH1 0xFF AND PUSH1 0x1 DUP2 GT ISZERO PUSH2 0x18F5 JUMPI PUSH2 0x18F4 PUSH2 0x3408 JUMP JUMPDEST JUMPDEST SUB PUSH2 0x193A JUMPI PUSH1 0x4 SLOAD TIMESTAMP LT PUSH2 0x1935 JUMPI PUSH1 0x40 MLOAD PUSH32 0xBEBC7BDD00000000000000000000000000000000000000000000000000000000 DUP2 MSTORE PUSH1 0x4 ADD PUSH1 0x40 MLOAD DUP1 SWAP2 SUB SWAP1 REVERT JUMPDEST PUSH2 0x19E2 JUMP JUMPDEST PUSH1 0x0 PUSH1 0x1 DUP2 GT ISZERO PUSH2 0x194E JUMPI PUSH2 0x194D PUSH2 0x3408 JUMP JUMPDEST JUMPDEST PUSH1 0x0 DUP1 SLOAD SWAP1 PUSH2 0x100 EXP SWAP1 DIV PUSH1 0xFF AND PUSH1 0x1 DUP2 GT ISZERO PUSH2 0x196E JUMPI PUSH2 0x196D PUSH2 0x3408 JUMP JUMPDEST JUMPDEST SUB PUSH2 0x19E1 JUMPI PUSH1 0x0 PUSH1 0x2 DUP2 GT ISZERO PUSH2 0x1987 JUMPI PUSH2 0x1986 PUSH2 0x3408 JUMP JUMPDEST JUMPDEST PUSH1 0x0 PUSH1 0x1 SWAP1 SLOAD SWAP1 PUSH2 0x100 EXP SWAP1 DIV PUSH1 0xFF AND PUSH1 0x2 DUP2 GT ISZERO PUSH2 0x19A9 JUMPI PUSH2 0x19A8 PUSH2 0x3408 JUMP JUMPDEST JUMPDEST EQ PUSH2 0x19E0 JUMPI PUSH1 0x40 MLOAD PUSH32 0xE92065300000000000000000000000000000000000000000000000000000000 DUP2 MSTORE PUSH1 0x4 ADD PUSH1 0x40 MLOAD DUP1 SWAP2 SUB SWAP1 REVERT JUMPDEST JUMPDEST JUMPDEST PUSH1 0x1 ISZERO ISZERO PUSH1 0x7 PUSH1 0x0 DUP4 DUP2 MSTORE PUSH1 0x20 ADD SWAP1 DUP2 MSTORE PUSH1 0x20 ADD PUSH1 0x0 KECCAK256 PUSH1 0x2 ADD PUSH1 0x0 SWAP1 SLOAD SWAP1 PUSH2 0x100 EXP SWAP1 DIV PUSH1 0xFF AND ISZERO ISZERO EQ PUSH2 0x1A43 JUMPI PUSH1 0x40 MLOAD PUSH32 0x299FB3C400000000000000000000000000000000000000000000000000000000 DUP2 MSTORE PUSH1 0x4 ADD PUSH1 0x40 MLOAD DUP1 SWAP2 SUB SWAP1 REVERT JUMPDEST PUSH1 0x0 DUP2 GT PUSH2 0x1A7D JUMPI PUSH1 0x40 MLOAD PUSH32 0x8463852800000000000000000000000000000000000000000000000000000000 DUP2 MSTORE PUSH1 0x4 ADD PUSH1 0x40 MLOAD DUP1 SWAP2 SUB SWAP1 REVERT JUMPDEST PUSH1 0x1 PUSH1 0x9 DUP1 SLOAD SWAP1 POP SUB PUSH2 0x1AB4 JUMPI PUSH1 0x0 PUSH1 0x9 PUSH1 0x0 DUP2 SLOAD DUP2 LT PUSH2 0x1AA1 JUMPI PUSH2 0x1AA0 PUSH2 0x349A JUMP JUMPDEST JUMPDEST SWAP1 PUSH1 0x0 MSTORE PUSH1 0x20 PUSH1 0x0 KECCAK256 ADD DUP2 SWAP1 SSTORE POP PUSH2 0x1BB2 JUMP JUMPDEST PUSH1 0x0 JUMPDEST PUSH1 0x9 DUP1 SLOAD SWAP1 POP DUP2 LT ISZERO PUSH2 0x1BB0 JUMPI DUP2 PUSH1 0x9 DUP3 DUP2 SLOAD DUP2 LT PUSH2 0x1AD9 JUMPI PUSH2 0x1AD8 PUSH2 0x349A JUMP JUMPDEST JUMPDEST SWAP1 PUSH1 0x0 MSTORE PUSH1 0x20 PUSH1 0x0 KECCAK256 ADD SLOAD EQ PUSH2 0x1BA3 JUMPI PUSH1 0x0 PUSH1 0x9 PUSH1 0x1 PUSH1 0x9 DUP1 SLOAD SWAP1 POP PUSH2 0x1AFF SWAP2 SWAP1 PUSH2 0x3466 JUMP JUMPDEST DUP2 SLOAD DUP2 LT PUSH2 0x1B10 JUMPI PUSH2 0x1B0F PUSH2 0x349A JUMP JUMPDEST JUMPDEST SWAP1 PUSH1 0x0 MSTORE PUSH1 0x20 PUSH1 0x0 KECCAK256 ADD SLOAD SWAP1 POP PUSH1 0x0 PUSH1 0x9 PUSH1 0x1 PUSH1 0x9 DUP1 SLOAD SWAP1 POP PUSH2 0x1B33 SWAP2 SWAP1 PUSH2 0x3466 JUMP JUMPDEST DUP2 SLOAD DUP2 LT PUSH2 0x1B44 JUMPI PUSH2 0x1B43 PUSH2 0x349A JUMP JUMPDEST JUMPDEST SWAP1 PUSH1 0x0 MSTORE PUSH1 0x20 PUSH1 0x0 KECCAK256 ADD DUP2 SWAP1 SSTORE POP DUP1 PUSH1 0x9 DUP4 DUP2 SLOAD DUP2 LT PUSH2 0x1B67 JUMPI PUSH2 0x1B66 PUSH2 0x349A JUMP JUMPDEST JUMPDEST SWAP1 PUSH1 0x0 MSTORE PUSH1 0x20 PUSH1 0x0 KECCAK256 ADD DUP2 SWAP1 SSTORE POP PUSH1 0x9 DUP1 SLOAD DUP1 PUSH2 0x1B87 JUMPI PUSH2 0x1B86 PUSH2 0x3511 JUMP JUMPDEST JUMPDEST PUSH1 0x1 SWAP1 SUB DUP2 DUP2 SWAP1 PUSH1 0x0 MSTORE PUSH1 0x20 PUSH1 0x0 KECCAK256 ADD PUSH1 0x0 SWAP1 SSTORE SWAP1 SSTORE POP PUSH2 0x1BB0 JUMP JUMPDEST DUP1 DUP1 PUSH1 0x1 ADD SWAP2 POP POP PUSH2 0x1AB7 JUMP JUMPDEST POP JUMPDEST PUSH1 0x7 PUSH1 0x0 DUP3 DUP2 MSTORE PUSH1 0x20 ADD SWAP1 DUP2 MSTORE PUSH1 0x20 ADD PUSH1 0x0 KECCAK256 PUSH1 0x0 DUP1 DUP3 ADD PUSH1 0x0 SWAP1 SSTORE PUSH1 0x1 DUP3 ADD PUSH1 0x0 SWAP1 SSTORE PUSH1 0x2 DUP3 ADD PUSH1 0x0 PUSH2 0x100 EXP DUP2 SLOAD SWAP1 PUSH1 0xFF MUL NOT AND SWAP1 SSTORE POP POP PUSH1 0x8 PUSH1 0x0 DUP2 SLOAD DUP1 SWAP3 SWAP2 SWAP1 PUSH2 0x1BFF SWAP1 PUSH2 0x3540 JUMP JUMPDEST SWAP2 SWAP1 POP SSTORE POP POP JUMP JUMPDEST PUSH1 0x1 ISZERO ISZERO PUSH1 0x3 PUSH1 0x0 DUP4 PUSH20 0xFFFFFFFFFFFFFFFFFFFFFFFFFFFFFFFFFFFFFFFF AND PUSH20 0xFFFFFFFFFFFFFFFFFFFFFFFFFFFFFFFFFFFFFFFF AND DUP2 MSTORE PUSH1 0x20 ADD SWAP1 DUP2 MSTORE PUSH1 0x20 ADD PUSH1 0x0 KECCAK256 PUSH1 0x0 SWAP1 SLOAD SWAP1 PUSH2 0x100 EXP SWAP1 DIV PUSH1 0xFF AND ISZERO ISZERO EQ PUSH2 0x1C91 JUMPI PUSH1 0x40 MLOAD PUSH32 0x11845C2100000000000000000000000000000000000000000000000000000000 DUP2 MSTORE PUSH1 0x4 ADD PUSH1 0x40 MLOAD DUP1 SWAP2 SUB SWAP1 REVERT JUMPDEST PUSH1 0x1 DUP1 DUP2 GT ISZERO PUSH2 0x1CA4 JUMPI PUSH2 0x1CA3 PUSH2 0x3408 JUMP JUMPDEST JUMPDEST PUSH1 0x0 DUP1 SLOAD SWAP1 PUSH2 0x100 EXP SWAP1 DIV PUSH1 0xFF AND PUSH1 0x1 DUP2 GT ISZERO PUSH2 0x1CC4 JUMPI PUSH2 0x1CC3 PUSH2 0x3408 JUMP JUMPDEST JUMPDEST SUB PUSH2 0x1D44 JUMPI PUSH1 0x4 SLOAD TIMESTAMP GT PUSH2 0x1D04 JUMPI PUSH1 0x40 MLOAD PUSH32 0xBEBC7BDD00000000000000000000000000000000000000000000000000000000 DUP2 MSTORE PUSH1 0x4 ADD PUSH1 0x40 MLOAD DUP1 SWAP2 SUB SWAP1 REVERT JUMPDEST PUSH1 0x5 SLOAD TIMESTAMP LT PUSH2 0x1D3F JUMPI PUSH1 0x40 MLOAD PUSH32 0x3E6F774700000000000000000000000000000000000000000000000000000000 DUP2 MSTORE PUSH1 0x4 ADD PUSH1 0x40 MLOAD DUP1 SWAP2 SUB SWAP1 REVERT JUMPDEST PUSH2 0x1DEC JUMP JUMPDEST PUSH1 0x0 PUSH1 0x1 DUP2 GT ISZERO PUSH2 0x1D58 JUMPI PUSH2 0x1D57 PUSH2 0x3408 JUMP JUMPDEST JUMPDEST PUSH1 0x0 DUP1 SLOAD SWAP1 PUSH2 0x100 EXP SWAP1 DIV PUSH1 0xFF AND PUSH1 0x1 DUP2 GT ISZERO PUSH2 0x1D78 JUMPI PUSH2 0x1D77 PUSH2 0x3408 JUMP JUMPDEST JUMPDEST SUB PUSH2 0x1DEB JUMPI PUSH1 0x1 PUSH1 0x2 DUP2 GT ISZERO PUSH2 0x1D91 JUMPI PUSH2 0x1D90 PUSH2 0x3408 JUMP JUMPDEST JUMPDEST PUSH1 0x0 PUSH1 0x1 SWAP1 SLOAD SWAP1 PUSH2 0x100 EXP SWAP1 DIV PUSH1 0xFF AND PUSH1 0x2 DUP2 GT ISZERO PUSH2 0x1DB3 JUMPI PUSH2 0x1DB2 PUSH2 0x3408 JUMP JUMPDEST JUMPDEST EQ PUSH2 0x1DEA JUMPI PUSH1 0x40 MLOAD PUSH32 0x85C70DAC00000000000000000000000000000000000000000000000000000000 DUP2 MSTORE PUSH1 0x4 ADD PUSH1 0x40 MLOAD DUP1 SWAP2 SUB SWAP1 REVERT JUMPDEST JUMPDEST JUMPDEST PUSH1 0x1 ISZERO ISZERO PUSH1 0x7 PUSH1 0x0 DUP5 DUP2 MSTORE PUSH1 0x20 ADD SWAP1 DUP2 MSTORE PUSH1 0x20 ADD PUSH1 0x0 KECCAK256 PUSH1 0x2 ADD PUSH1 0x0 SWAP1 SLOAD SWAP1 PUSH2 0x100 EXP SWAP1 DIV PUSH1 0xFF AND ISZERO ISZERO EQ PUSH2 0x1E4D JUMPI PUSH1 0x40 MLOAD PUSH32 0x299FB3C400000000000000000000000000000000000000000000000000000000 DUP2 MSTORE PUSH1 0x4 ADD PUSH1 0x40 MLOAD DUP1 SWAP2 SUB SWAP1 REVERT JUMPDEST PUSH1 0x0 CALLVALUE SWAP1 POP PUSH1 0x2 SLOAD DUP2 LT ISZERO PUSH2 0x1E8E JUMPI PUSH1 0x40 MLOAD PUSH32 0x43F79A0600000000000000000000000000000000000000000000000000000000 DUP2 MSTORE PUSH1 0x4 ADD PUSH1 0x40 MLOAD DUP1 SWAP2 SUB SWAP1 REVERT JUMPDEST PUSH1 0x1 ISZERO ISZERO PUSH1 0xA PUSH1 0x0 DUP6 DUP2 MSTORE PUSH1 0x20 ADD SWAP1 DUP2 MSTORE PUSH1 0x20 ADD PUSH1 0x0 KECCAK256 PUSH1 0x0 DUP5 PUSH20 0xFFFFFFFFFFFFFFFFFFFFFFFFFFFFFFFFFFFFFFFF AND PUSH20 0xFFFFFFFFFFFFFFFFFFFFFFFFFFFFFFFFFFFFFFFF AND DUP2 MSTORE PUSH1 0x20 ADD SWAP1 DUP2 MSTORE PUSH1 0x20 ADD PUSH1 0x0 KECCAK256 PUSH1 0x3 ADD PUSH1 0x0 SWAP1 SLOAD SWAP1 PUSH2 0x100 EXP SWAP1 DIV PUSH1 0xFF AND ISZERO ISZERO SUB PUSH2 0x20E2 JUMPI DUP1 PUSH1 0xA PUSH1 0x0 DUP6 DUP2 MSTORE PUSH1 0x20 ADD SWAP1 DUP2 MSTORE PUSH1 0x20 ADD PUSH1 0x0 KECCAK256 PUSH1 0x0 DUP5 PUSH20 0xFFFFFFFFFFFFFFFFFFFFFFFFFFFFFFFFFFFFFFFF AND PUSH20 0xFFFFFFFFFFFFFFFFFFFFFFFFFFFFFFFFFFFFFFFF AND DUP2 MSTORE PUSH1 0x20 ADD SWAP1 DUP2 MSTORE PUSH1 0x20 ADD PUSH1 0x0 KECCAK256 PUSH1 0x2 ADD SLOAD LT PUSH2 0x1F86 JUMPI PUSH1 0x40 MLOAD PUSH32 0xA5E6D6CE00000000000000000000000000000000000000000000000000000000 DUP2 MSTORE PUSH1 0x4 ADD PUSH1 0x40 MLOAD DUP1 SWAP2 SUB SWAP1 REVERT JUMPDEST PUSH1 0xA PUSH1 0x0 DUP5 DUP2 MSTORE PUSH1 0x20 ADD SWAP1 DUP2 MSTORE PUSH1 0x20 ADD PUSH1 0x0 KECCAK256 PUSH1 0x0 DUP4 PUSH20 0xFFFFFFFFFFFFFFFFFFFFFFFFFFFFFFFFFFFFFFFF AND PUSH20 0xFFFFFFFFFFFFFFFFFFFFFFFFFFFFFFFFFFFFFFFF AND DUP2 MSTORE PUSH1 0x20 ADD SWAP1 DUP2 MSTORE PUSH1 0x20 ADD PUSH1 0x0 KECCAK256 PUSH1 0x2 ADD SLOAD PUSH1 0xD PUSH1 0x0 DUP5 PUSH20 0xFFFFFFFFFFFFFFFFFFFFFFFFFFFFFFFFFFFFFFFF AND PUSH20 0xFFFFFFFFFFFFFFFFFFFFFFFFFFFFFFFFFFFFFFFF AND DUP2 MSTORE PUSH1 0x20 ADD SWAP1 DUP2 MSTORE PUSH1 0x20 ADD PUSH1 0x0 KECCAK256 PUSH1 0x0 DUP3 DUP3 SLOAD PUSH2 0x2028 SWAP2 SWAP1 PUSH2 0x3466 JUMP JUMPDEST SWAP3 POP POP DUP2 SWAP1 SSTORE POP DUP1 PUSH1 0xD PUSH1 0x0 DUP5 PUSH20 0xFFFFFFFFFFFFFFFFFFFFFFFFFFFFFFFFFFFFFFFF AND PUSH20 0xFFFFFFFFFFFFFFFFFFFFFFFFFFFFFFFFFFFFFFFF AND DUP2 MSTORE PUSH1 0x20 ADD SWAP1 DUP2 MSTORE PUSH1 0x20 ADD PUSH1 0x0 KECCAK256 PUSH1 0x0 DUP3 DUP3 SLOAD PUSH2 0x207E SWAP2 SWAP1 PUSH2 0x3569 JUMP JUMPDEST SWAP3 POP POP DUP2 SWAP1 SSTORE POP DUP1 PUSH1 0xA PUSH1 0x0 DUP6 DUP2 MSTORE PUSH1 0x20 ADD SWAP1 DUP2 MSTORE PUSH1 0x20 ADD PUSH1 0x0 KECCAK256 PUSH1 0x0 DUP5 PUSH20 0xFFFFFFFFFFFFFFFFFFFFFFFFFFFFFFFFFFFFFFFF AND PUSH20 0xFFFFFFFFFFFFFFFFFFFFFFFFFFFFFFFFFFFFFFFF AND DUP2 MSTORE PUSH1 0x20 ADD SWAP1 DUP2 MSTORE PUSH1 0x20 ADD PUSH1 0x0 KECCAK256 PUSH1 0x2 ADD DUP2 SWAP1 SSTORE POP PUSH2 0x2241 JUMP JUMPDEST DUP1 PUSH1 0xD PUSH1 0x0 DUP5 PUSH20 0xFFFFFFFFFFFFFFFFFFFFFFFFFFFFFFFFFFFFFFFF AND PUSH20 0xFFFFFFFFFFFFFFFFFFFFFFFFFFFFFFFFFFFFFFFF AND DUP2 MSTORE PUSH1 0x20 ADD SWAP1 DUP2 MSTORE PUSH1 0x20 ADD PUSH1 0x0 KECCAK256 PUSH1 0x0 DUP3 DUP3 SLOAD PUSH2 0x2131 SWAP2 SWAP1 PUSH2 0x3569 JUMP JUMPDEST SWAP3 POP POP DUP2 SWAP1 SSTORE POP PUSH1 0x40 MLOAD DUP1 PUSH1 0x80 ADD PUSH1 0x40 MSTORE DUP1 DUP4 PUSH20 0xFFFFFFFFFFFFFFFFFFFFFFFFFFFFFFFFFFFFFFFF AND DUP2 MSTORE PUSH1 0x20 ADD DUP5 DUP2 MSTORE PUSH1 0x20 ADD DUP3 DUP2 MSTORE PUSH1 0x20 ADD PUSH1 0x1 ISZERO ISZERO DUP2 MSTORE POP PUSH1 0xA PUSH1 0x0 DUP6 DUP2 MSTORE PUSH1 0x20 ADD SWAP1 DUP2 MSTORE PUSH1 0x20 ADD PUSH1 0x0 KECCAK256 PUSH1 0x0 DUP5 PUSH20 0xFFFFFFFFFFFFFFFFFFFFFFFFFFFFFFFFFFFFFFFF AND PUSH20 0xFFFFFFFFFFFFFFFFFFFFFFFFFFFFFFFFFFFFFFFF AND DUP2 MSTORE PUSH1 0x20 ADD SWAP1 DUP2 MSTORE PUSH1 0x20 ADD PUSH1 0x0 KECCAK256 PUSH1 0x0 DUP3 ADD MLOAD DUP2 PUSH1 0x0 ADD PUSH1 0x0 PUSH2 0x100 EXP DUP2 SLOAD DUP2 PUSH20 0xFFFFFFFFFFFFFFFFFFFFFFFFFFFFFFFFFFFFFFFF MUL NOT AND SWAP1 DUP4 PUSH20 0xFFFFFFFFFFFFFFFFFFFFFFFFFFFFFFFFFFFFFFFF AND MUL OR SWAP1 SSTORE POP PUSH1 0x20 DUP3 ADD MLOAD DUP2 PUSH1 0x1 ADD SSTORE PUSH1 0x40 DUP3 ADD MLOAD DUP2 PUSH1 0x2 ADD SSTORE PUSH1 0x60 DUP3 ADD MLOAD DUP2 PUSH1 0x3 ADD PUSH1 0x0 PUSH2 0x100 EXP DUP2 SLOAD DUP2 PUSH1 0xFF MUL NOT AND SWAP1 DUP4 ISZERO ISZERO MUL OR SWAP1 SSTORE POP SWAP1 POP POP JUMPDEST DUP1 PUSH1 0xB PUSH1 0x0 DUP6 DUP2 MSTORE PUSH1 0x20 ADD SWAP1 DUP2 MSTORE PUSH1 0x20 ADD PUSH1 0x0 KECCAK256 PUSH1 0x2 ADD SLOAD LT ISZERO PUSH2 0x232B JUMPI PUSH1 0x40 MLOAD DUP1 PUSH1 0x80 ADD PUSH1 0x40 MSTORE DUP1 DUP4 PUSH20 0xFFFFFFFFFFFFFFFFFFFFFFFFFFFFFFFFFFFFFFFF AND DUP2 MSTORE PUSH1 0x20 ADD DUP5 DUP2 MSTORE PUSH1 0x20 ADD DUP3 DUP2 MSTORE PUSH1 0x20 ADD PUSH1 0x1 ISZERO ISZERO DUP2 MSTORE POP PUSH1 0xB PUSH1 0x0 DUP6 DUP2 MSTORE PUSH1 0x20 ADD SWAP1 DUP2 MSTORE PUSH1 0x20 ADD PUSH1 0x0 KECCAK256 PUSH1 0x0 DUP3 ADD MLOAD DUP2 PUSH1 0x0 ADD PUSH1 0x0 PUSH2 0x100 EXP DUP2 SLOAD DUP2 PUSH20 0xFFFFFFFFFFFFFFFFFFFFFFFFFFFFFFFFFFFFFFFF MUL NOT AND SWAP1 DUP4 PUSH20 0xFFFFFFFFFFFFFFFFFFFFFFFFFFFFFFFFFFFFFFFF AND MUL OR SWAP1 SSTORE POP PUSH1 0x20 DUP3 ADD MLOAD DUP2 PUSH1 0x1 ADD SSTORE PUSH1 0x40 DUP3 ADD MLOAD DUP2 PUSH1 0x2 ADD SSTORE PUSH1 0x60 DUP3 ADD MLOAD DUP2 PUSH1 0x3 ADD PUSH1 0x0 PUSH2 0x100 EXP DUP2 SLOAD DUP2 PUSH1 0xFF MUL NOT AND SWAP1 DUP4 ISZERO ISZERO MUL OR SWAP1 SSTORE POP SWAP1 POP POP JUMPDEST PUSH32 0xFC69407039E8BA8CDD517E2A4CAE9DD19697B0A500FF37A2425C59EBC649B31 DUP4 DUP3 PUSH1 0x40 MLOAD PUSH2 0x235C SWAP3 SWAP2 SWAP1 PUSH2 0x359D JUMP JUMPDEST PUSH1 0x40 MLOAD DUP1 SWAP2 SUB SWAP1 LOG1 DUP1 PUSH1 0xC PUSH1 0x0 DUP5 PUSH20 0xFFFFFFFFFFFFFFFFFFFFFFFFFFFFFFFFFFFFFFFF AND PUSH20 0xFFFFFFFFFFFFFFFFFFFFFFFFFFFFFFFFFFFFFFFF AND DUP2 MSTORE PUSH1 0x20 ADD SWAP1 DUP2 MSTORE PUSH1 0x20 ADD PUSH1 0x0 KECCAK256 PUSH1 0x0 DUP3 DUP3 SLOAD PUSH2 0x23B3 SWAP2 SWAP1 PUSH2 0x3569 JUMP JUMPDEST SWAP3 POP POP DUP2 SWAP1 SSTORE POP POP POP POP JUMP JUMPDEST PUSH1 0x1 ISZERO ISZERO PUSH1 0x3 PUSH1 0x0 DUP4 PUSH20 0xFFFFFFFFFFFFFFFFFFFFFFFFFFFFFFFFFFFFFFFF AND PUSH20 0xFFFFFFFFFFFFFFFFFFFFFFFFFFFFFFFFFFFFFFFF AND DUP2 MSTORE PUSH1 0x20 ADD SWAP1 DUP2 MSTORE PUSH1 0x20 ADD PUSH1 0x0 KECCAK256 PUSH1 0x0 SWAP1 SLOAD SWAP1 PUSH2 0x100 EXP SWAP1 DIV PUSH1 0xFF AND ISZERO ISZERO EQ PUSH2 0x2449 JUMPI PUSH1 0x40 MLOAD PUSH32 0x11845C2100000000000000000000000000000000000000000000000000000000 DUP2 MSTORE PUSH1 0x4 ADD PUSH1 0x40 MLOAD DUP1 SWAP2 SUB SWAP1 REVERT JUMPDEST PUSH1 0x0 PUSH1 0xC PUSH1 0x0 DUP4 PUSH20 0xFFFFFFFFFFFFFFFFFFFFFFFFFFFFFFFFFFFFFFFF AND PUSH20 0xFFFFFFFFFFFFFFFFFFFFFFFFFFFFFFFFFFFFFFFF AND DUP2 MSTORE PUSH1 0x20 ADD SWAP1 DUP2 MSTORE PUSH1 0x20 ADD PUSH1 0x0 KECCAK256 SLOAD GT PUSH2 0x24C2 JUMPI PUSH1 0x40 MLOAD PUSH32 0x927ECA2F00000000000000000000000000000000000000000000000000000000 DUP2 MSTORE PUSH1 0x4 ADD PUSH1 0x40 MLOAD DUP1 SWAP2 SUB SWAP1 REVERT JUMPDEST PUSH1 0x0 PUSH1 0xD PUSH1 0x0 DUP4 PUSH20 0xFFFFFFFFFFFFFFFFFFFFFFFFFFFFFFFFFFFFFFFF AND PUSH20 0xFFFFFFFFFFFFFFFFFFFFFFFFFFFFFFFFFFFFFFFF AND DUP2 MSTORE PUSH1 0x20 ADD SWAP1 DUP2 MSTORE PUSH1 0x20 ADD PUSH1 0x0 KECCAK256 SLOAD SWAP1 POP PUSH1 0x0 DUP2 PUSH1 0xC PUSH1 0x0 DUP6 PUSH20 0xFFFFFFFFFFFFFFFFFFFFFFFFFFFFFFFFFFFFFFFF AND PUSH20 0xFFFFFFFFFFFFFFFFFFFFFFFFFFFFFFFFFFFFFFFF AND DUP2 MSTORE PUSH1 0x20 ADD SWAP1 DUP2 MSTORE PUSH1 0x20 ADD PUSH1 0x0 KECCAK256 SLOAD PUSH2 0x2553 SWAP2 SWAP1 PUSH2 0x3466 JUMP JUMPDEST SWAP1 POP DUP1 PUSH1 0xC PUSH1 0x0 DUP6 PUSH20 0xFFFFFFFFFFFFFFFFFFFFFFFFFFFFFFFFFFFFFFFF AND PUSH20 0xFFFFFFFFFFFFFFFFFFFFFFFFFFFFFFFFFFFFFFFF AND DUP2 MSTORE PUSH1 0x20 ADD SWAP1 DUP2 MSTORE PUSH1 0x20 ADD PUSH1 0x0 KECCAK256 PUSH1 0x0 DUP3 DUP3 SLOAD PUSH2 0x25A4 SWAP2 SWAP1 PUSH2 0x3466 JUMP JUMPDEST SWAP3 POP POP DUP2 SWAP1 SSTORE POP PUSH1 0x0 DUP2 GT PUSH2 0x25E5 JUMPI PUSH1 0x40 MLOAD PUSH32 0x927ECA2F00000000000000000000000000000000000000000000000000000000 DUP2 MSTORE PUSH1 0x4 ADD PUSH1 0x40 MLOAD DUP1 SWAP2 SUB SWAP1 REVERT JUMPDEST PUSH1 0x1 ISZERO ISZERO DUP4 PUSH20 0xFFFFFFFFFFFFFFFFFFFFFFFFFFFFFFFFFFFFFFFF AND PUSH2 0x8FC DUP4 SWAP1 DUP2 ISZERO MUL SWAP1 PUSH1 0x40 MLOAD PUSH1 0x0 PUSH1 0x40 MLOAD DUP1 DUP4 SUB DUP2 DUP6 DUP9 DUP9 CALL SWAP4 POP POP POP POP ISZERO ISZERO EQ PUSH2 0x2657 JUMPI PUSH1 0x40 MLOAD PUSH32 0xF5EF1CE300000000000000000000000000000000000000000000000000000000 DUP2 MSTORE PUSH1 0x4 ADD PUSH1 0x40 MLOAD DUP1 SWAP2 SUB SWAP1 REVERT JUMPDEST POP POP POP JUMP JUMPDEST PUSH2 0x2664 PUSH2 0x3044 JUMP JUMPDEST PUSH2 0x268E DUP3 PUSH32 0x5B00000000000000000000000000000000000000000000000000000000000000 PUSH2 0x28D2 JUMP JUMPDEST SWAP1 POP SWAP2 SWAP1 POP JUMP JUMPDEST PUSH2 0x269D PUSH2 0x3044 JUMP JUMPDEST PUSH2 0x26C7 DUP3 PUSH32 0x7B00000000000000000000000000000000000000000000000000000000000000 PUSH2 0x28D2 JUMP JUMPDEST SWAP1 POP SWAP2 SWAP1 POP JUMP JUMPDEST PUSH2 0x26D6 PUSH2 0x3044 JUMP JUMPDEST PUSH1 0x0 DUP5 PUSH1 0x0 ADD MLOAD SLT ISZERO PUSH2 0x2742 JUMPI DUP4 PUSH1 0x20 ADD MLOAD PUSH32 0x2C00000000000000000000000000000000000000000000000000000000000000 DUP5 PUSH2 0x2713 DUP6 PUSH2 0x29BA JUMP JUMPDEST PUSH1 0x40 MLOAD PUSH1 0x20 ADD PUSH2 0x2726 SWAP5 SWAP4 SWAP3 SWAP2 SWAP1 PUSH2 0x36E7 JUMP JUMPDEST PUSH1 0x40 MLOAD PUSH1 0x20 DUP2 DUP4 SUB SUB DUP2 MSTORE SWAP1 PUSH1 0x40 MSTORE DUP5 PUSH1 0x20 ADD DUP2 SWAP1 MSTORE POP PUSH2 0x277B JUMP JUMPDEST DUP4 PUSH1 0x20 ADD MLOAD DUP4 PUSH2 0x2751 DUP5 PUSH2 0x29BA JUMP JUMPDEST PUSH1 0x40 MLOAD PUSH1 0x20 ADD PUSH2 0x2763 SWAP4 SWAP3 SWAP2 SWAP1 PUSH2 0x373F JUMP JUMPDEST PUSH1 0x40 MLOAD PUSH1 0x20 DUP2 DUP4 SUB SUB DUP2 MSTORE SWAP1 PUSH1 0x40 MSTORE DUP5 PUSH1 0x20 ADD DUP2 SWAP1 MSTORE POP JUMPDEST PUSH2 0x2784 DUP5 PUSH2 0x2B33 JUMP JUMPDEST DUP5 PUSH1 0x0 ADD DUP2 DUP2 MSTORE POP POP DUP4 SWAP1 POP SWAP4 SWAP3 POP POP POP JUMP JUMPDEST PUSH2 0x279F PUSH2 0x3044 JUMP JUMPDEST PUSH1 0x0 DUP5 PUSH1 0x0 ADD MLOAD SLT ISZERO PUSH2 0x280B JUMPI DUP4 PUSH1 0x20 ADD MLOAD PUSH32 0x2C00000000000000000000000000000000000000000000000000000000000000 DUP5 PUSH2 0x27DC DUP6 PUSH2 0x2B48 JUMP JUMPDEST PUSH1 0x40 MLOAD PUSH1 0x20 ADD PUSH2 0x27EF SWAP5 SWAP4 SWAP3 SWAP2 SWAP1 PUSH2 0x37D2 JUMP JUMPDEST PUSH1 0x40 MLOAD PUSH1 0x20 DUP2 DUP4 SUB SUB DUP2 MSTORE SWAP1 PUSH1 0x40 MSTORE DUP5 PUSH1 0x20 ADD DUP2 SWAP1 MSTORE POP PUSH2 0x2844 JUMP JUMPDEST DUP4 PUSH1 0x20 ADD MLOAD DUP4 PUSH2 0x281A DUP5 PUSH2 0x2B48 JUMP JUMPDEST PUSH1 0x40 MLOAD PUSH1 0x20 ADD PUSH2 0x282C SWAP4 SWAP3 SWAP2 SWAP1 PUSH2 0x3835 JUMP JUMPDEST PUSH1 0x40 MLOAD PUSH1 0x20 DUP2 DUP4 SUB SUB DUP2 MSTORE SWAP1 PUSH1 0x40 MSTORE DUP5 PUSH1 0x20 ADD DUP2 SWAP1 MSTORE POP JUMPDEST PUSH2 0x284D DUP5 PUSH2 0x2B33 JUMP JUMPDEST DUP5 PUSH1 0x0 ADD DUP2 DUP2 MSTORE POP POP DUP4 SWAP1 POP SWAP4 SWAP3 POP POP POP JUMP JUMPDEST PUSH2 0x2868 PUSH2 0x3044 JUMP JUMPDEST PUSH2 0x2892 DUP3 PUSH32 0x7D00000000000000000000000000000000000000000000000000000000000000 PUSH2 0x2F9C JUMP JUMPDEST SWAP1 POP SWAP2 SWAP1 POP JUMP JUMPDEST PUSH2 0x28A1 PUSH2 0x3044 JUMP JUMPDEST PUSH2 0x28CB DUP3 PUSH32 0x5D00000000000000000000000000000000000000000000000000000000000000 PUSH2 0x2F9C JUMP JUMPDEST SWAP1 POP SWAP2 SWAP1 POP JUMP JUMPDEST PUSH2 0x28DA PUSH2 0x3044 JUMP JUMPDEST PUSH1 0x0 DUP4 PUSH1 0x0 ADD MLOAD SLT ISZERO PUSH2 0x293C JUMPI DUP3 PUSH1 0x20 ADD MLOAD PUSH32 0x2C00000000000000000000000000000000000000000000000000000000000000 DUP4 PUSH1 0x40 MLOAD PUSH1 0x20 ADD PUSH2 0x2920 SWAP4 SWAP3 SWAP2 SWAP1 PUSH2 0x3887 JUMP JUMPDEST PUSH1 0x40 MLOAD PUSH1 0x20 DUP2 DUP4 SUB SUB DUP2 MSTORE SWAP1 PUSH1 0x40 MSTORE DUP4 PUSH1 0x20 ADD DUP2 SWAP1 MSTORE POP PUSH2 0x296B JUMP JUMPDEST DUP3 PUSH1 0x20 ADD MLOAD DUP3 PUSH1 0x40 MLOAD PUSH1 0x20 ADD PUSH2 0x2953 SWAP3 SWAP2 SWAP1 PUSH2 0x38C0 JUMP JUMPDEST PUSH1 0x40 MLOAD PUSH1 0x20 DUP2 DUP4 SUB SUB DUP2 MSTORE SWAP1 PUSH1 0x40 MSTORE DUP4 PUSH1 0x20 ADD DUP2 SWAP1 MSTORE POP JUMPDEST PUSH32 0x7FFFFFFFFFFFFFFFFFFFFFFFFFFFFFFFFFFFFFFFFFFFFFFFFFFFFFFFFFFFFFFF DUP4 PUSH1 0x0 ADD DUP2 DUP2 MLOAD AND SWAP2 POP DUP2 DUP2 MSTORE POP POP DUP3 PUSH1 0x0 ADD DUP1 MLOAD DUP1 SWAP2 SWAP1 PUSH2 0x29AD SWAP1 PUSH2 0x38F2 JUMP JUMPDEST DUP2 MSTORE POP POP DUP3 SWAP1 POP SWAP3 SWAP2 POP POP JUMP JUMPDEST PUSH1 0x60 PUSH1 0x0 DUP3 SUB PUSH2 0x2A01 JUMPI PUSH1 0x40 MLOAD DUP1 PUSH1 0x40 ADD PUSH1 0x40 MSTORE DUP1 PUSH1 0x1 DUP2 MSTORE PUSH1 0x20 ADD PUSH32 0x3000000000000000000000000000000000000000000000000000000000000000 DUP2 MSTORE POP SWAP1 POP PUSH2 0x2B2E JUMP JUMPDEST PUSH1 0x0 DUP3 SWAP1 POP PUSH1 0x0 JUMPDEST PUSH1 0x0 DUP3 EQ PUSH2 0x2A33 JUMPI DUP1 DUP1 PUSH2 0x2A1C SWAP1 PUSH2 0x34C9 JUMP JUMPDEST SWAP2 POP POP PUSH1 0xA DUP3 PUSH2 0x2A2C SWAP2 SWAP1 PUSH2 0x3969 JUMP JUMPDEST SWAP2 POP PUSH2 0x2A09 JUMP JUMPDEST PUSH1 0x0 DUP2 PUSH8 0xFFFFFFFFFFFFFFFF DUP2 GT ISZERO PUSH2 0x2A4F JUMPI PUSH2 0x2A4E PUSH2 0x399A JUMP JUMPDEST JUMPDEST PUSH1 0x40 MLOAD SWAP1 DUP1 DUP3 MSTORE DUP1 PUSH1 0x1F ADD PUSH1 0x1F NOT AND PUSH1 0x20 ADD DUP3 ADD PUSH1 0x40 MSTORE DUP1 ISZERO PUSH2 0x2A81 JUMPI DUP2 PUSH1 0x20 ADD PUSH1 0x1 DUP3 MUL DUP1 CALLDATASIZE DUP4 CALLDATACOPY DUP1 DUP3 ADD SWAP2 POP POP SWAP1 POP JUMPDEST POP SWAP1 POP PUSH1 0x0 DUP3 SWAP1 POP JUMPDEST PUSH1 0x0 DUP7 EQ PUSH2 0x2B26 JUMPI PUSH1 0xA DUP1 DUP8 PUSH2 0x2AA0 SWAP2 SWAP1 PUSH2 0x3969 JUMP JUMPDEST PUSH2 0x2AAA SWAP2 SWAP1 PUSH2 0x39C9 JUMP JUMPDEST DUP7 PUSH2 0x2AB5 SWAP2 SWAP1 PUSH2 0x3466 JUMP JUMPDEST PUSH1 0x30 PUSH2 0x2AC1 SWAP2 SWAP1 PUSH2 0x3A18 JUMP JUMPDEST PUSH1 0xF8 SHL DUP3 DUP3 PUSH2 0x2ACF SWAP1 PUSH2 0x3540 JUMP JUMPDEST SWAP3 POP DUP3 DUP2 MLOAD DUP2 LT PUSH2 0x2AE3 JUMPI PUSH2 0x2AE2 PUSH2 0x349A JUMP JUMPDEST JUMPDEST PUSH1 0x20 ADD ADD SWAP1 PUSH31 0xFFFFFFFFFFFFFFFFFFFFFFFFFFFFFFFFFFFFFFFFFFFFFFFFFFFFFFFFFFFFFF NOT AND SWAP1 DUP2 PUSH1 0x0 BYTE SWAP1 MSTORE8 POP PUSH1 0xA DUP7 PUSH2 0x2B1F SWAP2 SWAP1 PUSH2 0x3969 JUMP JUMPDEST SWAP6 POP PUSH2 0x2A8A JUMP JUMPDEST DUP2 SWAP5 POP POP POP POP POP JUMPDEST SWAP2 SWAP1 POP JUMP JUMPDEST PUSH1 0x0 PUSH1 0xFF PUSH1 0x1 SWAP1 SHL DUP3 PUSH1 0x0 ADD MLOAD OR SWAP1 POP SWAP2 SWAP1 POP JUMP JUMPDEST PUSH1 0x60 PUSH1 0x0 PUSH1 0x28 PUSH8 0xFFFFFFFFFFFFFFFF DUP2 GT ISZERO PUSH2 0x2B67 JUMPI PUSH2 0x2B66 PUSH2 0x399A JUMP JUMPDEST JUMPDEST PUSH1 0x40 MLOAD SWAP1 DUP1 DUP3 MSTORE DUP1 PUSH1 0x1F ADD PUSH1 0x1F NOT AND PUSH1 0x20 ADD DUP3 ADD PUSH1 0x40 MSTORE DUP1 ISZERO PUSH2 0x2B99 JUMPI DUP2 PUSH1 0x20 ADD PUSH1 0x1 DUP3 MUL DUP1 CALLDATASIZE DUP4 CALLDATACOPY DUP1 DUP3 ADD SWAP2 POP POP SWAP1 POP JUMPDEST POP SWAP1 POP PUSH1 0x0 DUP4 SWAP1 POP PUSH1 0x0 JUMPDEST PUSH1 0x28 DUP2 LT ISZERO PUSH2 0x2C73 JUMPI PUSH32 0x3031323334353637383961626364656600000000000000000000000000000000 PUSH1 0xF DUP4 AND PUSH20 0xFFFFFFFFFFFFFFFFFFFFFFFFFFFFFFFFFFFFFFFF AND PUSH1 0x10 DUP2 LT PUSH2 0x2BF9 JUMPI PUSH2 0x2BF8 PUSH2 0x349A JUMP JUMPDEST JUMPDEST BYTE PUSH1 0xF8 SHL DUP4 DUP3 PUSH1 0x27 PUSH2 0x2C0B SWAP2 SWAP1 PUSH2 0x3466 JUMP JUMPDEST DUP2 MLOAD DUP2 LT PUSH2 0x2C1C JUMPI PUSH2 0x2C1B PUSH2 0x349A JUMP JUMPDEST JUMPDEST PUSH1 0x20 ADD ADD SWAP1 PUSH31 0xFFFFFFFFFFFFFFFFFFFFFFFFFFFFFFFFFFFFFFFFFFFFFFFFFFFFFFFFFFFFFF NOT AND SWAP1 DUP2 PUSH1 0x0 BYTE SWAP1 MSTORE8 POP PUSH1 0x4 DUP3 PUSH20 0xFFFFFFFFFFFFFFFFFFFFFFFFFFFFFFFFFFFFFFFF AND SWAP1 SHR SWAP2 POP DUP1 PUSH1 0x1 ADD SWAP1 POP PUSH2 0x2BA4 JUMP JUMPDEST POP PUSH1 0x0 DUP3 PUSH1 0x40 MLOAD PUSH1 0x20 ADD PUSH2 0x2C87 SWAP2 SWAP1 PUSH2 0x3A94 JUMP JUMPDEST PUSH1 0x40 MLOAD PUSH1 0x20 DUP2 DUP4 SUB SUB DUP2 MSTORE SWAP1 PUSH1 0x40 MSTORE DUP1 MLOAD SWAP1 PUSH1 0x20 ADD KECCAK256 SWAP1 POP PUSH1 0x0 PUSH1 0x2A PUSH8 0xFFFFFFFFFFFFFFFF DUP2 GT ISZERO PUSH2 0x2CBC JUMPI PUSH2 0x2CBB PUSH2 0x399A JUMP JUMPDEST JUMPDEST PUSH1 0x40 MLOAD SWAP1 DUP1 DUP3 MSTORE DUP1 PUSH1 0x1F ADD PUSH1 0x1F NOT AND PUSH1 0x20 ADD DUP3 ADD PUSH1 0x40 MSTORE DUP1 ISZERO PUSH2 0x2CEE JUMPI DUP2 PUSH1 0x20 ADD PUSH1 0x1 DUP3 MUL DUP1 CALLDATASIZE DUP4 CALLDATACOPY DUP1 DUP3 ADD SWAP2 POP POP SWAP1 POP JUMPDEST POP SWAP1 POP PUSH32 0x3000000000000000000000000000000000000000000000000000000000000000 DUP2 PUSH1 0x0 DUP2 MLOAD DUP2 LT PUSH2 0x2D26 JUMPI PUSH2 0x2D25 PUSH2 0x349A JUMP JUMPDEST JUMPDEST PUSH1 0x20 ADD ADD SWAP1 PUSH31 0xFFFFFFFFFFFFFFFFFFFFFFFFFFFFFFFFFFFFFFFFFFFFFFFFFFFFFFFFFFFFFF NOT AND SWAP1 DUP2 PUSH1 0x0 BYTE SWAP1 MSTORE8 POP PUSH32 0x7800000000000000000000000000000000000000000000000000000000000000 DUP2 PUSH1 0x1 DUP2 MLOAD DUP2 LT PUSH2 0x2D8A JUMPI PUSH2 0x2D89 PUSH2 0x349A JUMP JUMPDEST JUMPDEST PUSH1 0x20 ADD ADD SWAP1 PUSH31 0xFFFFFFFFFFFFFFFFFFFFFFFFFFFFFFFFFFFFFFFFFFFFFFFFFFFFFFFFFFFFFF NOT AND SWAP1 DUP2 PUSH1 0x0 BYTE SWAP1 MSTORE8 POP PUSH1 0x0 DUP7 SWAP1 POP PUSH1 0x0 DUP4 PUSH1 0x60 SHR SWAP1 POP PUSH1 0x0 PUSH1 0x29 SWAP1 POP JUMPDEST PUSH1 0x1 DUP2 GT ISZERO PUSH2 0x2F6E JUMPI PUSH1 0x0 PUSH1 0xF DUP4 AND PUSH20 0xFFFFFFFFFFFFFFFFFFFFFFFFFFFFFFFFFFFFFFFF AND SWAP1 POP PUSH1 0x7 DUP2 GT ISZERO PUSH2 0x2E94 JUMPI PUSH32 0x3031323334353637383941424344454600000000000000000000000000000000 PUSH1 0xF DUP6 AND PUSH20 0xFFFFFFFFFFFFFFFFFFFFFFFFFFFFFFFFFFFFFFFF AND PUSH1 0x10 DUP2 LT PUSH2 0x2E49 JUMPI PUSH2 0x2E48 PUSH2 0x349A JUMP JUMPDEST JUMPDEST BYTE PUSH1 0xF8 SHL DUP6 DUP4 DUP2 MLOAD DUP2 LT PUSH2 0x2E60 JUMPI PUSH2 0x2E5F PUSH2 0x349A JUMP JUMPDEST JUMPDEST PUSH1 0x20 ADD ADD SWAP1 PUSH31 0xFFFFFFFFFFFFFFFFFFFFFFFFFFFFFFFFFFFFFFFFFFFFFFFFFFFFFFFFFFFFFF NOT AND SWAP1 DUP2 PUSH1 0x0 BYTE SWAP1 MSTORE8 POP PUSH2 0x2F27 JUMP JUMPDEST PUSH32 0x3031323334353637383961626364656600000000000000000000000000000000 PUSH1 0xF DUP6 AND PUSH20 0xFFFFFFFFFFFFFFFFFFFFFFFFFFFFFFFFFFFFFFFF AND PUSH1 0x10 DUP2 LT PUSH2 0x2EE0 JUMPI PUSH2 0x2EDF PUSH2 0x349A JUMP JUMPDEST JUMPDEST BYTE PUSH1 0xF8 SHL DUP6 DUP4 DUP2 MLOAD DUP2 LT PUSH2 0x2EF7 JUMPI PUSH2 0x2EF6 PUSH2 0x349A JUMP JUMPDEST JUMPDEST PUSH1 0x20 ADD ADD SWAP1 PUSH31 0xFFFFFFFFFFFFFFFFFFFFFFFFFFFFFFFFFFFFFFFFFFFFFFFFFFFFFFFFFFFFFF NOT AND SWAP1 DUP2 PUSH1 0x0 BYTE SWAP1 MSTORE8 POP JUMPDEST PUSH1 0x4 DUP5 PUSH20 0xFFFFFFFFFFFFFFFFFFFFFFFFFFFFFFFFFFFFFFFF AND SWAP1 SHR SWAP4 POP PUSH1 0x4 DUP4 PUSH20 0xFFFFFFFFFFFFFFFFFFFFFFFFFFFFFFFFFFFFFFFF AND SWAP1 SHR SWAP3 POP DUP2 PUSH1 0x1 SWAP1 SUB SWAP2 POP POP PUSH2 0x2DCD JUMP JUMPDEST POP DUP3 PUSH1 0x40 MLOAD PUSH1 0x20 ADD PUSH2 0x2F80 SWAP2 SWAP1 PUSH2 0x3A94 JUMP JUMPDEST PUSH1 0x40 MLOAD PUSH1 0x20 DUP2 DUP4 SUB SUB DUP2 MSTORE SWAP1 PUSH1 0x40 MSTORE SWAP7 POP POP POP POP POP POP POP SWAP2 SWAP1 POP JUMP JUMPDEST PUSH2 0x2FA4 PUSH2 0x3044 JUMP JUMPDEST DUP3 PUSH1 0x20 ADD MLOAD DUP3 PUSH1 0x40 MLOAD PUSH1 0x20 ADD PUSH2 0x2FBB SWAP3 SWAP2 SWAP1 PUSH2 0x38C0 JUMP JUMPDEST PUSH1 0x40 MLOAD PUSH1 0x20 DUP2 DUP4 SUB SUB DUP2 MSTORE SWAP1 PUSH1 0x40 MSTORE DUP4 PUSH1 0x20 ADD DUP2 SWAP1 MSTORE POP PUSH2 0x2FDB DUP4 PUSH2 0x2B33 JUMP JUMPDEST DUP4 PUSH1 0x0 ADD DUP2 DUP2 MSTORE POP POP PUSH1 0x0 PUSH2 0x2FEF DUP5 PUSH2 0x3014 JUMP JUMPDEST EQ PUSH2 0x300B JUMPI DUP3 PUSH1 0x0 ADD DUP1 MLOAD DUP1 SWAP2 SWAP1 PUSH2 0x3006 SWAP1 PUSH2 0x3AAB JUMP JUMPDEST DUP2 MSTORE POP POP JUMPDEST DUP3 SWAP1 POP SWAP3 SWAP2 POP POP JUMP JUMPDEST PUSH1 0x0 PUSH32 0x7FFFFFFFFFFFFFFFFFFFFFFFFFFFFFFFFFFFFFFFFFFFFFFFFFFFFFFFFFFFFFFF DUP3 PUSH1 0x0 ADD MLOAD AND SWAP1 POP SWAP2 SWAP1 POP JUMP JUMPDEST PUSH1 0x40 MLOAD DUP1 PUSH1 0x40 ADD PUSH1 0x40 MSTORE DUP1 PUSH1 0x0 DUP2 MSTORE PUSH1 0x20 ADD PUSH1 0x60 DUP2 MSTORE POP SWAP1 JUMP JUMPDEST PUSH1 0x0 DUP1 REVERT JUMPDEST PUSH1 0x0 DUP2 SWAP1 POP SWAP2 SWAP1 POP JUMP JUMPDEST PUSH2 0x3076 DUP2 PUSH2 0x3063 JUMP JUMPDEST DUP2 EQ PUSH2 0x3081 JUMPI PUSH1 0x0 DUP1 REVERT JUMPDEST POP JUMP JUMPDEST PUSH1 0x0 DUP2 CALLDATALOAD SWAP1 POP PUSH2 0x3093 DUP2 PUSH2 0x306D JUMP JUMPDEST SWAP3 SWAP2 POP POP JUMP JUMPDEST PUSH1 0x0 DUP2 ISZERO ISZERO SWAP1 POP SWAP2 SWAP1 POP JUMP JUMPDEST PUSH2 0x30AE DUP2 PUSH2 0x3099 JUMP JUMPDEST DUP2 EQ PUSH2 0x30B9 JUMPI PUSH1 0x0 DUP1 REVERT JUMPDEST POP JUMP JUMPDEST PUSH1 0x0 DUP2 CALLDATALOAD SWAP1 POP PUSH2 0x30CB DUP2 PUSH2 0x30A5 JUMP JUMPDEST SWAP3 SWAP2 POP POP JUMP JUMPDEST PUSH1 0x0 DUP1 PUSH1 0x0 PUSH1 0x60 DUP5 DUP7 SUB SLT ISZERO PUSH2 0x30EA JUMPI PUSH2 0x30E9 PUSH2 0x305E JUMP JUMPDEST JUMPDEST PUSH1 0x0 PUSH2 0x30F8 DUP7 DUP3 DUP8 ADD PUSH2 0x3084 JUMP JUMPDEST SWAP4 POP POP PUSH1 0x20 PUSH2 0x3109 DUP7 DUP3 DUP8 ADD PUSH2 0x3084 JUMP JUMPDEST SWAP3 POP POP PUSH1 0x40 PUSH2 0x311A DUP7 DUP3 DUP8 ADD PUSH2 0x30BC JUMP JUMPDEST SWAP2 POP POP SWAP3 POP SWAP3 POP SWAP3 JUMP JUMPDEST PUSH1 0x0 PUSH20 0xFFFFFFFFFFFFFFFFFFFFFFFFFFFFFFFFFFFFFFFF DUP3 AND SWAP1 POP SWAP2 SWAP1 POP JUMP JUMPDEST PUSH1 0x0 PUSH2 0x314F DUP3 PUSH2 0x3124 JUMP JUMPDEST SWAP1 POP SWAP2 SWAP1 POP JUMP JUMPDEST PUSH2 0x315F DUP2 PUSH2 0x3144 JUMP JUMPDEST DUP2 EQ PUSH2 0x316A JUMPI PUSH1 0x0 DUP1 REVERT JUMPDEST POP JUMP JUMPDEST PUSH1 0x0 DUP2 CALLDATALOAD SWAP1 POP PUSH2 0x317C DUP2 PUSH2 0x3156 JUMP JUMPDEST SWAP3 SWAP2 POP POP JUMP JUMPDEST PUSH1 0x0 DUP1 PUSH1 0x40 DUP4 DUP6 SUB SLT ISZERO PUSH2 0x3199 JUMPI PUSH2 0x3198 PUSH2 0x305E JUMP JUMPDEST JUMPDEST PUSH1 0x0 PUSH2 0x31A7 DUP6 DUP3 DUP7 ADD PUSH2 0x3084 JUMP JUMPDEST SWAP3 POP POP PUSH1 0x20 PUSH2 0x31B8 DUP6 DUP3 DUP7 ADD PUSH2 0x316D JUMP JUMPDEST SWAP2 POP POP SWAP3 POP SWAP3 SWAP1 POP JUMP JUMPDEST PUSH2 0x31CB DUP2 PUSH2 0x3063 JUMP JUMPDEST DUP3 MSTORE POP POP JUMP JUMPDEST PUSH1 0x0 PUSH1 0x20 DUP3 ADD SWAP1 POP PUSH2 0x31E6 PUSH1 0x0 DUP4 ADD DUP5 PUSH2 0x31C2 JUMP JUMPDEST SWAP3 SWAP2 POP POP JUMP JUMPDEST PUSH1 0x0 PUSH1 0x20 DUP3 DUP5 SUB SLT ISZERO PUSH2 0x3202 JUMPI PUSH2 0x3201 PUSH2 0x305E JUMP JUMPDEST JUMPDEST PUSH1 0x0 PUSH2 0x3210 DUP5 DUP3 DUP6 ADD PUSH2 0x3084 JUMP JUMPDEST SWAP2 POP POP SWAP3 SWAP2 POP POP JUMP JUMPDEST PUSH1 0x0 DUP1 PUSH1 0x40 DUP4 DUP6 SUB SLT ISZERO PUSH2 0x3230 JUMPI PUSH2 0x322F PUSH2 0x305E JUMP JUMPDEST JUMPDEST PUSH1 0x0 PUSH2 0x323E DUP6 DUP3 DUP7 ADD PUSH2 0x3084 JUMP JUMPDEST SWAP3 POP POP PUSH1 0x20 PUSH2 0x324F DUP6 DUP3 DUP7 ADD PUSH2 0x3084 JUMP JUMPDEST SWAP2 POP POP SWAP3 POP SWAP3 SWAP1 POP JUMP JUMPDEST PUSH2 0x3262 DUP2 PUSH2 0x3144 JUMP JUMPDEST DUP3 MSTORE POP POP JUMP JUMPDEST PUSH2 0x3271 DUP2 PUSH2 0x3099 JUMP JUMPDEST DUP3 MSTORE POP POP JUMP JUMPDEST PUSH1 0x0 PUSH1 0x80 DUP3 ADD SWAP1 POP PUSH2 0x328C PUSH1 0x0 DUP4 ADD DUP8 PUSH2 0x3259 JUMP JUMPDEST PUSH2 0x3299 PUSH1 0x20 DUP4 ADD DUP7 PUSH2 0x31C2 JUMP JUMPDEST PUSH2 0x32A6 PUSH1 0x40 DUP4 ADD DUP6 PUSH2 0x31C2 JUMP JUMPDEST PUSH2 0x32B3 PUSH1 0x60 DUP4 ADD DUP5 PUSH2 0x3268 JUMP JUMPDEST SWAP6 SWAP5 POP POP POP POP POP JUMP JUMPDEST PUSH1 0x0 PUSH1 0x60 DUP3 ADD SWAP1 POP PUSH2 0x32D1 PUSH1 0x0 DUP4 ADD DUP7 PUSH2 0x31C2 JUMP JUMPDEST PUSH2 0x32DE PUSH1 0x20 DUP4 ADD DUP6 PUSH2 0x31C2 JUMP JUMPDEST PUSH2 0x32EB PUSH1 0x40 DUP4 ADD DUP5 PUSH2 0x3268 JUMP JUMPDEST SWAP5 SWAP4 POP POP POP POP JUMP JUMPDEST PUSH1 0x0 PUSH1 0x20 DUP3 ADD SWAP1 POP PUSH2 0x3308 PUSH1 0x0 DUP4 ADD DUP5 PUSH2 0x3259 JUMP JUMPDEST SWAP3 SWAP2 POP POP JUMP JUMPDEST PUSH1 0x0 PUSH1 0x20 DUP3 DUP5 SUB SLT ISZERO PUSH2 0x3324 JUMPI PUSH2 0x3323 PUSH2 0x305E JUMP JUMPDEST JUMPDEST PUSH1 0x0 PUSH2 0x3332 DUP5 DUP3 DUP6 ADD PUSH2 0x316D JUMP JUMPDEST SWAP2 POP POP SWAP3 SWAP2 POP POP JUMP JUMPDEST PUSH1 0x0 PUSH1 0x20 DUP3 ADD SWAP1 POP PUSH2 0x3350 PUSH1 0x0 DUP4 ADD DUP5 PUSH2 0x3268 JUMP JUMPDEST SWAP3 SWAP2 POP POP JUMP JUMPDEST PUSH1 0x0 DUP2 MLOAD SWAP1 POP SWAP2 SWAP1 POP JUMP JUMPDEST PUSH1 0x0 DUP3 DUP3 MSTORE PUSH1 0x20 DUP3 ADD SWAP1 POP SWAP3 SWAP2 POP POP JUMP JUMPDEST PUSH1 0x0 JUMPDEST DUP4 DUP2 LT ISZERO PUSH2 0x3390 JUMPI DUP1 DUP3 ADD MLOAD DUP2 DUP5 ADD MSTORE PUSH1 0x20 DUP2 ADD SWAP1 POP PUSH2 0x3375 JUMP JUMPDEST PUSH1 0x0 DUP5 DUP5 ADD MSTORE POP POP POP POP JUMP JUMPDEST PUSH1 0x0 PUSH1 0x1F NOT PUSH1 0x1F DUP4 ADD AND SWAP1 POP SWAP2 SWAP1 POP JUMP JUMPDEST PUSH1 0x0 PUSH2 0x33B8 DUP3 PUSH2 0x3356 JUMP JUMPDEST PUSH2 0x33C2 DUP2 DUP6 PUSH2 0x3361 JUMP JUMPDEST SWAP4 POP PUSH2 0x33D2 DUP2 DUP6 PUSH1 0x20 DUP7 ADD PUSH2 0x3372 JUMP JUMPDEST PUSH2 0x33DB DUP2 PUSH2 0x339C JUMP JUMPDEST DUP5 ADD SWAP2 POP POP SWAP3 SWAP2 POP POP JUMP JUMPDEST PUSH1 0x0 PUSH1 0x20 DUP3 ADD SWAP1 POP DUP2 DUP2 SUB PUSH1 0x0 DUP4 ADD MSTORE PUSH2 0x3400 DUP2 DUP5 PUSH2 0x33AD JUMP JUMPDEST SWAP1 POP SWAP3 SWAP2 POP POP JUMP JUMPDEST PUSH32 0x4E487B7100000000000000000000000000000000000000000000000000000000 PUSH1 0x0 MSTORE PUSH1 0x21 PUSH1 0x4 MSTORE PUSH1 0x24 PUSH1 0x0 REVERT JUMPDEST PUSH32 0x4E487B7100000000000000000000000000000000000000000000000000000000 PUSH1 0x0 MSTORE PUSH1 0x11 PUSH1 0x4 MSTORE PUSH1 0x24 PUSH1 0x0 REVERT JUMPDEST PUSH1 0x0 PUSH2 0x3471 DUP3 PUSH2 0x3063 JUMP JUMPDEST SWAP2 POP PUSH2 0x347C DUP4 PUSH2 0x3063 JUMP JUMPDEST SWAP3 POP DUP3 DUP3 SUB SWAP1 POP DUP2 DUP2 GT ISZERO PUSH2 0x3494 JUMPI PUSH2 0x3493 PUSH2 0x3437 JUMP JUMPDEST JUMPDEST SWAP3 SWAP2 POP POP JUMP JUMPDEST PUSH32 0x4E487B7100000000000000000000000000000000000000000000000000000000 PUSH1 0x0 MSTORE PUSH1 0x32 PUSH1 0x4 MSTORE PUSH1 0x24 PUSH1 0x0 REVERT JUMPDEST PUSH1 0x0 PUSH2 0x34D4 DUP3 PUSH2 0x3063 JUMP JUMPDEST SWAP2 POP PUSH32 0xFFFFFFFFFFFFFFFFFFFFFFFFFFFFFFFFFFFFFFFFFFFFFFFFFFFFFFFFFFFFFFFF DUP3 SUB PUSH2 0x3506 JUMPI PUSH2 0x3505 PUSH2 0x3437 JUMP JUMPDEST JUMPDEST PUSH1 0x1 DUP3 ADD SWAP1 POP SWAP2 SWAP1 POP JUMP JUMPDEST PUSH32 0x4E487B7100000000000000000000000000000000000000000000000000000000 PUSH1 0x0 MSTORE PUSH1 0x31 PUSH1 0x4 MSTORE PUSH1 0x24 PUSH1 0x0 REVERT JUMPDEST PUSH1 0x0 PUSH2 0x354B DUP3 PUSH2 0x3063 JUMP JUMPDEST SWAP2 POP PUSH1 0x0 DUP3 SUB PUSH2 0x355E JUMPI PUSH2 0x355D PUSH2 0x3437 JUMP JUMPDEST JUMPDEST PUSH1 0x1 DUP3 SUB SWAP1 POP SWAP2 SWAP1 POP JUMP JUMPDEST PUSH1 0x0 PUSH2 0x3574 DUP3 PUSH2 0x3063 JUMP JUMPDEST SWAP2 POP PUSH2 0x357F DUP4 PUSH2 0x3063 JUMP JUMPDEST SWAP3 POP DUP3 DUP3 ADD SWAP1 POP DUP1 DUP3 GT ISZERO PUSH2 0x3597 JUMPI PUSH2 0x3596 PUSH2 0x3437 JUMP JUMPDEST JUMPDEST SWAP3 SWAP2 POP POP JUMP JUMPDEST PUSH1 0x0 PUSH1 0x40 DUP3 ADD SWAP1 POP PUSH2 0x35B2 PUSH1 0x0 DUP4 ADD DUP6 PUSH2 0x31C2 JUMP JUMPDEST PUSH2 0x35BF PUSH1 0x20 DUP4 ADD DUP5 PUSH2 0x31C2 JUMP JUMPDEST SWAP4 SWAP3 POP POP POP JUMP JUMPDEST PUSH1 0x0 DUP2 SWAP1 POP SWAP3 SWAP2 POP POP JUMP JUMPDEST PUSH1 0x0 PUSH2 0x35DC DUP3 PUSH2 0x3356 JUMP JUMPDEST PUSH2 0x35E6 DUP2 DUP6 PUSH2 0x35C6 JUMP JUMPDEST SWAP4 POP PUSH2 0x35F6 DUP2 DUP6 PUSH1 0x20 DUP7 ADD PUSH2 0x3372 JUMP JUMPDEST DUP1 DUP5 ADD SWAP2 POP POP SWAP3 SWAP2 POP POP JUMP JUMPDEST PUSH1 0x0 PUSH32 0xFF00000000000000000000000000000000000000000000000000000000000000 DUP3 AND SWAP1 POP SWAP2 SWAP1 POP JUMP JUMPDEST PUSH1 0x0 DUP2 SWAP1 POP SWAP2 SWAP1 POP JUMP JUMPDEST PUSH2 0x3649 PUSH2 0x3644 DUP3 PUSH2 0x3602 JUMP JUMPDEST PUSH2 0x362E JUMP JUMPDEST DUP3 MSTORE POP POP JUMP JUMPDEST PUSH32 0x2200000000000000000000000000000000000000000000000000000000000000 PUSH1 0x0 DUP3 ADD MSTORE POP JUMP JUMPDEST PUSH1 0x0 PUSH2 0x3685 PUSH1 0x1 DUP4 PUSH2 0x35C6 JUMP JUMPDEST SWAP2 POP PUSH2 0x3690 DUP3 PUSH2 0x364F JUMP JUMPDEST PUSH1 0x1 DUP3 ADD SWAP1 POP SWAP2 SWAP1 POP JUMP JUMPDEST PUSH32 0x223A200000000000000000000000000000000000000000000000000000000000 PUSH1 0x0 DUP3 ADD MSTORE POP JUMP JUMPDEST PUSH1 0x0 PUSH2 0x36D1 PUSH1 0x3 DUP4 PUSH2 0x35C6 JUMP JUMPDEST SWAP2 POP PUSH2 0x36DC DUP3 PUSH2 0x369B JUMP JUMPDEST PUSH1 0x3 DUP3 ADD SWAP1 POP SWAP2 SWAP1 POP JUMP JUMPDEST PUSH1 0x0 PUSH2 0x36F3 DUP3 DUP8 PUSH2 0x35D1 JUMP JUMPDEST SWAP2 POP PUSH2 0x36FF DUP3 DUP7 PUSH2 0x3638 JUMP JUMPDEST PUSH1 0x1 DUP3 ADD SWAP2 POP PUSH2 0x370E DUP3 PUSH2 0x3678 JUMP JUMPDEST SWAP2 POP PUSH2 0x371A DUP3 DUP6 PUSH2 0x35D1 JUMP JUMPDEST SWAP2 POP PUSH2 0x3725 DUP3 PUSH2 0x36C4 JUMP JUMPDEST SWAP2 POP PUSH2 0x3731 DUP3 DUP5 PUSH2 0x35D1 JUMP JUMPDEST SWAP2 POP DUP2 SWAP1 POP SWAP6 SWAP5 POP POP POP POP POP JUMP JUMPDEST PUSH1 0x0 PUSH2 0x374B DUP3 DUP7 PUSH2 0x35D1 JUMP JUMPDEST SWAP2 POP PUSH2 0x3756 DUP3 PUSH2 0x3678 JUMP JUMPDEST SWAP2 POP PUSH2 0x3762 DUP3 DUP6 PUSH2 0x35D1 JUMP JUMPDEST SWAP2 POP PUSH2 0x376D DUP3 PUSH2 0x36C4 JUMP JUMPDEST SWAP2 POP PUSH2 0x3779 DUP3 DUP5 PUSH2 0x35D1 JUMP JUMPDEST SWAP2 POP DUP2 SWAP1 POP SWAP5 SWAP4 POP POP POP POP JUMP JUMPDEST PUSH32 0x223A202200000000000000000000000000000000000000000000000000000000 PUSH1 0x0 DUP3 ADD MSTORE POP JUMP JUMPDEST PUSH1 0x0 PUSH2 0x37BC PUSH1 0x4 DUP4 PUSH2 0x35C6 JUMP JUMPDEST SWAP2 POP PUSH2 0x37C7 DUP3 PUSH2 0x3786 JUMP JUMPDEST PUSH1 0x4 DUP3 ADD SWAP1 POP SWAP2 SWAP1 POP JUMP JUMPDEST PUSH1 0x0 PUSH2 0x37DE DUP3 DUP8 PUSH2 0x35D1 JUMP JUMPDEST SWAP2 POP PUSH2 0x37EA DUP3 DUP7 PUSH2 0x3638 JUMP JUMPDEST PUSH1 0x1 DUP3 ADD SWAP2 POP PUSH2 0x37F9 DUP3 PUSH2 0x3678 JUMP JUMPDEST SWAP2 POP PUSH2 0x3805 DUP3 DUP6 PUSH2 0x35D1 JUMP JUMPDEST SWAP2 POP PUSH2 0x3810 DUP3 PUSH2 0x37AF JUMP JUMPDEST SWAP2 POP PUSH2 0x381C DUP3 DUP5 PUSH2 0x35D1 JUMP JUMPDEST SWAP2 POP PUSH2 0x3827 DUP3 PUSH2 0x3678 JUMP JUMPDEST SWAP2 POP DUP2 SWAP1 POP SWAP6 SWAP5 POP POP POP POP POP JUMP JUMPDEST PUSH1 0x0 PUSH2 0x3841 DUP3 DUP7 PUSH2 0x35D1 JUMP JUMPDEST SWAP2 POP PUSH2 0x384C DUP3 PUSH2 0x3678 JUMP JUMPDEST SWAP2 POP PUSH2 0x3858 DUP3 DUP6 PUSH2 0x35D1 JUMP JUMPDEST SWAP2 POP PUSH2 0x3863 DUP3 PUSH2 0x37AF JUMP JUMPDEST SWAP2 POP PUSH2 0x386F DUP3 DUP5 PUSH2 0x35D1 JUMP JUMPDEST SWAP2 POP PUSH2 0x387A DUP3 PUSH2 0x3678 JUMP JUMPDEST SWAP2 POP DUP2 SWAP1 POP SWAP5 SWAP4 POP POP POP POP JUMP JUMPDEST PUSH1 0x0 PUSH2 0x3893 DUP3 DUP7 PUSH2 0x35D1 JUMP JUMPDEST SWAP2 POP PUSH2 0x389F DUP3 DUP6 PUSH2 0x3638 JUMP JUMPDEST PUSH1 0x1 DUP3 ADD SWAP2 POP PUSH2 0x38AF DUP3 DUP5 PUSH2 0x3638 JUMP JUMPDEST PUSH1 0x1 DUP3 ADD SWAP2 POP DUP2 SWAP1 POP SWAP5 SWAP4 POP POP POP POP JUMP JUMPDEST PUSH1 0x0 PUSH2 0x38CC DUP3 DUP6 PUSH2 0x35D1 JUMP JUMPDEST SWAP2 POP PUSH2 0x38D8 DUP3 DUP5 PUSH2 0x3638 JUMP JUMPDEST PUSH1 0x1 DUP3 ADD SWAP2 POP DUP2 SWAP1 POP SWAP4 SWAP3 POP POP POP JUMP JUMPDEST PUSH1 0x0 DUP2 SWAP1 POP SWAP2 SWAP1 POP JUMP JUMPDEST PUSH1 0x0 PUSH2 0x38FD DUP3 PUSH2 0x38E8 JUMP JUMPDEST SWAP2 POP PUSH32 0x7FFFFFFFFFFFFFFFFFFFFFFFFFFFFFFFFFFFFFFFFFFFFFFFFFFFFFFFFFFFFFFF DUP3 SUB PUSH2 0x392F JUMPI PUSH2 0x392E PUSH2 0x3437 JUMP JUMPDEST JUMPDEST PUSH1 0x1 DUP3 ADD SWAP1 POP SWAP2 SWAP1 POP JUMP JUMPDEST PUSH32 0x4E487B7100000000000000000000000000000000000000000000000000000000 PUSH1 0x0 MSTORE PUSH1 0x12 PUSH1 0x4 MSTORE PUSH1 0x24 PUSH1 0x0 REVERT JUMPDEST PUSH1 0x0 PUSH2 0x3974 DUP3 PUSH2 0x3063 JUMP JUMPDEST SWAP2 POP PUSH2 0x397F DUP4 PUSH2 0x3063 JUMP JUMPDEST SWAP3 POP DUP3 PUSH2 0x398F JUMPI PUSH2 0x398E PUSH2 0x393A JUMP JUMPDEST JUMPDEST DUP3 DUP3 DIV SWAP1 POP SWAP3 SWAP2 POP POP JUMP JUMPDEST PUSH32 0x4E487B7100000000000000000000000000000000000000000000000000000000 PUSH1 0x0 MSTORE PUSH1 0x41 PUSH1 0x4 MSTORE PUSH1 0x24 PUSH1 0x0 REVERT JUMPDEST PUSH1 0x0 PUSH2 0x39D4 DUP3 PUSH2 0x3063 JUMP JUMPDEST SWAP2 POP PUSH2 0x39DF DUP4 PUSH2 0x3063 JUMP JUMPDEST SWAP3 POP DUP3 DUP3 MUL PUSH2 0x39ED DUP2 PUSH2 0x3063 JUMP JUMPDEST SWAP2 POP DUP3 DUP3 DIV DUP5 EQ DUP4 ISZERO OR PUSH2 0x3A04 JUMPI PUSH2 0x3A03 PUSH2 0x3437 JUMP JUMPDEST JUMPDEST POP SWAP3 SWAP2 POP POP JUMP JUMPDEST PUSH1 0x0 PUSH1 0xFF DUP3 AND SWAP1 POP SWAP2 SWAP1 POP JUMP JUMPDEST PUSH1 0x0 PUSH2 0x3A23 DUP3 PUSH2 0x3A0B JUMP JUMPDEST SWAP2 POP PUSH2 0x3A2E DUP4 PUSH2 0x3A0B JUMP JUMPDEST SWAP3 POP DUP3 DUP3 ADD SWAP1 POP PUSH1 0xFF DUP2 GT ISZERO PUSH2 0x3A47 JUMPI PUSH2 0x3A46 PUSH2 0x3437 JUMP JUMPDEST JUMPDEST SWAP3 SWAP2 POP POP JUMP JUMPDEST PUSH1 0x0 DUP2 MLOAD SWAP1 POP SWAP2 SWAP1 POP JUMP JUMPDEST PUSH1 0x0 DUP2 SWAP1 POP SWAP3 SWAP2 POP POP JUMP JUMPDEST PUSH1 0x0 PUSH2 0x3A6E DUP3 PUSH2 0x3A4D JUMP JUMPDEST PUSH2 0x3A78 DUP2 DUP6 PUSH2 0x3A58 JUMP JUMPDEST SWAP4 POP PUSH2 0x3A88 DUP2 DUP6 PUSH1 0x20 DUP7 ADD PUSH2 0x3372 JUMP JUMPDEST DUP1 DUP5 ADD SWAP2 POP POP SWAP3 SWAP2 POP POP JUMP JUMPDEST PUSH1 0x0 PUSH2 0x3AA0 DUP3 DUP5 PUSH2 0x3A63 JUMP JUMPDEST SWAP2 POP DUP2 SWAP1 POP SWAP3 SWAP2 POP POP JUMP JUMPDEST PUSH1 0x0 PUSH2 0x3AB6 DUP3 PUSH2 0x38E8 JUMP JUMPDEST SWAP2 POP PUSH32 0x8000000000000000000000000000000000000000000000000000000000000000 DUP3 SUB PUSH2 0x3AE8 JUMPI PUSH2 0x3AE7 PUSH2 0x3437 JUMP JUMPDEST JUMPDEST PUSH1 0x1 DUP3 SUB SWAP1 POP SWAP2 SWAP1 POP JUMP INVALID LOG2 PUSH5 0x6970667358 0x22 SLT KECCAK256 RETURN SMOD PUSH20 0x8E766D105120920ED4D556FF73C2A04261156055 0x1F STATICCALL SELFBALANCE BLOBHASH AND 0xCF 0xFC ADDMOD PUSH0 PUSH5 0x736F6C6343 STOP ADDMOD SHR STOP CALLER "},"methodIdentifiers":{"allowedBuyers(address)":"b9b48595","authorize(address)":"b6a5d7de","bid(uint256)":"454a2ab3","bidAs(uint256,address)":"0d1f55e3","closeAuction()":"378252f2","currentBids(uint256,address)":"69b2643d","getCurrentBids(uint256,address)":"3c7a1e7d","getHighestBid(uint256)":"8f288644","getMyBalance()":"4c738909","getWinners()":"df15c37e","liveProductsCount()":"825ae97e","owner()":"8da5cb5b","product(uint256,uint256,bool)":"0471b94b","productsKeys(uint256)":"87e06e5e","productsMap(uint256)":"77dec24c","setAuctionTiming(uint256,uint256)":"5b0ba29b","startAuction()":"6b64c769","unauthorize(address)":"f0b37c04","withdraw()":"3ccfd60b","withdrawAs(address)":"954d4fbd"}}}}}