{
  "_format": "hh-sol-artifact-1",
  "contractName": "Auction",
  "sourceName": "contracts/auction.sol",
  "abi": [
    {
      "inputs": [
        {
          "internalType": "enum ActivationType",
          "name": "_startType",
          "type": "uint8"
        }
      ],
      "stateMutability": "nonpayable",
      "type": "constructor"
    },
    {
      "inputs": [],
      "name": "ErrAuctionCannotBeStarted",
      "type": "error"
    },
    {
      "inputs": [],
      "name": "ErrAuctionClosed",
      "type": "error"
    },
    {
      "inputs": [],
      "name": "ErrAuctionIsManual",
      "type": "error"
    },
    {
      "inputs": [],
      "name": "ErrAuctionIsTemporal",
      "type": "error"
    },
    {
      "inputs": [],
      "name": "ErrAuctionNotActive",
      "type": "error"
    },
    {
      "inputs": [],
      "name": "ErrAuctionNotStarted",
      "type": "error"
    },
    {
      "inputs": [],
      "name": "ErrAuctionNotYetClosed",
      "type": "error"
    },
    {
      "inputs": [],
      "name": "ErrAuctionStarted",
      "type": "error"
    },
    {
      "inputs": [],
      "name": "ErrBadProductCode",
      "type": "error"
    },
    {
      "inputs": [],
      "name": "ErrBidCannotBeLowerThanPrevious",
      "type": "error"
    },
    {
      "inputs": [],
      "name": "ErrBidTooLow",
      "type": "error"
    },
    {
      "inputs": [],
      "name": "ErrBidderNotFound",
      "type": "error"
    },
    {
      "inputs": [],
      "name": "ErrDuplicateBidder",
      "type": "error"
    },
    {
      "inputs": [],
      "name": "ErrDurTooShort",
      "type": "error"
    },
    {
      "inputs": [],
      "name": "ErrForbidden",
      "type": "error"
    },
    {
      "inputs": [],
      "name": "ErrOutOfBalance",
      "type": "error"
    },
    {
      "inputs": [],
      "name": "ErrProductNotFound",
      "type": "error"
    },
    {
      "inputs": [],
      "name": "ErrTooManyProducts",
      "type": "error"
    },
    {
      "inputs": [],
      "name": "ErrWithdrawFailed",
      "type": "error"
    },
    {
      "anonymous": false,
      "inputs": [
        {
          "indexed": false,
          "internalType": "uint256",
          "name": "productCode",
          "type": "uint256"
        },
        {
          "indexed": false,
          "internalType": "uint256",
          "name": "amount",
          "type": "uint256"
        }
      ],
      "name": "BidPlaced",
      "type": "event"
    },
    {
      "inputs": [
        {
          "internalType": "address",
          "name": "",
          "type": "address"
        }
      ],
      "name": "allowedBuyers",
      "outputs": [
        {
          "internalType": "bool",
          "name": "",
          "type": "bool"
        }
      ],
      "stateMutability": "view",
      "type": "function"
    },
    {
      "inputs": [
        {
          "internalType": "address",
          "name": "toBeBuyer",
          "type": "address"
        }
      ],
      "name": "authorize",
      "outputs": [],
      "stateMutability": "nonpayable",
      "type": "function"
    },
    {
      "inputs": [
        {
          "internalType": "uint256",
          "name": "productCode",
          "type": "uint256"
        }
      ],
      "name": "bid",
      "outputs": [],
      "stateMutability": "payable",
      "type": "function"
    },
    {
      "inputs": [],
      "name": "closeAuction",
      "outputs": [],
      "stateMutability": "nonpayable",
      "type": "function"
    },
    {
      "inputs": [
        {
          "internalType": "uint256",
          "name": "",
          "type": "uint256"
        },
        {
          "internalType": "address",
          "name": "",
          "type": "address"
        }
      ],
      "name": "currentBids",
      "outputs": [
        {
          "internalType": "address",
          "name": "buyer",
          "type": "address"
        },
        {
          "internalType": "uint256",
          "name": "productCode",
          "type": "uint256"
        },
        {
          "internalType": "uint256",
          "name": "amount",
          "type": "uint256"
        },
        {
          "internalType": "bool",
          "name": "put",
          "type": "bool"
        }
      ],
      "stateMutability": "view",
      "type": "function"
    },
    {
      "inputs": [
        {
          "internalType": "uint256",
          "name": "productCode",
          "type": "uint256"
        },
        {
          "internalType": "address",
          "name": "bidderAddress",
          "type": "address"
        }
      ],
      "name": "getCurrentBids",
      "outputs": [
        {
          "internalType": "uint256",
          "name": "",
          "type": "uint256"
        }
      ],
      "stateMutability": "view",
      "type": "function"
    },
    {
      "inputs": [
        {
          "internalType": "uint256",
          "name": "productCode",
          "type": "uint256"
        }
      ],
      "name": "getHighestBid",
      "outputs": [
        {
          "internalType": "uint256",
          "name": "",
          "type": "uint256"
        }
      ],
      "stateMutability": "view",
      "type": "function"
    },
    {
      "inputs": [],
      "name": "getMyBalance",
      "outputs": [
        {
          "internalType": "uint256",
          "name": "",
          "type": "uint256"
        }
      ],
      "stateMutability": "view",
      "type": "function"
    },
    {
      "inputs": [],
      "name": "getWinners",
      "outputs": [
        {
          "internalType": "string",
          "name": "",
          "type": "string"
        }
      ],
      "stateMutability": "view",
      "type": "function"
    },
    {
      "inputs": [],
      "name": "liveProductsCount",
      "outputs": [
        {
          "internalType": "uint256",
          "name": "",
          "type": "uint256"
        }
      ],
      "stateMutability": "view",
      "type": "function"
    },
    {
      "inputs": [],
      "name": "owner",
      "outputs": [
        {
          "internalType": "address",
          "name": "",
          "type": "address"
        }
      ],
      "stateMutability": "view",
      "type": "function"
    },
    {
      "inputs": [
        {
          "internalType": "uint256",
          "name": "productCode",
          "type": "uint256"
        },
        {
          "internalType": "uint256",
          "name": "startingBidPrice",
          "type": "uint256"
        },
        {
          "internalType": "bool",
          "name": "isRemove",
          "type": "bool"
        }
      ],
      "name": "product",
      "outputs": [],
      "stateMutability": "nonpayable",
      "type": "function"
    },
    {
      "inputs": [
        {
          "internalType": "uint256",
          "name": "",
          "type": "uint256"
        }
      ],
      "name": "productsKeys",
      "outputs": [
        {
          "internalType": "uint256",
          "name": "",
          "type": "uint256"
        }
      ],
      "stateMutability": "view",
      "type": "function"
    },
    {
      "inputs": [
        {
          "internalType": "uint256",
          "name": "",
          "type": "uint256"
        }
      ],
      "name": "productsMap",
      "outputs": [
        {
          "internalType": "uint256",
          "name": "code",
          "type": "uint256"
        },
        {
          "internalType": "uint256",
          "name": "startingPrice",
          "type": "uint256"
        },
        {
          "internalType": "bool",
          "name": "exists",
          "type": "bool"
        }
      ],
      "stateMutability": "view",
      "type": "function"
    },
    {
      "inputs": [
        {
          "internalType": "uint256",
          "name": "start",
          "type": "uint256"
        },
        {
          "internalType": "uint256",
          "name": "end",
          "type": "uint256"
        }
      ],
      "name": "setAuctionTiming",
      "outputs": [],
      "stateMutability": "nonpayable",
      "type": "function"
    },
    {
      "inputs": [],
      "name": "startAuction",
      "outputs": [],
      "stateMutability": "nonpayable",
      "type": "function"
    },
    {
      "inputs": [
        {
          "internalType": "address",
          "name": "toBeBuyer",
          "type": "address"
        }
      ],
      "name": "unauthorize",
      "outputs": [],
      "stateMutability": "nonpayable",
      "type": "function"
    },
    {
      "inputs": [],
      "name": "withdraw",
      "outputs": [],
      "stateMutability": "nonpayable",
      "type": "function"
    },
    {
      "stateMutability": "payable",
      "type": "receive"
    }
  ],
  "bytecode": "0x608060405260008060016101000a81548160ff021916908360028111156100295761002861015f565b5b02179055506003600155620f4240600255600060085534801561004b57600080fd5b50604051613a69380380613a69833981810160405281019061006d91906101b8565b806000806101000a81548160ff021916908360018111156100915761009061015f565b5b021790555033600060026101000a81548173ffffffffffffffffffffffffffffffffffffffff021916908373ffffffffffffffffffffffffffffffffffffffff1602179055506107086006819055506001600360008060029054906101000a900473ffffffffffffffffffffffffffffffffffffffff1673ffffffffffffffffffffffffffffffffffffffff1673ffffffffffffffffffffffffffffffffffffffff16815260200190815260200160002060006101000a81548160ff021916908315150217905550506101e5565b7f4e487b7100000000000000000000000000000000000000000000000000000000600052602160045260246000fd5b600080fd5b600281106101a057600080fd5b50565b6000815190506101b281610193565b92915050565b6000602082840312156101ce576101cd61018e565b5b60006101dc848285016101a3565b91505092915050565b613875806101f46000396000f3fe60806040526004361061010d5760003560e01c806377dec24c116100955780638f288644116100645780638f28864414610346578063b6a5d7de14610383578063b9b48595146103ac578063df15c37e146103e9578063f0b37c041461041457610114565b806377dec24c14610274578063825ae97e146102b357806387e06e5e146102de5780638da5cb5b1461031b57610114565b8063454a2ab3116100dc578063454a2ab3146101ad5780634c738909146101c95780635b0ba29b146101f457806369b2643d1461021d5780636b64c7691461025d57610114565b80630471b94b14610119578063378252f2146101425780633c7a1e7d146101595780633ccfd60b1461019657610114565b3661011457005b600080fd5b34801561012557600080fd5b50610140600480360381019061013b9190612e1d565b61043d565b005b34801561014e57600080fd5b506101576104ee565b005b34801561016557600080fd5b50610180600480360381019061017b9190612ece565b61067a565b60405161018d9190612f1d565b60405180910390f35b3480156101a257600080fd5b506101ab6107fc565b005b6101c760048036038101906101c29190612f38565b610a98565b005b3480156101d557600080fd5b506101de61124f565b6040516101eb9190612f1d565b60405180910390f35b34801561020057600080fd5b5061021b60048036038101906102169190612f65565b611320565b005b34801561022957600080fd5b50610244600480360381019061023f9190612ece565b611447565b6040516102549493929190612fc3565b60405180910390f35b34801561026957600080fd5b506102726114b1565b005b34801561028057600080fd5b5061029b60048036038101906102969190612f38565b61163d565b6040516102aa93929190613008565b60405180910390f35b3480156102bf57600080fd5b506102c8611674565b6040516102d59190612f1d565b60405180910390f35b3480156102ea57600080fd5b5061030560048036038101906103009190612f38565b61167a565b6040516103129190612f1d565b60405180910390f35b34801561032757600080fd5b5061033061169e565b60405161033d919061303f565b60405180910390f35b34801561035257600080fd5b5061036d60048036038101906103689190612f38565b6116c4565b60405161037a9190612f1d565b60405180910390f35b34801561038f57600080fd5b506103aa60048036038101906103a5919061305a565b6117cb565b005b3480156103b857600080fd5b506103d360048036038101906103ce919061305a565b611937565b6040516103e09190613087565b60405180910390f35b3480156103f557600080fd5b506103fe611957565b60405161040b9190613132565b60405180910390f35b34801561042057600080fd5b5061043b6004803603810190610436919061305a565b611c69565b005b600060029054906101000a900473ffffffffffffffffffffffffffffffffffffffff1673ffffffffffffffffffffffffffffffffffffffff163373ffffffffffffffffffffffffffffffffffffffff16146104c4576040517f11845c2100000000000000000000000000000000000000000000000000000000815260040160405180910390fd5b60001515811515036104df576104da8383611dcc565b6104e9565b6104e883612063565b5b505050565b600060029054906101000a900473ffffffffffffffffffffffffffffffffffffffff1673ffffffffffffffffffffffffffffffffffffffff163373ffffffffffffffffffffffffffffffffffffffff1614610575576040517f11845c2100000000000000000000000000000000000000000000000000000000815260040160405180910390fd5b6000600181111561058957610588613154565b5b60008054906101000a900460ff1660018111156105a9576105a8613154565b5b146105e0576040517fce0e4c9500000000000000000000000000000000000000000000000000000000815260040160405180910390fd5b600160028111156105f4576105f3613154565b5b600060019054906101000a900460ff16600281111561061657610615613154565b5b1461064d576040517fbebc7bdd00000000000000000000000000000000000000000000000000000000815260040160405180910390fd5b6001600060016101000a81548160ff0219169083600281111561067357610672613154565b5b0217905550565b60008060029054906101000a900473ffffffffffffffffffffffffffffffffffffffff1673ffffffffffffffffffffffffffffffffffffffff163373ffffffffffffffffffffffffffffffffffffffff1614610702576040517f11845c2100000000000000000000000000000000000000000000000000000000815260040160405180910390fd5b60011515600a600085815260200190815260200160002060008473ffffffffffffffffffffffffffffffffffffffff1673ffffffffffffffffffffffffffffffffffffffff16815260200190815260200160002060030160009054906101000a900460ff161515146107a0576040517f299fb3c400000000000000000000000000000000000000000000000000000000815260040160405180910390fd5b600a600084815260200190815260200160002060008373ffffffffffffffffffffffffffffffffffffffff1673ffffffffffffffffffffffffffffffffffffffff16815260200190815260200160002060020154905092915050565b60011515600360003373ffffffffffffffffffffffffffffffffffffffff1673ffffffffffffffffffffffffffffffffffffffff16815260200190815260200160002060009054906101000a900460ff16151514610886576040517f11845c2100000000000000000000000000000000000000000000000000000000815260040160405180910390fd5b6000600c60003373ffffffffffffffffffffffffffffffffffffffff1673ffffffffffffffffffffffffffffffffffffffff16815260200190815260200160002054116108ff576040517f927eca2f00000000000000000000000000000000000000000000000000000000815260040160405180910390fd5b6000600d60003373ffffffffffffffffffffffffffffffffffffffff1673ffffffffffffffffffffffffffffffffffffffff168152602001908152602001600020549050600081600c60003373ffffffffffffffffffffffffffffffffffffffff1673ffffffffffffffffffffffffffffffffffffffff1681526020019081526020016000205461099091906131b2565b905080600c60003373ffffffffffffffffffffffffffffffffffffffff1673ffffffffffffffffffffffffffffffffffffffff16815260200190815260200160002060008282546109e191906131b2565b9250508190555060008111610a22576040517f927eca2f00000000000000000000000000000000000000000000000000000000815260040160405180910390fd5b600115153373ffffffffffffffffffffffffffffffffffffffff166108fc839081150290604051600060405180830381858888f19350505050151514610a94576040517ff5ef1ce300000000000000000000000000000000000000000000000000000000815260040160405180910390fd5b5050565b60011515600360003373ffffffffffffffffffffffffffffffffffffffff1673ffffffffffffffffffffffffffffffffffffffff16815260200190815260200160002060009054906101000a900460ff16151514610b22576040517f11845c2100000000000000000000000000000000000000000000000000000000815260040160405180910390fd5b600180811115610b3557610b34613154565b5b60008054906101000a900460ff166001811115610b5557610b54613154565b5b03610bd5576004544211610b95576040517fbebc7bdd00000000000000000000000000000000000000000000000000000000815260040160405180910390fd5b6005544210610bd0576040517f3e6f774700000000000000000000000000000000000000000000000000000000815260040160405180910390fd5b610c7d565b60006001811115610be957610be8613154565b5b60008054906101000a900460ff166001811115610c0957610c08613154565b5b03610c7c5760016002811115610c2257610c21613154565b5b600060019054906101000a900460ff166002811115610c4457610c43613154565b5b14610c7b576040517f85c70dac00000000000000000000000000000000000000000000000000000000815260040160405180910390fd5b5b5b600115156007600083815260200190815260200160002060020160009054906101000a900460ff16151514610cde576040517f299fb3c400000000000000000000000000000000000000000000000000000000815260040160405180910390fd5b6000349050600254811015610d1f576040517f43f79a0600000000000000000000000000000000000000000000000000000000815260040160405180910390fd5b60011515600a600084815260200190815260200160002060003373ffffffffffffffffffffffffffffffffffffffff1673ffffffffffffffffffffffffffffffffffffffff16815260200190815260200160002060030160009054906101000a900460ff16151503610f735780600a600084815260200190815260200160002060003373ffffffffffffffffffffffffffffffffffffffff1673ffffffffffffffffffffffffffffffffffffffff1681526020019081526020016000206002015410610e17576040517fa5e6d6ce00000000000000000000000000000000000000000000000000000000815260040160405180910390fd5b600a600083815260200190815260200160002060003373ffffffffffffffffffffffffffffffffffffffff1673ffffffffffffffffffffffffffffffffffffffff16815260200190815260200160002060020154600d60003373ffffffffffffffffffffffffffffffffffffffff1673ffffffffffffffffffffffffffffffffffffffff1681526020019081526020016000206000828254610eb991906131b2565b9250508190555080600d60003373ffffffffffffffffffffffffffffffffffffffff1673ffffffffffffffffffffffffffffffffffffffff1681526020019081526020016000206000828254610f0f91906131e6565b9250508190555080600a600084815260200190815260200160002060003373ffffffffffffffffffffffffffffffffffffffff1673ffffffffffffffffffffffffffffffffffffffff168152602001908152602001600020600201819055506110d2565b80600d60003373ffffffffffffffffffffffffffffffffffffffff1673ffffffffffffffffffffffffffffffffffffffff1681526020019081526020016000206000828254610fc291906131e6565b9250508190555060405180608001604052803373ffffffffffffffffffffffffffffffffffffffff16815260200183815260200182815260200160011515815250600a600084815260200190815260200160002060003373ffffffffffffffffffffffffffffffffffffffff1673ffffffffffffffffffffffffffffffffffffffff16815260200190815260200160002060008201518160000160006101000a81548173ffffffffffffffffffffffffffffffffffffffff021916908373ffffffffffffffffffffffffffffffffffffffff160217905550602082015181600101556040820151816002015560608201518160030160006101000a81548160ff0219169083151502179055509050505b80600b60008481526020019081526020016000206002015410156111bc5760405180608001604052803373ffffffffffffffffffffffffffffffffffffffff16815260200183815260200182815260200160011515815250600b600084815260200190815260200160002060008201518160000160006101000a81548173ffffffffffffffffffffffffffffffffffffffff021916908373ffffffffffffffffffffffffffffffffffffffff160217905550602082015181600101556040820151816002015560608201518160030160006101000a81548160ff0219169083151502179055509050505b7f0fc69407039e8ba8cdd517e2a4cae9dd19697b0a500ff37a2425c59ebc649b3182826040516111ed92919061321a565b60405180910390a180600c60003373ffffffffffffffffffffffffffffffffffffffff1673ffffffffffffffffffffffffffffffffffffffff168152602001908152602001600020600082825461124491906131e6565b925050819055505050565b600060011515600360003373ffffffffffffffffffffffffffffffffffffffff1673ffffffffffffffffffffffffffffffffffffffff16815260200190815260200160002060009054906101000a900460ff161515146112db576040517f11845c2100000000000000000000000000000000000000000000000000000000815260040160405180910390fd5b600c60003373ffffffffffffffffffffffffffffffffffffffff1673ffffffffffffffffffffffffffffffffffffffff16815260200190815260200160002054905090565b600060029054906101000a900473ffffffffffffffffffffffffffffffffffffffff1673ffffffffffffffffffffffffffffffffffffffff163373ffffffffffffffffffffffffffffffffffffffff16146113a7576040517f11845c2100000000000000000000000000000000000000000000000000000000815260040160405180910390fd5b6001808111156113ba576113b9613154565b5b60008054906101000a900460ff1660018111156113da576113d9613154565b5b1480156113ff575080821080156113fe575060065482826113fb91906131b2565b10155b5b611435576040517fa1056f7900000000000000000000000000000000000000000000000000000000815260040160405180910390fd5b81600481905550806005819055505050565b600a602052816000526040600020602052806000526040600020600091509150508060000160009054906101000a900473ffffffffffffffffffffffffffffffffffffffff16908060010154908060020154908060030160009054906101000a900460ff16905084565b600060029054906101000a900473ffffffffffffffffffffffffffffffffffffffff1673ffffffffffffffffffffffffffffffffffffffff163373ffffffffffffffffffffffffffffffffffffffff1614611538576040517f11845c2100000000000000000000000000000000000000000000000000000000815260040160405180910390fd5b6000600181111561154c5761154b613154565b5b60008054906101000a900460ff16600181111561156c5761156b613154565b5b146115a3576040517fce0e4c9500000000000000000000000000000000000000000000000000000000815260040160405180910390fd5b600060028111156115b7576115b6613154565b5b600060019054906101000a900460ff1660028111156115d9576115d8613154565b5b14611610576040517fcd7aae3200000000000000000000000000000000000000000000000000000000815260040160405180910390fd5b6001600060016101000a81548160ff0219169083600281111561163657611635613154565b5b0217905550565b60076020528060005260406000206000915090508060000154908060010154908060020160009054906101000a900460ff16905083565b60085481565b6009818154811061168a57600080fd5b906000526020600020016000915090505481565b600060029054906101000a900473ffffffffffffffffffffffffffffffffffffffff1681565b60008060029054906101000a900473ffffffffffffffffffffffffffffffffffffffff1673ffffffffffffffffffffffffffffffffffffffff163373ffffffffffffffffffffffffffffffffffffffff161461174c576040517f11845c2100000000000000000000000000000000000000000000000000000000815260040160405180910390fd5b60011515600b600084815260200190815260200160002060030160009054906101000a900460ff161515146117ad576040517f299fb3c400000000000000000000000000000000000000000000000000000000815260040160405180910390fd5b600b6000838152602001908152602001600020600201549050919050565b600060029054906101000a900473ffffffffffffffffffffffffffffffffffffffff1673ffffffffffffffffffffffffffffffffffffffff163373ffffffffffffffffffffffffffffffffffffffff1614611852576040517f11845c2100000000000000000000000000000000000000000000000000000000815260040160405180910390fd5b60001515600360008373ffffffffffffffffffffffffffffffffffffffff1673ffffffffffffffffffffffffffffffffffffffff16815260200190815260200160002060009054906101000a900460ff161515146118dc576040517fd61d68cc00000000000000000000000000000000000000000000000000000000815260040160405180910390fd5b6001600360008373ffffffffffffffffffffffffffffffffffffffff1673ffffffffffffffffffffffffffffffffffffffff16815260200190815260200160002060006101000a81548160ff02191690831515021790555050565b60036020528060005260406000206000915054906101000a900460ff1681565b606060011515600360003373ffffffffffffffffffffffffffffffffffffffff1673ffffffffffffffffffffffffffffffffffffffff16815260200190815260200160002060009054906101000a900460ff161515146119e3576040517f11845c2100000000000000000000000000000000000000000000000000000000815260040160405180910390fd5b6005544211611a1e576040517f2875c00600000000000000000000000000000000000000000000000000000000815260040160405180910390fd5b611a26612d90565b611a2f816123a8565b905060005b600980549050811015611c525760011515600b600060098481548110611a5d57611a5c613243565b5b9060005260206000200154815260200190815260200160002060030160009054906101000a900460ff16151503611c4557611a97826123e1565b9150611b176040518060400160405280600b81526020017f70726f64756374436f6465000000000000000000000000000000000000000000815250600b600060098581548110611aea57611ae9613243565b5b90600052602060002001548152602001908152602001600020600101548461241a9092919063ffffffff16565b9150611b976040518060400160405280600681526020017f616d6f756e740000000000000000000000000000000000000000000000000000815250600b600060098581548110611b6a57611b69613243565b5b90600052602060002001548152602001908152602001600020600201548461241a9092919063ffffffff16565b9150611c376040518060400160405280600681526020017f77696e6e65720000000000000000000000000000000000000000000000000000815250600b600060098581548110611bea57611be9613243565b5b9060005260206000200154815260200190815260200160002060000160009054906101000a900473ffffffffffffffffffffffffffffffffffffffff16846124e39092919063ffffffff16565b9150611c42826125ac565b91505b8080600101915050611a34565b50611c5c816125e5565b9050806020015191505090565b600060029054906101000a900473ffffffffffffffffffffffffffffffffffffffff1673ffffffffffffffffffffffffffffffffffffffff163373ffffffffffffffffffffffffffffffffffffffff1614611cf0576040517f11845c2100000000000000000000000000000000000000000000000000000000815260040160405180910390fd5b60011515600360008373ffffffffffffffffffffffffffffffffffffffff1673ffffffffffffffffffffffffffffffffffffffff16815260200190815260200160002060009054906101000a900460ff16151514611d7a576040517fc82dde3500000000000000000000000000000000000000000000000000000000815260040160405180910390fd5b600360008273ffffffffffffffffffffffffffffffffffffffff1673ffffffffffffffffffffffffffffffffffffffff16815260200190815260200160002060006101000a81549060ff021916905550565b600180811115611ddf57611dde613154565b5b60008054906101000a900460ff166001811115611dff57611dfe613154565b5b03611e44576004544210611e3f576040517fbebc7bdd00000000000000000000000000000000000000000000000000000000815260040160405180910390fd5b611eec565b60006001811115611e5857611e57613154565b5b60008054906101000a900460ff166001811115611e7857611e77613154565b5b03611eeb5760006002811115611e9157611e90613154565b5b600060019054906101000a900460ff166002811115611eb357611eb2613154565b5b14611eea576040517f0e92065300000000000000000000000000000000000000000000000000000000815260040160405180910390fd5b5b5b60015460098054905010611f2c576040517f3153fe7000000000000000000000000000000000000000000000000000000000815260040160405180910390fd5b60008211611f66576040517f8463852800000000000000000000000000000000000000000000000000000000815260040160405180910390fd5b600115156007600084815260200190815260200160002060020160009054906101000a900460ff16151503611fb55780600760008481526020019081526020016000206001018190555061205f565b60405180606001604052808381526020018281526020016001151581525060076000848152602001908152602001600020600082015181600001556020820151816001015560408201518160020160006101000a81548160ff02191690831515021790555090505060098290806001815401808255809150506001900390600052602060002001600090919091909150556008600081548092919061205990613272565b91905055505b5050565b60018081111561207657612075613154565b5b60008054906101000a900460ff16600181111561209657612095613154565b5b036120db5760045442106120d6576040517fbebc7bdd00000000000000000000000000000000000000000000000000000000815260040160405180910390fd5b612183565b600060018111156120ef576120ee613154565b5b60008054906101000a900460ff16600181111561210f5761210e613154565b5b03612182576000600281111561212857612127613154565b5b600060019054906101000a900460ff16600281111561214a57612149613154565b5b14612181576040517f0e92065300000000000000000000000000000000000000000000000000000000815260040160405180910390fd5b5b5b600115156007600083815260200190815260200160002060020160009054906101000a900460ff161515146121e4576040517f299fb3c400000000000000000000000000000000000000000000000000000000815260040160405180910390fd5b6000811161221e576040517f8463852800000000000000000000000000000000000000000000000000000000815260040160405180910390fd5b600160098054905003612255576000600960008154811061224257612241613243565b5b9060005260206000200181905550612353565b60005b60098054905081101561235157816009828154811061227a57612279613243565b5b906000526020600020015414612344576000600960016009805490506122a091906131b2565b815481106122b1576122b0613243565b5b906000526020600020015490506000600960016009805490506122d491906131b2565b815481106122e5576122e4613243565b5b9060005260206000200181905550806009838154811061230857612307613243565b5b90600052602060002001819055506009805480612328576123276132ba565b5b6001900381819060005260206000200160009055905550612351565b8080600101915050612258565b505b6007600082815260200190815260200160002060008082016000905560018201600090556002820160006101000a81549060ff02191690555050600860008154809291906123a0906132e9565b919050555050565b6123b0612d90565b6123da827f5b0000000000000000000000000000000000000000000000000000000000000061261e565b9050919050565b6123e9612d90565b612413827f7b0000000000000000000000000000000000000000000000000000000000000061261e565b9050919050565b612422612d90565b60008460000151121561248e5783602001517f2c000000000000000000000000000000000000000000000000000000000000008461245f85612706565b6040516020016124729493929190613433565b60405160208183030381529060405284602001819052506124c7565b83602001518361249d84612706565b6040516020016124af9392919061348b565b60405160208183030381529060405284602001819052505b6124d08461287f565b8460000181815250508390509392505050565b6124eb612d90565b6000846000015112156125575783602001517f2c000000000000000000000000000000000000000000000000000000000000008461252885612894565b60405160200161253b949392919061351e565b6040516020818303038152906040528460200181905250612590565b83602001518361256684612894565b60405160200161257893929190613581565b60405160208183030381529060405284602001819052505b6125998461287f565b8460000181815250508390509392505050565b6125b4612d90565b6125de827f7d00000000000000000000000000000000000000000000000000000000000000612ce8565b9050919050565b6125ed612d90565b612617827f5d00000000000000000000000000000000000000000000000000000000000000612ce8565b9050919050565b612626612d90565b6000836000015112156126885782602001517f2c000000000000000000000000000000000000000000000000000000000000008360405160200161266c939291906135d3565b60405160208183030381529060405283602001819052506126b7565b82602001518260405160200161269f92919061360c565b60405160208183030381529060405283602001819052505b7f7fffffffffffffffffffffffffffffffffffffffffffffffffffffffffffffff8360000181815116915081815250508260000180518091906126f99061363e565b8152505082905092915050565b60606000820361274d576040518060400160405280600181526020017f3000000000000000000000000000000000000000000000000000000000000000815250905061287a565b600082905060005b6000821461277f57808061276890613272565b915050600a8261277891906136b5565b9150612755565b60008167ffffffffffffffff81111561279b5761279a6136e6565b5b6040519080825280601f01601f1916602001820160405280156127cd5781602001600182028036833780820191505090505b50905060008290505b6000861461287257600a80876127ec91906136b5565b6127f69190613715565b8661280191906131b2565b603061280d9190613764565b60f81b828261281b906132e9565b9250828151811061282f5761282e613243565b5b60200101907effffffffffffffffffffffffffffffffffffffffffffffffffffffffffffff1916908160001a905350600a8661286b91906136b5565b95506127d6565b819450505050505b919050565b600060ff6001901b8260000151179050919050565b60606000602867ffffffffffffffff8111156128b3576128b26136e6565b5b6040519080825280601f01601f1916602001820160405280156128e55781602001600182028036833780820191505090505b509050600083905060005b60288110156129bf577f3031323334353637383961626364656600000000000000000000000000000000600f831673ffffffffffffffffffffffffffffffffffffffff166010811061294557612944613243565b5b1a60f81b8382602761295791906131b2565b8151811061296857612967613243565b5b60200101907effffffffffffffffffffffffffffffffffffffffffffffffffffffffffffff1916908160001a90535060048273ffffffffffffffffffffffffffffffffffffffff16901c91508060010190506128f0565b506000826040516020016129d391906137e0565b6040516020818303038152906040528051906020012090506000602a67ffffffffffffffff811115612a0857612a076136e6565b5b6040519080825280601f01601f191660200182016040528015612a3a5781602001600182028036833780820191505090505b5090507f300000000000000000000000000000000000000000000000000000000000000081600081518110612a7257612a71613243565b5b60200101907effffffffffffffffffffffffffffffffffffffffffffffffffffffffffffff1916908160001a9053507f780000000000000000000000000000000000000000000000000000000000000081600181518110612ad657612ad5613243565b5b60200101907effffffffffffffffffffffffffffffffffffffffffffffffffffffffffffff1916908160001a905350600086905060008360601c90506000602990505b6001811115612cba576000600f831673ffffffffffffffffffffffffffffffffffffffff1690506007811115612be0577f3031323334353637383941424344454600000000000000000000000000000000600f851673ffffffffffffffffffffffffffffffffffffffff1660108110612b9557612b94613243565b5b1a60f81b858381518110612bac57612bab613243565b5b60200101907effffffffffffffffffffffffffffffffffffffffffffffffffffffffffffff1916908160001a905350612c73565b7f3031323334353637383961626364656600000000000000000000000000000000600f851673ffffffffffffffffffffffffffffffffffffffff1660108110612c2c57612c2b613243565b5b1a60f81b858381518110612c4357612c42613243565b5b60200101907effffffffffffffffffffffffffffffffffffffffffffffffffffffffffffff1916908160001a9053505b60048473ffffffffffffffffffffffffffffffffffffffff16901c935060048373ffffffffffffffffffffffffffffffffffffffff16901c92508160019003915050612b19565b5082604051602001612ccc91906137e0565b6040516020818303038152906040529650505050505050919050565b612cf0612d90565b826020015182604051602001612d0792919061360c565b6040516020818303038152906040528360200181905250612d278361287f565b8360000181815250506000612d3b84612d60565b14612d5757826000018051809190612d52906137f7565b815250505b82905092915050565b60007f7fffffffffffffffffffffffffffffffffffffffffffffffffffffffffffffff8260000151169050919050565b604051806040016040528060008152602001606081525090565b600080fd5b6000819050919050565b612dc281612daf565b8114612dcd57600080fd5b50565b600081359050612ddf81612db9565b92915050565b60008115159050919050565b612dfa81612de5565b8114612e0557600080fd5b50565b600081359050612e1781612df1565b92915050565b600080600060608486031215612e3657612e35612daa565b5b6000612e4486828701612dd0565b9350506020612e5586828701612dd0565b9250506040612e6686828701612e08565b9150509250925092565b600073ffffffffffffffffffffffffffffffffffffffff82169050919050565b6000612e9b82612e70565b9050919050565b612eab81612e90565b8114612eb657600080fd5b50565b600081359050612ec881612ea2565b92915050565b60008060408385031215612ee557612ee4612daa565b5b6000612ef385828601612dd0565b9250506020612f0485828601612eb9565b9150509250929050565b612f1781612daf565b82525050565b6000602082019050612f326000830184612f0e565b92915050565b600060208284031215612f4e57612f4d612daa565b5b6000612f5c84828501612dd0565b91505092915050565b60008060408385031215612f7c57612f7b612daa565b5b6000612f8a85828601612dd0565b9250506020612f9b85828601612dd0565b9150509250929050565b612fae81612e90565b82525050565b612fbd81612de5565b82525050565b6000608082019050612fd86000830187612fa5565b612fe56020830186612f0e565b612ff26040830185612f0e565b612fff6060830184612fb4565b95945050505050565b600060608201905061301d6000830186612f0e565b61302a6020830185612f0e565b6130376040830184612fb4565b949350505050565b60006020820190506130546000830184612fa5565b92915050565b6000602082840312156130705761306f612daa565b5b600061307e84828501612eb9565b91505092915050565b600060208201905061309c6000830184612fb4565b92915050565b600081519050919050565b600082825260208201905092915050565b60005b838110156130dc5780820151818401526020810190506130c1565b60008484015250505050565b6000601f19601f8301169050919050565b6000613104826130a2565b61310e81856130ad565b935061311e8185602086016130be565b613127816130e8565b840191505092915050565b6000602082019050818103600083015261314c81846130f9565b905092915050565b7f4e487b7100000000000000000000000000000000000000000000000000000000600052602160045260246000fd5b7f4e487b7100000000000000000000000000000000000000000000000000000000600052601160045260246000fd5b60006131bd82612daf565b91506131c883612daf565b92508282039050818111156131e0576131df613183565b5b92915050565b60006131f182612daf565b91506131fc83612daf565b925082820190508082111561321457613213613183565b5b92915050565b600060408201905061322f6000830185612f0e565b61323c6020830184612f0e565b9392505050565b7f4e487b7100000000000000000000000000000000000000000000000000000000600052603260045260246000fd5b600061327d82612daf565b91507fffffffffffffffffffffffffffffffffffffffffffffffffffffffffffffffff82036132af576132ae613183565b5b600182019050919050565b7f4e487b7100000000000000000000000000000000000000000000000000000000600052603160045260246000fd5b60006132f482612daf565b91506000820361330757613306613183565b5b600182039050919050565b600081905092915050565b6000613328826130a2565b6133328185613312565b93506133428185602086016130be565b80840191505092915050565b60007fff0000000000000000000000000000000000000000000000000000000000000082169050919050565b6000819050919050565b6133956133908261334e565b61337a565b82525050565b7f2200000000000000000000000000000000000000000000000000000000000000600082015250565b60006133d1600183613312565b91506133dc8261339b565b600182019050919050565b7f223a200000000000000000000000000000000000000000000000000000000000600082015250565b600061341d600383613312565b9150613428826133e7565b600382019050919050565b600061343f828761331d565b915061344b8286613384565b60018201915061345a826133c4565b9150613466828561331d565b915061347182613410565b915061347d828461331d565b915081905095945050505050565b6000613497828661331d565b91506134a2826133c4565b91506134ae828561331d565b91506134b982613410565b91506134c5828461331d565b9150819050949350505050565b7f223a202200000000000000000000000000000000000000000000000000000000600082015250565b6000613508600483613312565b9150613513826134d2565b600482019050919050565b600061352a828761331d565b91506135368286613384565b600182019150613545826133c4565b9150613551828561331d565b915061355c826134fb565b9150613568828461331d565b9150613573826133c4565b915081905095945050505050565b600061358d828661331d565b9150613598826133c4565b91506135a4828561331d565b91506135af826134fb565b91506135bb828461331d565b91506135c6826133c4565b9150819050949350505050565b60006135df828661331d565b91506135eb8285613384565b6001820191506135fb8284613384565b600182019150819050949350505050565b6000613618828561331d565b91506136248284613384565b6001820191508190509392505050565b6000819050919050565b600061364982613634565b91507f7fffffffffffffffffffffffffffffffffffffffffffffffffffffffffffffff820361367b5761367a613183565b5b600182019050919050565b7f4e487b7100000000000000000000000000000000000000000000000000000000600052601260045260246000fd5b60006136c082612daf565b91506136cb83612daf565b9250826136db576136da613686565b5b828204905092915050565b7f4e487b7100000000000000000000000000000000000000000000000000000000600052604160045260246000fd5b600061372082612daf565b915061372b83612daf565b925082820261373981612daf565b915082820484148315176137505761374f613183565b5b5092915050565b600060ff82169050919050565b600061376f82613757565b915061377a83613757565b9250828201905060ff81111561379357613792613183565b5b92915050565b600081519050919050565b600081905092915050565b60006137ba82613799565b6137c481856137a4565b93506137d48185602086016130be565b80840191505092915050565b60006137ec82846137af565b915081905092915050565b600061380282613634565b91507f8000000000000000000000000000000000000000000000000000000000000000820361383457613833613183565b5b60018203905091905056fea26469706673582212202b1ad48e64f112f837ed6ad50299bdf34f5721632d01ca16263407a49ef8fd6c64736f6c634300081c0033",
  "linkReferences": {},
  "deployedLinkReferences": {}
}