{
  "_format": "hh-sol-artifact-1",
  "contractName": "Auction",
  "sourceName": "contracts/auction.sol",
  "abi": [
    {
      "inputs": [],
      "stateMutability": "nonpayable",
      "type": "constructor"
    },
    {
      "inputs": [
        {
          "internalType": "address",
          "name": "",
          "type": "address"
        }
      ],
      "name": "allowedBuyers",
      "outputs": [
        {
          "internalType": "bool",
          "name": "",
          "type": "bool"
        }
      ],
      "stateMutability": "view",
      "type": "function"
    },
    {
      "inputs": [
        {
          "internalType": "address",
          "name": "toBeBuyer",
          "type": "address"
        }
      ],
      "name": "authorize",
      "outputs": [],
      "stateMutability": "nonpayable",
      "type": "function"
    },
    {
      "inputs": [
        {
          "internalType": "uint256",
          "name": "productCode",
          "type": "uint256"
        },
        {
          "internalType": "uint256",
          "name": "amount",
          "type": "uint256"
        }
      ],
      "name": "bid",
      "outputs": [
        {
          "internalType": "bool",
          "name": "",
          "type": "bool"
        }
      ],
      "stateMutability": "nonpayable",
      "type": "function"
    },
    {
      "inputs": [
        {
          "internalType": "uint256",
          "name": "",
          "type": "uint256"
        },
        {
          "internalType": "address",
          "name": "",
          "type": "address"
        }
      ],
      "name": "currentBids",
      "outputs": [
        {
          "internalType": "address",
          "name": "buyer",
          "type": "address"
        },
        {
          "internalType": "uint256",
          "name": "productCode",
          "type": "uint256"
        },
        {
          "internalType": "uint256",
          "name": "amount",
          "type": "uint256"
        },
        {
          "internalType": "bool",
          "name": "put",
          "type": "bool"
        }
      ],
      "stateMutability": "view",
      "type": "function"
    },
    {
      "inputs": [
        {
          "internalType": "uint256",
          "name": "productCode",
          "type": "uint256"
        },
        {
          "internalType": "address",
          "name": "bidderAddress",
          "type": "address"
        }
      ],
      "name": "getCurrentBids",
      "outputs": [
        {
          "internalType": "uint256",
          "name": "",
          "type": "uint256"
        }
      ],
      "stateMutability": "view",
      "type": "function"
    },
    {
      "inputs": [
        {
          "internalType": "uint256",
          "name": "productCode",
          "type": "uint256"
        }
      ],
      "name": "getHighestBid",
      "outputs": [
        {
          "internalType": "uint256",
          "name": "",
          "type": "uint256"
        }
      ],
      "stateMutability": "view",
      "type": "function"
    },
    {
      "inputs": [],
      "name": "getWinners",
      "outputs": [
        {
          "internalType": "string",
          "name": "",
          "type": "string"
        }
      ],
      "stateMutability": "view",
      "type": "function"
    },
    {
      "inputs": [],
      "name": "liveProductsCount",
      "outputs": [
        {
          "internalType": "uint256",
          "name": "",
          "type": "uint256"
        }
      ],
      "stateMutability": "view",
      "type": "function"
    },
    {
      "inputs": [],
      "name": "owner",
      "outputs": [
        {
          "internalType": "address",
          "name": "",
          "type": "address"
        }
      ],
      "stateMutability": "view",
      "type": "function"
    },
    {
      "inputs": [
        {
          "internalType": "uint256",
          "name": "productCode",
          "type": "uint256"
        },
        {
          "internalType": "uint256",
          "name": "startingBidPrice",
          "type": "uint256"
        },
        {
          "internalType": "bool",
          "name": "isRemove",
          "type": "bool"
        }
      ],
      "name": "product",
      "outputs": [],
      "stateMutability": "nonpayable",
      "type": "function"
    },
    {
      "inputs": [
        {
          "internalType": "uint256",
          "name": "",
          "type": "uint256"
        }
      ],
      "name": "productsKeys",
      "outputs": [
        {
          "internalType": "uint256",
          "name": "",
          "type": "uint256"
        }
      ],
      "stateMutability": "view",
      "type": "function"
    },
    {
      "inputs": [
        {
          "internalType": "uint256",
          "name": "",
          "type": "uint256"
        }
      ],
      "name": "productsMap",
      "outputs": [
        {
          "internalType": "uint256",
          "name": "code",
          "type": "uint256"
        },
        {
          "internalType": "uint256",
          "name": "startingPrice",
          "type": "uint256"
        },
        {
          "internalType": "bool",
          "name": "exists",
          "type": "bool"
        }
      ],
      "stateMutability": "view",
      "type": "function"
    },
    {
      "inputs": [
        {
          "internalType": "uint256",
          "name": "start",
          "type": "uint256"
        },
        {
          "internalType": "uint256",
          "name": "end",
          "type": "uint256"
        }
      ],
      "name": "setAuctionTiming",
      "outputs": [],
      "stateMutability": "nonpayable",
      "type": "function"
    },
    {
      "inputs": [
        {
          "internalType": "address",
          "name": "toBeBuyer",
          "type": "address"
        }
      ],
      "name": "unauthorize",
      "outputs": [],
      "stateMutability": "nonpayable",
      "type": "function"
    }
  ],
  "bytecode": "0x6080604052600360015560006002556000600855348015601e57600080fd5b50336000806101000a81548173ffffffffffffffffffffffffffffffffffffffff021916908373ffffffffffffffffffffffffffffffffffffffff1602179055506107086006819055506132b1806100776000396000f3fe608060405234801561001057600080fd5b50600436106100ea5760003560e01c806387e06e5e1161008c578063b6a5d7de11610066578063b6a5d7de14610288578063b9b48595146102a4578063df15c37e146102d4578063f0b37c04146102f2576100ea565b806387e06e5e1461020a5780638da5cb5b1461023a5780638f28864414610258576100ea565b80635b0ba29b116100c85780635b0ba29b1461016b57806369b2643d1461018757806377dec24c146101ba578063825ae97e146101ec576100ea565b80630471b94b146100ef5780633c7a1e7d1461010b578063598647f81461013b575b600080fd5b610109600480360381019061010491906121ff565b61030e565b005b610125600480360381019061012091906122b0565b6103c6565b60405161013291906122ff565b60405180910390f35b6101556004803603810190610150919061231a565b61055a565b6040516101629190612369565b60405180910390f35b6101856004803603810190610180919061231a565b610a7d565b005b6101a1600480360381019061019c91906122b0565b610bba565b6040516101b19493929190612393565b60405180910390f35b6101d460048036038101906101cf91906123d8565b610c24565b6040516101e393929190612405565b60405180910390f35b6101f4610c5b565b60405161020191906122ff565b60405180910390f35b610224600480360381019061021f91906123d8565b610c61565b60405161023191906122ff565b60405180910390f35b610242610c85565b60405161024f919061243c565b60405180910390f35b610272600480360381019061026d91906123d8565b610ca9565b60405161027f91906122ff565b60405180910390f35b6102a2600480360381019061029d9190612457565b610dc2565b005b6102be60048036038101906102b99190612457565b610f3e565b6040516102cb9190612369565b60405180910390f35b6102dc610f5e565b6040516102e99190612514565b60405180910390f35b61030c60048036038101906103079190612457565b6111ef565b005b60008054906101000a900473ffffffffffffffffffffffffffffffffffffffff1673ffffffffffffffffffffffffffffffffffffffff163373ffffffffffffffffffffffffffffffffffffffff161461039c576040517f08c379a000000000000000000000000000000000000000000000000000000000815260040161039390612582565b60405180910390fd5b60001515811515036103b7576103b28383611342565b6103c1565b6103c08361150f565b5b505050565b60008060009054906101000a900473ffffffffffffffffffffffffffffffffffffffff1673ffffffffffffffffffffffffffffffffffffffff163373ffffffffffffffffffffffffffffffffffffffff1614610457576040517f08c379a000000000000000000000000000000000000000000000000000000000815260040161044e90612582565b60405180910390fd5b60011515600a600085815260200190815260200160002060008473ffffffffffffffffffffffffffffffffffffffff1673ffffffffffffffffffffffffffffffffffffffff16815260200190815260200160002060030160009054906101000a900460ff161515146104fe576040517f08c379a00000000000000000000000000000000000000000000000000000000081526004016104f5906125ee565b60405180910390fd5b600a600084815260200190815260200160002060008373ffffffffffffffffffffffffffffffffffffffff1673ffffffffffffffffffffffffffffffffffffffff16815260200190815260200160002060020154905092915050565b600060011515600360003373ffffffffffffffffffffffffffffffffffffffff1673ffffffffffffffffffffffffffffffffffffffff16815260200190815260200160002060009054906101000a900460ff161515146105ef576040517f08c379a00000000000000000000000000000000000000000000000000000000081526004016105e690612582565b60405180910390fd5b6004544211610633576040517f08c379a000000000000000000000000000000000000000000000000000000000815260040161062a9061265a565b60405180910390fd5b6005544210610677576040517f08c379a000000000000000000000000000000000000000000000000000000000815260040161066e906126c6565b60405180910390fd5b600115156007600085815260200190815260200160002060020160009054906101000a900460ff161515146106e1576040517f08c379a00000000000000000000000000000000000000000000000000000000081526004016106d890612732565b60405180910390fd5b600254821015610726576040517f08c379a000000000000000000000000000000000000000000000000000000000815260040161071d9061279e565b60405180910390fd5b60011515600a600085815260200190815260200160002060003373ffffffffffffffffffffffffffffffffffffffff1673ffffffffffffffffffffffffffffffffffffffff16815260200190815260200160002060030160009054906101000a900460ff161515036108845781600a600085815260200190815260200160002060003373ffffffffffffffffffffffffffffffffffffffff1673ffffffffffffffffffffffffffffffffffffffff1681526020019081526020016000206002015410610827576040517f08c379a000000000000000000000000000000000000000000000000000000000815260040161081e9061280a565b60405180910390fd5b81600a600085815260200190815260200160002060003373ffffffffffffffffffffffffffffffffffffffff1673ffffffffffffffffffffffffffffffffffffffff1681526020019081526020016000206002018190555061098d565b60405180608001604052803373ffffffffffffffffffffffffffffffffffffffff16815260200184815260200183815260200160011515815250600a600085815260200190815260200160002060003373ffffffffffffffffffffffffffffffffffffffff1673ffffffffffffffffffffffffffffffffffffffff16815260200190815260200160002060008201518160000160006101000a81548173ffffffffffffffffffffffffffffffffffffffff021916908373ffffffffffffffffffffffffffffffffffffffff160217905550602082015181600101556040820151816002015560608201518160030160006101000a81548160ff0219169083151502179055509050505b81600b6000858152602001908152602001600020600201541015610a775760405180608001604052803373ffffffffffffffffffffffffffffffffffffffff16815260200184815260200183815260200160011515815250600b600085815260200190815260200160002060008201518160000160006101000a81548173ffffffffffffffffffffffffffffffffffffffff021916908373ffffffffffffffffffffffffffffffffffffffff160217905550602082015181600101556040820151816002015560608201518160030160006101000a81548160ff0219169083151502179055509050505b92915050565b60008054906101000a900473ffffffffffffffffffffffffffffffffffffffff1673ffffffffffffffffffffffffffffffffffffffff163373ffffffffffffffffffffffffffffffffffffffff1614610b0b576040517f08c379a0000000000000000000000000000000000000000000000000000000008152600401610b0290612582565b60405180910390fd5b8082108015610b2757506006548282610b249190612859565b10155b610b66576040517f08c379a0000000000000000000000000000000000000000000000000000000008152600401610b5d906128d9565b60405180910390fd5b814210610ba8576040517f08c379a0000000000000000000000000000000000000000000000000000000008152600401610b9f90612945565b60405180910390fd5b81600481905550806005819055505050565b600a602052816000526040600020602052806000526040600020600091509150508060000160009054906101000a900473ffffffffffffffffffffffffffffffffffffffff16908060010154908060020154908060030160009054906101000a900460ff16905084565b60076020528060005260406000206000915090508060000154908060010154908060020160009054906101000a900460ff16905083565b60085481565b60098181548110610c7157600080fd5b906000526020600020016000915090505481565b60008054906101000a900473ffffffffffffffffffffffffffffffffffffffff1681565b60008060009054906101000a900473ffffffffffffffffffffffffffffffffffffffff1673ffffffffffffffffffffffffffffffffffffffff163373ffffffffffffffffffffffffffffffffffffffff1614610d3a576040517f08c379a0000000000000000000000000000000000000000000000000000000008152600401610d3190612582565b60405180910390fd5b60011515600b600084815260200190815260200160002060030160009054906101000a900460ff16151514610da4576040517f08c379a0000000000000000000000000000000000000000000000000000000008152600401610d9b906125ee565b60405180910390fd5b600b6000838152602001908152602001600020600201549050919050565b3373ffffffffffffffffffffffffffffffffffffffff1660008054906101000a900473ffffffffffffffffffffffffffffffffffffffff1673ffffffffffffffffffffffffffffffffffffffff1614610e50576040517f08c379a0000000000000000000000000000000000000000000000000000000008152600401610e4790612582565b60405180910390fd5b60001515600360008373ffffffffffffffffffffffffffffffffffffffff1673ffffffffffffffffffffffffffffffffffffffff16815260200190815260200160002060009054906101000a900460ff16151514610ee3576040517f08c379a0000000000000000000000000000000000000000000000000000000008152600401610eda906129b1565b60405180910390fd5b6001600360008373ffffffffffffffffffffffffffffffffffffffff1673ffffffffffffffffffffffffffffffffffffffff16815260200190815260200160002060006101000a81548160ff02191690831515021790555050565b60036020528060005260406000206000915054906101000a900460ff1681565b60606005544211610fa4576040517f08c379a0000000000000000000000000000000000000000000000000000000008152600401610f9b90612a43565b60405180910390fd5b610fac612172565b610fb58161178a565b905060005b6009805490508110156111d85760011515600b600060098481548110610fe357610fe2612a63565b5b9060005260206000200154815260200190815260200160002060030160009054906101000a900460ff161515036111cb5761101d826117c3565b915061109d6040518060400160405280600b81526020017f70726f64756374436f6465000000000000000000000000000000000000000000815250600b6000600985815481106110705761106f612a63565b5b9060005260206000200154815260200190815260200160002060010154846117fc9092919063ffffffff16565b915061111d6040518060400160405280600681526020017f616d6f756e740000000000000000000000000000000000000000000000000000815250600b6000600985815481106110f0576110ef612a63565b5b9060005260206000200154815260200190815260200160002060020154846117fc9092919063ffffffff16565b91506111bd6040518060400160405280600681526020017f77696e6e65720000000000000000000000000000000000000000000000000000815250600b6000600985815481106111705761116f612a63565b5b9060005260206000200154815260200190815260200160002060000160009054906101000a900473ffffffffffffffffffffffffffffffffffffffff16846118c59092919063ffffffff16565b91506111c88261198e565b91505b8080600101915050610fba565b506111e2816119c7565b9050806020015191505090565b3373ffffffffffffffffffffffffffffffffffffffff168173ffffffffffffffffffffffffffffffffffffffff161461125d576040517f08c379a000000000000000000000000000000000000000000000000000000000815260040161125490612582565b60405180910390fd5b60011515600360008373ffffffffffffffffffffffffffffffffffffffff1673ffffffffffffffffffffffffffffffffffffffff16815260200190815260200160002060009054906101000a900460ff161515146112f0576040517f08c379a00000000000000000000000000000000000000000000000000000000081526004016112e790612ade565b60405180910390fd5b600360008273ffffffffffffffffffffffffffffffffffffffff1673ffffffffffffffffffffffffffffffffffffffff16815260200190815260200160002060006101000a81549060ff021916905550565b6004544210611386576040517f08c379a000000000000000000000000000000000000000000000000000000000815260040161137d90612b4a565b60405180910390fd5b600154600980549050106113cf576040517f08c379a00000000000000000000000000000000000000000000000000000000081526004016113c690612bb6565b60405180910390fd5b60008211611412576040517f08c379a000000000000000000000000000000000000000000000000000000000815260040161140990612c22565b60405180910390fd5b600115156007600084815260200190815260200160002060020160009054906101000a900460ff161515036114615780600760008481526020019081526020016000206001018190555061150b565b60405180606001604052808381526020018281526020016001151581525060076000848152602001908152602001600020600082015181600001556020820151816001015560408201518160020160006101000a81548160ff02191690831515021790555090505060098290806001815401808255809150506001900390600052602060002001600090919091909150556008600081548092919061150590612c42565b91905055505b5050565b6004544210611553576040517f08c379a000000000000000000000000000000000000000000000000000000000815260040161154a90612b4a565b60405180910390fd5b600115156007600083815260200190815260200160002060020160009054906101000a900460ff161515146115bd576040517f08c379a00000000000000000000000000000000000000000000000000000000081526004016115b490612ade565b60405180910390fd5b60008111611600576040517f08c379a00000000000000000000000000000000000000000000000000000000081526004016115f790612cd6565b60405180910390fd5b600160098054905003611637576000600960008154811061162457611623612a63565b5b9060005260206000200181905550611735565b60005b60098054905081101561173357816009828154811061165c5761165b612a63565b5b906000526020600020015414611726576000600960016009805490506116829190612859565b8154811061169357611692612a63565b5b906000526020600020015490506000600960016009805490506116b69190612859565b815481106116c7576116c6612a63565b5b906000526020600020018190555080600983815481106116ea576116e9612a63565b5b9060005260206000200181905550600980548061170a57611709612cf6565b5b6001900381819060005260206000200160009055905550611733565b808060010191505061163a565b505b6007600082815260200190815260200160002060008082016000905560018201600090556002820160006101000a81549060ff021916905550506008600081548092919061178290612d25565b919050555050565b611792612172565b6117bc827f5b00000000000000000000000000000000000000000000000000000000000000611a00565b9050919050565b6117cb612172565b6117f5827f7b00000000000000000000000000000000000000000000000000000000000000611a00565b9050919050565b611804612172565b6000846000015112156118705783602001517f2c000000000000000000000000000000000000000000000000000000000000008461184185611ae8565b6040516020016118549493929190612e6f565b60405160208183030381529060405284602001819052506118a9565b83602001518361187f84611ae8565b60405160200161189193929190612ec7565b60405160208183030381529060405284602001819052505b6118b284611c61565b8460000181815250508390509392505050565b6118cd612172565b6000846000015112156119395783602001517f2c000000000000000000000000000000000000000000000000000000000000008461190a85611c76565b60405160200161191d9493929190612f5a565b6040516020818303038152906040528460200181905250611972565b83602001518361194884611c76565b60405160200161195a93929190612fbd565b60405160208183030381529060405284602001819052505b61197b84611c61565b8460000181815250508390509392505050565b611996612172565b6119c0827f7d000000000000000000000000000000000000000000000000000000000000006120ca565b9050919050565b6119cf612172565b6119f9827f5d000000000000000000000000000000000000000000000000000000000000006120ca565b9050919050565b611a08612172565b600083600001511215611a6a5782602001517f2c0000000000000000000000000000000000000000000000000000000000000083604051602001611a4e9392919061300f565b6040516020818303038152906040528360200181905250611a99565b826020015182604051602001611a81929190613048565b60405160208183030381529060405283602001819052505b7f7fffffffffffffffffffffffffffffffffffffffffffffffffffffffffffffff836000018181511691508181525050826000018051809190611adb9061307a565b8152505082905092915050565b606060008203611b2f576040518060400160405280600181526020017f30000000000000000000000000000000000000000000000000000000000000008152509050611c5c565b600082905060005b60008214611b61578080611b4a90612c42565b915050600a82611b5a91906130f1565b9150611b37565b60008167ffffffffffffffff811115611b7d57611b7c613122565b5b6040519080825280601f01601f191660200182016040528015611baf5781602001600182028036833780820191505090505b50905060008290505b60008614611c5457600a8087611bce91906130f1565b611bd89190613151565b86611be39190612859565b6030611bef91906131a0565b60f81b8282611bfd90612d25565b92508281518110611c1157611c10612a63565b5b60200101907effffffffffffffffffffffffffffffffffffffffffffffffffffffffffffff1916908160001a905350600a86611c4d91906130f1565b9550611bb8565b819450505050505b919050565b600060ff6001901b8260000151179050919050565b60606000602867ffffffffffffffff811115611c9557611c94613122565b5b6040519080825280601f01601f191660200182016040528015611cc75781602001600182028036833780820191505090505b509050600083905060005b6028811015611da1577f3031323334353637383961626364656600000000000000000000000000000000600f831673ffffffffffffffffffffffffffffffffffffffff1660108110611d2757611d26612a63565b5b1a60f81b83826027611d399190612859565b81518110611d4a57611d49612a63565b5b60200101907effffffffffffffffffffffffffffffffffffffffffffffffffffffffffffff1916908160001a90535060048273ffffffffffffffffffffffffffffffffffffffff16901c9150806001019050611cd2565b50600082604051602001611db5919061321c565b6040516020818303038152906040528051906020012090506000602a67ffffffffffffffff811115611dea57611de9613122565b5b6040519080825280601f01601f191660200182016040528015611e1c5781602001600182028036833780820191505090505b5090507f300000000000000000000000000000000000000000000000000000000000000081600081518110611e5457611e53612a63565b5b60200101907effffffffffffffffffffffffffffffffffffffffffffffffffffffffffffff1916908160001a9053507f780000000000000000000000000000000000000000000000000000000000000081600181518110611eb857611eb7612a63565b5b60200101907effffffffffffffffffffffffffffffffffffffffffffffffffffffffffffff1916908160001a905350600086905060008360601c90506000602990505b600181111561209c576000600f831673ffffffffffffffffffffffffffffffffffffffff1690506007811115611fc2577f3031323334353637383941424344454600000000000000000000000000000000600f851673ffffffffffffffffffffffffffffffffffffffff1660108110611f7757611f76612a63565b5b1a60f81b858381518110611f8e57611f8d612a63565b5b60200101907effffffffffffffffffffffffffffffffffffffffffffffffffffffffffffff1916908160001a905350612055565b7f3031323334353637383961626364656600000000000000000000000000000000600f851673ffffffffffffffffffffffffffffffffffffffff166010811061200e5761200d612a63565b5b1a60f81b85838151811061202557612024612a63565b5b60200101907effffffffffffffffffffffffffffffffffffffffffffffffffffffffffffff1916908160001a9053505b60048473ffffffffffffffffffffffffffffffffffffffff16901c935060048373ffffffffffffffffffffffffffffffffffffffff16901c92508160019003915050611efb565b50826040516020016120ae919061321c565b6040516020818303038152906040529650505050505050919050565b6120d2612172565b8260200151826040516020016120e9929190613048565b604051602081830303815290604052836020018190525061210983611c61565b836000018181525050600061211d84612142565b146121395782600001805180919061213490613233565b815250505b82905092915050565b60007f7fffffffffffffffffffffffffffffffffffffffffffffffffffffffffffffff8260000151169050919050565b604051806040016040528060008152602001606081525090565b600080fd5b6000819050919050565b6121a481612191565b81146121af57600080fd5b50565b6000813590506121c18161219b565b92915050565b60008115159050919050565b6121dc816121c7565b81146121e757600080fd5b50565b6000813590506121f9816121d3565b92915050565b6000806000606084860312156122185761221761218c565b5b6000612226868287016121b2565b9350506020612237868287016121b2565b9250506040612248868287016121ea565b9150509250925092565b600073ffffffffffffffffffffffffffffffffffffffff82169050919050565b600061227d82612252565b9050919050565b61228d81612272565b811461229857600080fd5b50565b6000813590506122aa81612284565b92915050565b600080604083850312156122c7576122c661218c565b5b60006122d5858286016121b2565b92505060206122e68582860161229b565b9150509250929050565b6122f981612191565b82525050565b600060208201905061231460008301846122f0565b92915050565b600080604083850312156123315761233061218c565b5b600061233f858286016121b2565b9250506020612350858286016121b2565b9150509250929050565b612363816121c7565b82525050565b600060208201905061237e600083018461235a565b92915050565b61238d81612272565b82525050565b60006080820190506123a86000830187612384565b6123b560208301866122f0565b6123c260408301856122f0565b6123cf606083018461235a565b95945050505050565b6000602082840312156123ee576123ed61218c565b5b60006123fc848285016121b2565b91505092915050565b600060608201905061241a60008301866122f0565b61242760208301856122f0565b612434604083018461235a565b949350505050565b60006020820190506124516000830184612384565b92915050565b60006020828403121561246d5761246c61218c565b5b600061247b8482850161229b565b91505092915050565b600081519050919050565b600082825260208201905092915050565b60005b838110156124be5780820151818401526020810190506124a3565b60008484015250505050565b6000601f19601f8301169050919050565b60006124e682612484565b6124f0818561248f565b93506125008185602086016124a0565b612509816124ca565b840191505092915050565b6000602082019050818103600083015261252e81846124db565b905092915050565b7f464f5242494444454e0000000000000000000000000000000000000000000000600082015250565b600061256c60098361248f565b915061257782612536565b602082019050919050565b6000602082019050818103600083015261259b8161255f565b9050919050565b7f4249445f4e4f545f464f554e4400000000000000000000000000000000000000600082015250565b60006125d8600d8361248f565b91506125e3826125a2565b602082019050919050565b60006020820190508181036000830152612607816125cb565b9050919050565b7f4e4f545f53544152544544000000000000000000000000000000000000000000600082015250565b6000612644600b8361248f565b915061264f8261260e565b602082019050919050565b6000602082019050818103600083015261267381612637565b9050919050565b7f414c52454144595f434c4f534544000000000000000000000000000000000000600082015250565b60006126b0600e8361248f565b91506126bb8261267a565b602082019050919050565b600060208201905081810360008301526126df816126a3565b9050919050565b7f50524f445543545f4e4f545f464f554e44000000000000000000000000000000600082015250565b600061271c60118361248f565b9150612727826126e6565b602082019050919050565b6000602082019050818103600083015261274b8161270f565b9050919050565b7f4249445f544f4f5f4c4f57000000000000000000000000000000000000000000600082015250565b6000612788600b8361248f565b915061279382612752565b602082019050919050565b600060208201905081810360008301526127b78161277b565b9050919050565b7f4249445f4c4f5745525f5448414e5f50524556494f5553000000000000000000600082015250565b60006127f460178361248f565b91506127ff826127be565b602082019050919050565b60006020820190508181036000830152612823816127e7565b9050919050565b7f4e487b7100000000000000000000000000000000000000000000000000000000600052601160045260246000fd5b600061286482612191565b915061286f83612191565b92508282039050818111156128875761288661282a565b5b92915050565b7f4455524154494f4e5f544f4f5f53484f52540000000000000000000000000000600082015250565b60006128c360128361248f565b91506128ce8261288d565b602082019050919050565b600060208201905081810360008301526128f2816128b6565b9050919050565b7f4241445f53544152545f54494d45000000000000000000000000000000000000600082015250565b600061292f600e8361248f565b915061293a826128f9565b602082019050919050565b6000602082019050818103600083015261295e81612922565b9050919050565b7f4455504c49434154450000000000000000000000000000000000000000000000600082015250565b600061299b60098361248f565b91506129a682612965565b602082019050919050565b600060208201905081810360008301526129ca8161298e565b9050919050565b7f77696e6e6572732061726520616e6e6f756e636564206166746572206175637460008201527f696f6e20656e6473000000000000000000000000000000000000000000000000602082015250565b6000612a2d60288361248f565b9150612a38826129d1565b604082019050919050565b60006020820190508181036000830152612a5c81612a20565b9050919050565b7f4e487b7100000000000000000000000000000000000000000000000000000000600052603260045260246000fd5b7f4e4f545f464f554e440000000000000000000000000000000000000000000000600082015250565b6000612ac860098361248f565b9150612ad382612a92565b602082019050919050565b60006020820190508181036000830152612af781612abb565b9050919050565b7f4249445f414c52454144595f5354415254454400000000000000000000000000600082015250565b6000612b3460138361248f565b9150612b3f82612afe565b602082019050919050565b60006020820190508181036000830152612b6381612b27565b9050919050565b7f544f4f5f4d414e595f50524f4455435453000000000000000000000000000000600082015250565b6000612ba060118361248f565b9150612bab82612b6a565b602082019050919050565b60006020820190508181036000830152612bcf81612b93565b9050919050565b7f4241445f50434f44450000000000000000000000000000000000000000000000600082015250565b6000612c0c60098361248f565b9150612c1782612bd6565b602082019050919050565b60006020820190508181036000830152612c3b81612bff565b9050919050565b6000612c4d82612191565b91507fffffffffffffffffffffffffffffffffffffffffffffffffffffffffffffffff8203612c7f57612c7e61282a565b5b600182019050919050565b7f5a45524f5f50434f444500000000000000000000000000000000000000000000600082015250565b6000612cc0600a8361248f565b9150612ccb82612c8a565b602082019050919050565b60006020820190508181036000830152612cef81612cb3565b9050919050565b7f4e487b7100000000000000000000000000000000000000000000000000000000600052603160045260246000fd5b6000612d3082612191565b915060008203612d4357612d4261282a565b5b600182039050919050565b600081905092915050565b6000612d6482612484565b612d6e8185612d4e565b9350612d7e8185602086016124a0565b80840191505092915050565b60007fff0000000000000000000000000000000000000000000000000000000000000082169050919050565b6000819050919050565b612dd1612dcc82612d8a565b612db6565b82525050565b7f2200000000000000000000000000000000000000000000000000000000000000600082015250565b6000612e0d600183612d4e565b9150612e1882612dd7565b600182019050919050565b7f223a200000000000000000000000000000000000000000000000000000000000600082015250565b6000612e59600383612d4e565b9150612e6482612e23565b600382019050919050565b6000612e7b8287612d59565b9150612e878286612dc0565b600182019150612e9682612e00565b9150612ea28285612d59565b9150612ead82612e4c565b9150612eb98284612d59565b915081905095945050505050565b6000612ed38286612d59565b9150612ede82612e00565b9150612eea8285612d59565b9150612ef582612e4c565b9150612f018284612d59565b9150819050949350505050565b7f223a202200000000000000000000000000000000000000000000000000000000600082015250565b6000612f44600483612d4e565b9150612f4f82612f0e565b600482019050919050565b6000612f668287612d59565b9150612f728286612dc0565b600182019150612f8182612e00565b9150612f8d8285612d59565b9150612f9882612f37565b9150612fa48284612d59565b9150612faf82612e00565b915081905095945050505050565b6000612fc98286612d59565b9150612fd482612e00565b9150612fe08285612d59565b9150612feb82612f37565b9150612ff78284612d59565b915061300282612e00565b9150819050949350505050565b600061301b8286612d59565b91506130278285612dc0565b6001820191506130378284612dc0565b600182019150819050949350505050565b60006130548285612d59565b91506130608284612dc0565b6001820191508190509392505050565b6000819050919050565b600061308582613070565b91507f7fffffffffffffffffffffffffffffffffffffffffffffffffffffffffffffff82036130b7576130b661282a565b5b600182019050919050565b7f4e487b7100000000000000000000000000000000000000000000000000000000600052601260045260246000fd5b60006130fc82612191565b915061310783612191565b925082613117576131166130c2565b5b828204905092915050565b7f4e487b7100000000000000000000000000000000000000000000000000000000600052604160045260246000fd5b600061315c82612191565b915061316783612191565b925082820261317581612191565b9150828204841483151761318c5761318b61282a565b5b5092915050565b600060ff82169050919050565b60006131ab82613193565b91506131b683613193565b9250828201905060ff8111156131cf576131ce61282a565b5b92915050565b600081519050919050565b600081905092915050565b60006131f6826131d5565b61320081856131e0565b93506132108185602086016124a0565b80840191505092915050565b600061322882846131eb565b915081905092915050565b600061323e82613070565b91507f800000000000000000000000000000000000000000000000000000000000000082036132705761326f61282a565b5b60018203905091905056fea264697066735822122013ff2375c0db8744f11706ccd6136efa83b2e9731b7964d0a34adb5d2d30c21f64736f6c634300081c0033",
  "linkReferences": {},
  "deployedLinkReferences": {}
}