{
  "_format": "hh-sol-artifact-1",
  "contractName": "Auction",
  "sourceName": "contracts/auction.sol",
  "abi": [
    {
      "inputs": [
        {
          "internalType": "enum ActivationType",
          "name": "_startType",
          "type": "uint8"
        }
      ],
      "stateMutability": "nonpayable",
      "type": "constructor"
    },
    {
      "inputs": [],
      "name": "ErrAuctionCannotBeStarted",
      "type": "error"
    },
    {
      "inputs": [],
      "name": "ErrAuctionClosed",
      "type": "error"
    },
    {
      "inputs": [],
      "name": "ErrAuctionIsManual",
      "type": "error"
    },
    {
      "inputs": [],
      "name": "ErrAuctionIsTemporal",
      "type": "error"
    },
    {
      "inputs": [],
      "name": "ErrAuctionNotActive",
      "type": "error"
    },
    {
      "inputs": [],
      "name": "ErrAuctionNotStarted",
      "type": "error"
    },
    {
      "inputs": [],
      "name": "ErrAuctionNotYetClosed",
      "type": "error"
    },
    {
      "inputs": [],
      "name": "ErrAuctionStarted",
      "type": "error"
    },
    {
      "inputs": [],
      "name": "ErrBadProductCode",
      "type": "error"
    },
    {
      "inputs": [],
      "name": "ErrBidCannotBeLowerThanPrevious",
      "type": "error"
    },
    {
      "inputs": [],
      "name": "ErrBidTooLow",
      "type": "error"
    },
    {
      "inputs": [],
      "name": "ErrBidderNotFound",
      "type": "error"
    },
    {
      "inputs": [],
      "name": "ErrDuplicateBidder",
      "type": "error"
    },
    {
      "inputs": [],
      "name": "ErrDurTooShort",
      "type": "error"
    },
    {
      "inputs": [],
      "name": "ErrForbidden",
      "type": "error"
    },
    {
      "inputs": [],
      "name": "ErrOutOfBalance",
      "type": "error"
    },
    {
      "inputs": [],
      "name": "ErrProductNotFound",
      "type": "error"
    },
    {
      "inputs": [],
      "name": "ErrTooManyProducts",
      "type": "error"
    },
    {
      "inputs": [],
      "name": "ErrWithdrawFailed",
      "type": "error"
    },
    {
      "anonymous": false,
      "inputs": [
        {
          "indexed": false,
          "internalType": "uint256",
          "name": "productCode",
          "type": "uint256"
        },
        {
          "indexed": false,
          "internalType": "uint256",
          "name": "amount",
          "type": "uint256"
        }
      ],
      "name": "BidPlaced",
      "type": "event"
    },
    {
      "inputs": [
        {
          "internalType": "address",
          "name": "",
          "type": "address"
        }
      ],
      "name": "allowedBuyers",
      "outputs": [
        {
          "internalType": "bool",
          "name": "",
          "type": "bool"
        }
      ],
      "stateMutability": "view",
      "type": "function"
    },
    {
      "inputs": [
        {
          "internalType": "address",
          "name": "toBeBuyer",
          "type": "address"
        }
      ],
      "name": "authorize",
      "outputs": [],
      "stateMutability": "nonpayable",
      "type": "function"
    },
    {
      "inputs": [
        {
          "internalType": "uint256",
          "name": "productCode",
          "type": "uint256"
        }
      ],
      "name": "bid",
      "outputs": [],
      "stateMutability": "payable",
      "type": "function"
    },
    {
      "inputs": [
        {
          "internalType": "uint256",
          "name": "productCode",
          "type": "uint256"
        },
        {
          "internalType": "address",
          "name": "bidder",
          "type": "address"
        }
      ],
      "name": "bidAs",
      "outputs": [],
      "stateMutability": "payable",
      "type": "function"
    },
    {
      "inputs": [],
      "name": "closeAuction",
      "outputs": [],
      "stateMutability": "nonpayable",
      "type": "function"
    },
    {
      "inputs": [
        {
          "internalType": "uint256",
          "name": "",
          "type": "uint256"
        },
        {
          "internalType": "address",
          "name": "",
          "type": "address"
        }
      ],
      "name": "currentBids",
      "outputs": [
        {
          "internalType": "address",
          "name": "buyer",
          "type": "address"
        },
        {
          "internalType": "uint256",
          "name": "productCode",
          "type": "uint256"
        },
        {
          "internalType": "uint256",
          "name": "amount",
          "type": "uint256"
        },
        {
          "internalType": "bool",
          "name": "put",
          "type": "bool"
        }
      ],
      "stateMutability": "view",
      "type": "function"
    },
    {
      "inputs": [
        {
          "internalType": "uint256",
          "name": "productCode",
          "type": "uint256"
        },
        {
          "internalType": "address",
          "name": "bidderAddress",
          "type": "address"
        }
      ],
      "name": "getCurrentBids",
      "outputs": [
        {
          "internalType": "uint256",
          "name": "",
          "type": "uint256"
        }
      ],
      "stateMutability": "view",
      "type": "function"
    },
    {
      "inputs": [
        {
          "internalType": "uint256",
          "name": "productCode",
          "type": "uint256"
        }
      ],
      "name": "getHighestBid",
      "outputs": [
        {
          "internalType": "uint256",
          "name": "",
          "type": "uint256"
        }
      ],
      "stateMutability": "view",
      "type": "function"
    },
    {
      "inputs": [],
      "name": "getMyBalance",
      "outputs": [
        {
          "internalType": "uint256",
          "name": "",
          "type": "uint256"
        }
      ],
      "stateMutability": "view",
      "type": "function"
    },
    {
      "inputs": [],
      "name": "getWinners",
      "outputs": [
        {
          "internalType": "string",
          "name": "",
          "type": "string"
        }
      ],
      "stateMutability": "view",
      "type": "function"
    },
    {
      "inputs": [],
      "name": "liveProductsCount",
      "outputs": [
        {
          "internalType": "uint256",
          "name": "",
          "type": "uint256"
        }
      ],
      "stateMutability": "view",
      "type": "function"
    },
    {
      "inputs": [],
      "name": "owner",
      "outputs": [
        {
          "internalType": "address",
          "name": "",
          "type": "address"
        }
      ],
      "stateMutability": "view",
      "type": "function"
    },
    {
      "inputs": [
        {
          "internalType": "uint256",
          "name": "productCode",
          "type": "uint256"
        },
        {
          "internalType": "uint256",
          "name": "startingBidPrice",
          "type": "uint256"
        },
        {
          "internalType": "bool",
          "name": "isRemove",
          "type": "bool"
        }
      ],
      "name": "product",
      "outputs": [],
      "stateMutability": "nonpayable",
      "type": "function"
    },
    {
      "inputs": [
        {
          "internalType": "uint256",
          "name": "",
          "type": "uint256"
        }
      ],
      "name": "productsKeys",
      "outputs": [
        {
          "internalType": "uint256",
          "name": "",
          "type": "uint256"
        }
      ],
      "stateMutability": "view",
      "type": "function"
    },
    {
      "inputs": [
        {
          "internalType": "uint256",
          "name": "",
          "type": "uint256"
        }
      ],
      "name": "productsMap",
      "outputs": [
        {
          "internalType": "uint256",
          "name": "code",
          "type": "uint256"
        },
        {
          "internalType": "uint256",
          "name": "startingPrice",
          "type": "uint256"
        },
        {
          "internalType": "bool",
          "name": "exists",
          "type": "bool"
        }
      ],
      "stateMutability": "view",
      "type": "function"
    },
    {
      "inputs": [
        {
          "internalType": "uint256",
          "name": "start",
          "type": "uint256"
        },
        {
          "internalType": "uint256",
          "name": "end",
          "type": "uint256"
        }
      ],
      "name": "setAuctionTiming",
      "outputs": [],
      "stateMutability": "nonpayable",
      "type": "function"
    },
    {
      "inputs": [],
      "name": "startAuction",
      "outputs": [],
      "stateMutability": "nonpayable",
      "type": "function"
    },
    {
      "inputs": [
        {
          "internalType": "address",
          "name": "toBeBuyer",
          "type": "address"
        }
      ],
      "name": "unauthorize",
      "outputs": [],
      "stateMutability": "nonpayable",
      "type": "function"
    },
    {
      "inputs": [],
      "name": "withdraw",
      "outputs": [],
      "stateMutability": "nonpayable",
      "type": "function"
    },
    {
      "inputs": [
        {
          "internalType": "address",
          "name": "bidder",
          "type": "address"
        }
      ],
      "name": "withdrawAs",
      "outputs": [],
      "stateMutability": "nonpayable",
      "type": "function"
    },
    {
      "stateMutability": "payable",
      "type": "receive"
    }
  ],
  "bytecode": "0x608060405260008060016101000a81548160ff021916908360028111156100295761002861015f565b5b02179055506003600155620f4240600255600060085534801561004b57600080fd5b50604051613d1d380380613d1d833981810160405281019061006d91906101b8565b806000806101000a81548160ff021916908360018111156100915761009061015f565b5b021790555033600060026101000a81548173ffffffffffffffffffffffffffffffffffffffff021916908373ffffffffffffffffffffffffffffffffffffffff1602179055506107086006819055506001600360008060029054906101000a900473ffffffffffffffffffffffffffffffffffffffff1673ffffffffffffffffffffffffffffffffffffffff1673ffffffffffffffffffffffffffffffffffffffff16815260200190815260200160002060006101000a81548160ff021916908315150217905550506101e5565b7f4e487b7100000000000000000000000000000000000000000000000000000000600052602160045260246000fd5b600080fd5b600281106101a057600080fd5b50565b6000815190506101b281610193565b92915050565b6000602082840312156101ce576101cd61018e565b5b60006101dc848285016101a3565b91505092915050565b613b29806101f46000396000f3fe6080604052600436106101235760003560e01c806377dec24c116100a0578063954d4fbd11610064578063954d4fbd146103b5578063b6a5d7de146103de578063b9b4859514610407578063df15c37e14610444578063f0b37c041461046f5761012a565b806377dec24c146102a6578063825ae97e146102e557806387e06e5e146103105780638da5cb5b1461034d5780638f288644146103785761012a565b8063454a2ab3116100e7578063454a2ab3146101df5780634c738909146101fb5780635b0ba29b1461022657806369b2643d1461024f5780636b64c7691461028f5761012a565b80630471b94b1461012f5780630d1f55e314610158578063378252f2146101745780633c7a1e7d1461018b5780633ccfd60b146101c85761012a565b3661012a57005b600080fd5b34801561013b57600080fd5b50610156600480360381019061015191906130d1565b610498565b005b610172600480360381019061016d9190613182565b610549565b005b34801561018057600080fd5b506101896105e1565b005b34801561019757600080fd5b506101b260048036038101906101ad9190613182565b61076d565b6040516101bf91906131d1565b60405180910390f35b3480156101d457600080fd5b506101dd6108ef565b005b6101f960048036038101906101f491906131ec565b610984565b005b34801561020757600080fd5b50610210610a1b565b60405161021d91906131d1565b60405180910390f35b34801561023257600080fd5b5061024d60048036038101906102489190613219565b610aec565b005b34801561025b57600080fd5b5061027660048036038101906102719190613182565b610c13565b6040516102869493929190613277565b60405180910390f35b34801561029b57600080fd5b506102a4610c7d565b005b3480156102b257600080fd5b506102cd60048036038101906102c891906131ec565b610e09565b6040516102dc939291906132bc565b60405180910390f35b3480156102f157600080fd5b506102fa610e40565b60405161030791906131d1565b60405180910390f35b34801561031c57600080fd5b50610337600480360381019061033291906131ec565b610e46565b60405161034491906131d1565b60405180910390f35b34801561035957600080fd5b50610362610e6a565b60405161036f91906132f3565b60405180910390f35b34801561038457600080fd5b5061039f600480360381019061039a91906131ec565b610e90565b6040516103ac91906131d1565b60405180910390f35b3480156103c157600080fd5b506103dc60048036038101906103d7919061330e565b610f97565b005b3480156103ea57600080fd5b506104056004803603810190610400919061330e565b61102a565b005b34801561041357600080fd5b5061042e6004803603810190610429919061330e565b611196565b60405161043b919061333b565b60405180910390f35b34801561045057600080fd5b506104596111b6565b60405161046691906133e6565b60405180910390f35b34801561047b57600080fd5b506104966004803603810190610491919061330e565b6114c8565b005b600060029054906101000a900473ffffffffffffffffffffffffffffffffffffffff1673ffffffffffffffffffffffffffffffffffffffff163373ffffffffffffffffffffffffffffffffffffffff161461051f576040517f11845c2100000000000000000000000000000000000000000000000000000000815260040160405180910390fd5b600015158115150361053a57610535838361162b565b610544565b610543836118c2565b5b505050565b60011515600360003373ffffffffffffffffffffffffffffffffffffffff1673ffffffffffffffffffffffffffffffffffffffff16815260200190815260200160002060009054906101000a900460ff161515146105d3576040517f11845c2100000000000000000000000000000000000000000000000000000000815260040160405180910390fd5b6105dd8282611c07565b5050565b600060029054906101000a900473ffffffffffffffffffffffffffffffffffffffff1673ffffffffffffffffffffffffffffffffffffffff163373ffffffffffffffffffffffffffffffffffffffff1614610668576040517f11845c2100000000000000000000000000000000000000000000000000000000815260040160405180910390fd5b6000600181111561067c5761067b613408565b5b60008054906101000a900460ff16600181111561069c5761069b613408565b5b146106d3576040517fce0e4c9500000000000000000000000000000000000000000000000000000000815260040160405180910390fd5b600160028111156106e7576106e6613408565b5b600060019054906101000a900460ff16600281111561070957610708613408565b5b14610740576040517fbebc7bdd00000000000000000000000000000000000000000000000000000000815260040160405180910390fd5b6001600060016101000a81548160ff0219169083600281111561076657610765613408565b5b0217905550565b60008060029054906101000a900473ffffffffffffffffffffffffffffffffffffffff1673ffffffffffffffffffffffffffffffffffffffff163373ffffffffffffffffffffffffffffffffffffffff16146107f5576040517f11845c2100000000000000000000000000000000000000000000000000000000815260040160405180910390fd5b60011515600a600085815260200190815260200160002060008473ffffffffffffffffffffffffffffffffffffffff1673ffffffffffffffffffffffffffffffffffffffff16815260200190815260200160002060030160009054906101000a900460ff16151514610893576040517f299fb3c400000000000000000000000000000000000000000000000000000000815260040160405180910390fd5b600a600084815260200190815260200160002060008373ffffffffffffffffffffffffffffffffffffffff1673ffffffffffffffffffffffffffffffffffffffff16815260200190815260200160002060020154905092915050565b60011515600360003373ffffffffffffffffffffffffffffffffffffffff1673ffffffffffffffffffffffffffffffffffffffff16815260200190815260200160002060009054906101000a900460ff16151514610979576040517f11845c2100000000000000000000000000000000000000000000000000000000815260040160405180910390fd5b610982336123bf565b565b60011515600360003373ffffffffffffffffffffffffffffffffffffffff1673ffffffffffffffffffffffffffffffffffffffff16815260200190815260200160002060009054906101000a900460ff16151514610a0e576040517f11845c2100000000000000000000000000000000000000000000000000000000815260040160405180910390fd5b610a188133611c07565b50565b600060011515600360003373ffffffffffffffffffffffffffffffffffffffff1673ffffffffffffffffffffffffffffffffffffffff16815260200190815260200160002060009054906101000a900460ff16151514610aa7576040517f11845c2100000000000000000000000000000000000000000000000000000000815260040160405180910390fd5b600c60003373ffffffffffffffffffffffffffffffffffffffff1673ffffffffffffffffffffffffffffffffffffffff16815260200190815260200160002054905090565b600060029054906101000a900473ffffffffffffffffffffffffffffffffffffffff1673ffffffffffffffffffffffffffffffffffffffff163373ffffffffffffffffffffffffffffffffffffffff1614610b73576040517f11845c2100000000000000000000000000000000000000000000000000000000815260040160405180910390fd5b600180811115610b8657610b85613408565b5b60008054906101000a900460ff166001811115610ba657610ba5613408565b5b148015610bcb57508082108015610bca57506006548282610bc79190613466565b10155b5b610c01576040517fa1056f7900000000000000000000000000000000000000000000000000000000815260040160405180910390fd5b81600481905550806005819055505050565b600a602052816000526040600020602052806000526040600020600091509150508060000160009054906101000a900473ffffffffffffffffffffffffffffffffffffffff16908060010154908060020154908060030160009054906101000a900460ff16905084565b600060029054906101000a900473ffffffffffffffffffffffffffffffffffffffff1673ffffffffffffffffffffffffffffffffffffffff163373ffffffffffffffffffffffffffffffffffffffff1614610d04576040517f11845c2100000000000000000000000000000000000000000000000000000000815260040160405180910390fd5b60006001811115610d1857610d17613408565b5b60008054906101000a900460ff166001811115610d3857610d37613408565b5b14610d6f576040517fce0e4c9500000000000000000000000000000000000000000000000000000000815260040160405180910390fd5b60006002811115610d8357610d82613408565b5b600060019054906101000a900460ff166002811115610da557610da4613408565b5b14610ddc576040517fcd7aae3200000000000000000000000000000000000000000000000000000000815260040160405180910390fd5b6001600060016101000a81548160ff02191690836002811115610e0257610e01613408565b5b0217905550565b60076020528060005260406000206000915090508060000154908060010154908060020160009054906101000a900460ff16905083565b60085481565b60098181548110610e5657600080fd5b906000526020600020016000915090505481565b600060029054906101000a900473ffffffffffffffffffffffffffffffffffffffff1681565b60008060029054906101000a900473ffffffffffffffffffffffffffffffffffffffff1673ffffffffffffffffffffffffffffffffffffffff163373ffffffffffffffffffffffffffffffffffffffff1614610f18576040517f11845c2100000000000000000000000000000000000000000000000000000000815260040160405180910390fd5b60011515600b600084815260200190815260200160002060030160009054906101000a900460ff16151514610f79576040517f299fb3c400000000000000000000000000000000000000000000000000000000815260040160405180910390fd5b600b6000838152602001908152602001600020600201549050919050565b600060029054906101000a900473ffffffffffffffffffffffffffffffffffffffff1673ffffffffffffffffffffffffffffffffffffffff163373ffffffffffffffffffffffffffffffffffffffff161461101e576040517f11845c2100000000000000000000000000000000000000000000000000000000815260040160405180910390fd5b611027816123bf565b50565b600060029054906101000a900473ffffffffffffffffffffffffffffffffffffffff1673ffffffffffffffffffffffffffffffffffffffff163373ffffffffffffffffffffffffffffffffffffffff16146110b1576040517f11845c2100000000000000000000000000000000000000000000000000000000815260040160405180910390fd5b60001515600360008373ffffffffffffffffffffffffffffffffffffffff1673ffffffffffffffffffffffffffffffffffffffff16815260200190815260200160002060009054906101000a900460ff1615151461113b576040517fd61d68cc00000000000000000000000000000000000000000000000000000000815260040160405180910390fd5b6001600360008373ffffffffffffffffffffffffffffffffffffffff1673ffffffffffffffffffffffffffffffffffffffff16815260200190815260200160002060006101000a81548160ff02191690831515021790555050565b60036020528060005260406000206000915054906101000a900460ff1681565b606060011515600360003373ffffffffffffffffffffffffffffffffffffffff1673ffffffffffffffffffffffffffffffffffffffff16815260200190815260200160002060009054906101000a900460ff16151514611242576040517f11845c2100000000000000000000000000000000000000000000000000000000815260040160405180910390fd5b600554421161127d576040517f2875c00600000000000000000000000000000000000000000000000000000000815260040160405180910390fd5b611285613044565b61128e8161265c565b905060005b6009805490508110156114b15760011515600b6000600984815481106112bc576112bb61349a565b5b9060005260206000200154815260200190815260200160002060030160009054906101000a900460ff161515036114a4576112f682612695565b91506113766040518060400160405280600b81526020017f70726f64756374436f6465000000000000000000000000000000000000000000815250600b6000600985815481106113495761134861349a565b5b9060005260206000200154815260200190815260200160002060010154846126ce9092919063ffffffff16565b91506113f66040518060400160405280600681526020017f616d6f756e740000000000000000000000000000000000000000000000000000815250600b6000600985815481106113c9576113c861349a565b5b9060005260206000200154815260200190815260200160002060020154846126ce9092919063ffffffff16565b91506114966040518060400160405280600681526020017f77696e6e65720000000000000000000000000000000000000000000000000000815250600b6000600985815481106114495761144861349a565b5b9060005260206000200154815260200190815260200160002060000160009054906101000a900473ffffffffffffffffffffffffffffffffffffffff16846127979092919063ffffffff16565b91506114a182612860565b91505b8080600101915050611293565b506114bb81612899565b9050806020015191505090565b600060029054906101000a900473ffffffffffffffffffffffffffffffffffffffff1673ffffffffffffffffffffffffffffffffffffffff163373ffffffffffffffffffffffffffffffffffffffff161461154f576040517f11845c2100000000000000000000000000000000000000000000000000000000815260040160405180910390fd5b60011515600360008373ffffffffffffffffffffffffffffffffffffffff1673ffffffffffffffffffffffffffffffffffffffff16815260200190815260200160002060009054906101000a900460ff161515146115d9576040517fc82dde3500000000000000000000000000000000000000000000000000000000815260040160405180910390fd5b600360008273ffffffffffffffffffffffffffffffffffffffff1673ffffffffffffffffffffffffffffffffffffffff16815260200190815260200160002060006101000a81549060ff021916905550565b60018081111561163e5761163d613408565b5b60008054906101000a900460ff16600181111561165e5761165d613408565b5b036116a357600454421061169e576040517fbebc7bdd00000000000000000000000000000000000000000000000000000000815260040160405180910390fd5b61174b565b600060018111156116b7576116b6613408565b5b60008054906101000a900460ff1660018111156116d7576116d6613408565b5b0361174a57600060028111156116f0576116ef613408565b5b600060019054906101000a900460ff16600281111561171257611711613408565b5b14611749576040517f0e92065300000000000000000000000000000000000000000000000000000000815260040160405180910390fd5b5b5b6001546009805490501061178b576040517f3153fe7000000000000000000000000000000000000000000000000000000000815260040160405180910390fd5b600082116117c5576040517f8463852800000000000000000000000000000000000000000000000000000000815260040160405180910390fd5b600115156007600084815260200190815260200160002060020160009054906101000a900460ff16151503611814578060076000848152602001908152602001600020600101819055506118be565b60405180606001604052808381526020018281526020016001151581525060076000848152602001908152602001600020600082015181600001556020820151816001015560408201518160020160006101000a81548160ff0219169083151502179055509050506009829080600181540180825580915050600190039060005260206000200160009091909190915055600860008154809291906118b8906134c9565b91905055505b5050565b6001808111156118d5576118d4613408565b5b60008054906101000a900460ff1660018111156118f5576118f4613408565b5b0361193a576004544210611935576040517fbebc7bdd00000000000000000000000000000000000000000000000000000000815260040160405180910390fd5b6119e2565b6000600181111561194e5761194d613408565b5b60008054906101000a900460ff16600181111561196e5761196d613408565b5b036119e1576000600281111561198757611986613408565b5b600060019054906101000a900460ff1660028111156119a9576119a8613408565b5b146119e0576040517f0e92065300000000000000000000000000000000000000000000000000000000815260040160405180910390fd5b5b5b600115156007600083815260200190815260200160002060020160009054906101000a900460ff16151514611a43576040517f299fb3c400000000000000000000000000000000000000000000000000000000815260040160405180910390fd5b60008111611a7d576040517f8463852800000000000000000000000000000000000000000000000000000000815260040160405180910390fd5b600160098054905003611ab45760006009600081548110611aa157611aa061349a565b5b9060005260206000200181905550611bb2565b60005b600980549050811015611bb0578160098281548110611ad957611ad861349a565b5b906000526020600020015414611ba357600060096001600980549050611aff9190613466565b81548110611b1057611b0f61349a565b5b90600052602060002001549050600060096001600980549050611b339190613466565b81548110611b4457611b4361349a565b5b90600052602060002001819055508060098381548110611b6757611b6661349a565b5b90600052602060002001819055506009805480611b8757611b86613511565b5b6001900381819060005260206000200160009055905550611bb0565b8080600101915050611ab7565b505b6007600082815260200190815260200160002060008082016000905560018201600090556002820160006101000a81549060ff0219169055505060086000815480929190611bff90613540565b919050555050565b60011515600360008373ffffffffffffffffffffffffffffffffffffffff1673ffffffffffffffffffffffffffffffffffffffff16815260200190815260200160002060009054906101000a900460ff16151514611c91576040517f11845c2100000000000000000000000000000000000000000000000000000000815260040160405180910390fd5b600180811115611ca457611ca3613408565b5b60008054906101000a900460ff166001811115611cc457611cc3613408565b5b03611d44576004544211611d04576040517fbebc7bdd00000000000000000000000000000000000000000000000000000000815260040160405180910390fd5b6005544210611d3f576040517f3e6f774700000000000000000000000000000000000000000000000000000000815260040160405180910390fd5b611dec565b60006001811115611d5857611d57613408565b5b60008054906101000a900460ff166001811115611d7857611d77613408565b5b03611deb5760016002811115611d9157611d90613408565b5b600060019054906101000a900460ff166002811115611db357611db2613408565b5b14611dea576040517f85c70dac00000000000000000000000000000000000000000000000000000000815260040160405180910390fd5b5b5b600115156007600084815260200190815260200160002060020160009054906101000a900460ff16151514611e4d576040517f299fb3c400000000000000000000000000000000000000000000000000000000815260040160405180910390fd5b6000349050600254811015611e8e576040517f43f79a0600000000000000000000000000000000000000000000000000000000815260040160405180910390fd5b60011515600a600085815260200190815260200160002060008473ffffffffffffffffffffffffffffffffffffffff1673ffffffffffffffffffffffffffffffffffffffff16815260200190815260200160002060030160009054906101000a900460ff161515036120e25780600a600085815260200190815260200160002060008473ffffffffffffffffffffffffffffffffffffffff1673ffffffffffffffffffffffffffffffffffffffff1681526020019081526020016000206002015410611f86576040517fa5e6d6ce00000000000000000000000000000000000000000000000000000000815260040160405180910390fd5b600a600084815260200190815260200160002060008373ffffffffffffffffffffffffffffffffffffffff1673ffffffffffffffffffffffffffffffffffffffff16815260200190815260200160002060020154600d60008473ffffffffffffffffffffffffffffffffffffffff1673ffffffffffffffffffffffffffffffffffffffff16815260200190815260200160002060008282546120289190613466565b9250508190555080600d60008473ffffffffffffffffffffffffffffffffffffffff1673ffffffffffffffffffffffffffffffffffffffff168152602001908152602001600020600082825461207e9190613569565b9250508190555080600a600085815260200190815260200160002060008473ffffffffffffffffffffffffffffffffffffffff1673ffffffffffffffffffffffffffffffffffffffff16815260200190815260200160002060020181905550612241565b80600d60008473ffffffffffffffffffffffffffffffffffffffff1673ffffffffffffffffffffffffffffffffffffffff16815260200190815260200160002060008282546121319190613569565b9250508190555060405180608001604052808373ffffffffffffffffffffffffffffffffffffffff16815260200184815260200182815260200160011515815250600a600085815260200190815260200160002060008473ffffffffffffffffffffffffffffffffffffffff1673ffffffffffffffffffffffffffffffffffffffff16815260200190815260200160002060008201518160000160006101000a81548173ffffffffffffffffffffffffffffffffffffffff021916908373ffffffffffffffffffffffffffffffffffffffff160217905550602082015181600101556040820151816002015560608201518160030160006101000a81548160ff0219169083151502179055509050505b80600b600085815260200190815260200160002060020154101561232b5760405180608001604052808373ffffffffffffffffffffffffffffffffffffffff16815260200184815260200182815260200160011515815250600b600085815260200190815260200160002060008201518160000160006101000a81548173ffffffffffffffffffffffffffffffffffffffff021916908373ffffffffffffffffffffffffffffffffffffffff160217905550602082015181600101556040820151816002015560608201518160030160006101000a81548160ff0219169083151502179055509050505b7f0fc69407039e8ba8cdd517e2a4cae9dd19697b0a500ff37a2425c59ebc649b31838260405161235c92919061359d565b60405180910390a180600c60008473ffffffffffffffffffffffffffffffffffffffff1673ffffffffffffffffffffffffffffffffffffffff16815260200190815260200160002060008282546123b39190613569565b92505081905550505050565b60011515600360008373ffffffffffffffffffffffffffffffffffffffff1673ffffffffffffffffffffffffffffffffffffffff16815260200190815260200160002060009054906101000a900460ff16151514612449576040517f11845c2100000000000000000000000000000000000000000000000000000000815260040160405180910390fd5b6000600c60008373ffffffffffffffffffffffffffffffffffffffff1673ffffffffffffffffffffffffffffffffffffffff16815260200190815260200160002054116124c2576040517f927eca2f00000000000000000000000000000000000000000000000000000000815260040160405180910390fd5b6000600d60008373ffffffffffffffffffffffffffffffffffffffff1673ffffffffffffffffffffffffffffffffffffffff168152602001908152602001600020549050600081600c60008573ffffffffffffffffffffffffffffffffffffffff1673ffffffffffffffffffffffffffffffffffffffff168152602001908152602001600020546125539190613466565b905080600c60008573ffffffffffffffffffffffffffffffffffffffff1673ffffffffffffffffffffffffffffffffffffffff16815260200190815260200160002060008282546125a49190613466565b92505081905550600081116125e5576040517f927eca2f00000000000000000000000000000000000000000000000000000000815260040160405180910390fd5b600115158373ffffffffffffffffffffffffffffffffffffffff166108fc839081150290604051600060405180830381858888f19350505050151514612657576040517ff5ef1ce300000000000000000000000000000000000000000000000000000000815260040160405180910390fd5b505050565b612664613044565b61268e827f5b000000000000000000000000000000000000000000000000000000000000006128d2565b9050919050565b61269d613044565b6126c7827f7b000000000000000000000000000000000000000000000000000000000000006128d2565b9050919050565b6126d6613044565b6000846000015112156127425783602001517f2c0000000000000000000000000000000000000000000000000000000000000084612713856129ba565b60405160200161272694939291906136e7565b604051602081830303815290604052846020018190525061277b565b836020015183612751846129ba565b6040516020016127639392919061373f565b60405160208183030381529060405284602001819052505b61278484612b33565b8460000181815250508390509392505050565b61279f613044565b60008460000151121561280b5783602001517f2c00000000000000000000000000000000000000000000000000000000000000846127dc85612b48565b6040516020016127ef94939291906137d2565b6040516020818303038152906040528460200181905250612844565b83602001518361281a84612b48565b60405160200161282c93929190613835565b60405160208183030381529060405284602001819052505b61284d84612b33565b8460000181815250508390509392505050565b612868613044565b612892827f7d00000000000000000000000000000000000000000000000000000000000000612f9c565b9050919050565b6128a1613044565b6128cb827f5d00000000000000000000000000000000000000000000000000000000000000612f9c565b9050919050565b6128da613044565b60008360000151121561293c5782602001517f2c000000000000000000000000000000000000000000000000000000000000008360405160200161292093929190613887565b604051602081830303815290604052836020018190525061296b565b8260200151826040516020016129539291906138c0565b60405160208183030381529060405283602001819052505b7f7fffffffffffffffffffffffffffffffffffffffffffffffffffffffffffffff8360000181815116915081815250508260000180518091906129ad906138f2565b8152505082905092915050565b606060008203612a01576040518060400160405280600181526020017f30000000000000000000000000000000000000000000000000000000000000008152509050612b2e565b600082905060005b60008214612a33578080612a1c906134c9565b915050600a82612a2c9190613969565b9150612a09565b60008167ffffffffffffffff811115612a4f57612a4e61399a565b5b6040519080825280601f01601f191660200182016040528015612a815781602001600182028036833780820191505090505b50905060008290505b60008614612b2657600a8087612aa09190613969565b612aaa91906139c9565b86612ab59190613466565b6030612ac19190613a18565b60f81b8282612acf90613540565b92508281518110612ae357612ae261349a565b5b60200101907effffffffffffffffffffffffffffffffffffffffffffffffffffffffffffff1916908160001a905350600a86612b1f9190613969565b9550612a8a565b819450505050505b919050565b600060ff6001901b8260000151179050919050565b60606000602867ffffffffffffffff811115612b6757612b6661399a565b5b6040519080825280601f01601f191660200182016040528015612b995781602001600182028036833780820191505090505b509050600083905060005b6028811015612c73577f3031323334353637383961626364656600000000000000000000000000000000600f831673ffffffffffffffffffffffffffffffffffffffff1660108110612bf957612bf861349a565b5b1a60f81b83826027612c0b9190613466565b81518110612c1c57612c1b61349a565b5b60200101907effffffffffffffffffffffffffffffffffffffffffffffffffffffffffffff1916908160001a90535060048273ffffffffffffffffffffffffffffffffffffffff16901c9150806001019050612ba4565b50600082604051602001612c879190613a94565b6040516020818303038152906040528051906020012090506000602a67ffffffffffffffff811115612cbc57612cbb61399a565b5b6040519080825280601f01601f191660200182016040528015612cee5781602001600182028036833780820191505090505b5090507f300000000000000000000000000000000000000000000000000000000000000081600081518110612d2657612d2561349a565b5b60200101907effffffffffffffffffffffffffffffffffffffffffffffffffffffffffffff1916908160001a9053507f780000000000000000000000000000000000000000000000000000000000000081600181518110612d8a57612d8961349a565b5b60200101907effffffffffffffffffffffffffffffffffffffffffffffffffffffffffffff1916908160001a905350600086905060008360601c90506000602990505b6001811115612f6e576000600f831673ffffffffffffffffffffffffffffffffffffffff1690506007811115612e94577f3031323334353637383941424344454600000000000000000000000000000000600f851673ffffffffffffffffffffffffffffffffffffffff1660108110612e4957612e4861349a565b5b1a60f81b858381518110612e6057612e5f61349a565b5b60200101907effffffffffffffffffffffffffffffffffffffffffffffffffffffffffffff1916908160001a905350612f27565b7f3031323334353637383961626364656600000000000000000000000000000000600f851673ffffffffffffffffffffffffffffffffffffffff1660108110612ee057612edf61349a565b5b1a60f81b858381518110612ef757612ef661349a565b5b60200101907effffffffffffffffffffffffffffffffffffffffffffffffffffffffffffff1916908160001a9053505b60048473ffffffffffffffffffffffffffffffffffffffff16901c935060048373ffffffffffffffffffffffffffffffffffffffff16901c92508160019003915050612dcd565b5082604051602001612f809190613a94565b6040516020818303038152906040529650505050505050919050565b612fa4613044565b826020015182604051602001612fbb9291906138c0565b6040516020818303038152906040528360200181905250612fdb83612b33565b8360000181815250506000612fef84613014565b1461300b5782600001805180919061300690613aab565b815250505b82905092915050565b60007f7fffffffffffffffffffffffffffffffffffffffffffffffffffffffffffffff8260000151169050919050565b604051806040016040528060008152602001606081525090565b600080fd5b6000819050919050565b61307681613063565b811461308157600080fd5b50565b6000813590506130938161306d565b92915050565b60008115159050919050565b6130ae81613099565b81146130b957600080fd5b50565b6000813590506130cb816130a5565b92915050565b6000806000606084860312156130ea576130e961305e565b5b60006130f886828701613084565b935050602061310986828701613084565b925050604061311a868287016130bc565b9150509250925092565b600073ffffffffffffffffffffffffffffffffffffffff82169050919050565b600061314f82613124565b9050919050565b61315f81613144565b811461316a57600080fd5b50565b60008135905061317c81613156565b92915050565b600080604083850312156131995761319861305e565b5b60006131a785828601613084565b92505060206131b88582860161316d565b9150509250929050565b6131cb81613063565b82525050565b60006020820190506131e660008301846131c2565b92915050565b6000602082840312156132025761320161305e565b5b600061321084828501613084565b91505092915050565b600080604083850312156132305761322f61305e565b5b600061323e85828601613084565b925050602061324f85828601613084565b9150509250929050565b61326281613144565b82525050565b61327181613099565b82525050565b600060808201905061328c6000830187613259565b61329960208301866131c2565b6132a660408301856131c2565b6132b36060830184613268565b95945050505050565b60006060820190506132d160008301866131c2565b6132de60208301856131c2565b6132eb6040830184613268565b949350505050565b60006020820190506133086000830184613259565b92915050565b6000602082840312156133245761332361305e565b5b60006133328482850161316d565b91505092915050565b60006020820190506133506000830184613268565b92915050565b600081519050919050565b600082825260208201905092915050565b60005b83811015613390578082015181840152602081019050613375565b60008484015250505050565b6000601f19601f8301169050919050565b60006133b882613356565b6133c28185613361565b93506133d2818560208601613372565b6133db8161339c565b840191505092915050565b6000602082019050818103600083015261340081846133ad565b905092915050565b7f4e487b7100000000000000000000000000000000000000000000000000000000600052602160045260246000fd5b7f4e487b7100000000000000000000000000000000000000000000000000000000600052601160045260246000fd5b600061347182613063565b915061347c83613063565b925082820390508181111561349457613493613437565b5b92915050565b7f4e487b7100000000000000000000000000000000000000000000000000000000600052603260045260246000fd5b60006134d482613063565b91507fffffffffffffffffffffffffffffffffffffffffffffffffffffffffffffffff820361350657613505613437565b5b600182019050919050565b7f4e487b7100000000000000000000000000000000000000000000000000000000600052603160045260246000fd5b600061354b82613063565b91506000820361355e5761355d613437565b5b600182039050919050565b600061357482613063565b915061357f83613063565b925082820190508082111561359757613596613437565b5b92915050565b60006040820190506135b260008301856131c2565b6135bf60208301846131c2565b9392505050565b600081905092915050565b60006135dc82613356565b6135e681856135c6565b93506135f6818560208601613372565b80840191505092915050565b60007fff0000000000000000000000000000000000000000000000000000000000000082169050919050565b6000819050919050565b61364961364482613602565b61362e565b82525050565b7f2200000000000000000000000000000000000000000000000000000000000000600082015250565b60006136856001836135c6565b91506136908261364f565b600182019050919050565b7f223a200000000000000000000000000000000000000000000000000000000000600082015250565b60006136d16003836135c6565b91506136dc8261369b565b600382019050919050565b60006136f382876135d1565b91506136ff8286613638565b60018201915061370e82613678565b915061371a82856135d1565b9150613725826136c4565b915061373182846135d1565b915081905095945050505050565b600061374b82866135d1565b915061375682613678565b915061376282856135d1565b915061376d826136c4565b915061377982846135d1565b9150819050949350505050565b7f223a202200000000000000000000000000000000000000000000000000000000600082015250565b60006137bc6004836135c6565b91506137c782613786565b600482019050919050565b60006137de82876135d1565b91506137ea8286613638565b6001820191506137f982613678565b915061380582856135d1565b9150613810826137af565b915061381c82846135d1565b915061382782613678565b915081905095945050505050565b600061384182866135d1565b915061384c82613678565b915061385882856135d1565b9150613863826137af565b915061386f82846135d1565b915061387a82613678565b9150819050949350505050565b600061389382866135d1565b915061389f8285613638565b6001820191506138af8284613638565b600182019150819050949350505050565b60006138cc82856135d1565b91506138d88284613638565b6001820191508190509392505050565b6000819050919050565b60006138fd826138e8565b91507f7fffffffffffffffffffffffffffffffffffffffffffffffffffffffffffffff820361392f5761392e613437565b5b600182019050919050565b7f4e487b7100000000000000000000000000000000000000000000000000000000600052601260045260246000fd5b600061397482613063565b915061397f83613063565b92508261398f5761398e61393a565b5b828204905092915050565b7f4e487b7100000000000000000000000000000000000000000000000000000000600052604160045260246000fd5b60006139d482613063565b91506139df83613063565b92508282026139ed81613063565b91508282048414831517613a0457613a03613437565b5b5092915050565b600060ff82169050919050565b6000613a2382613a0b565b9150613a2e83613a0b565b9250828201905060ff811115613a4757613a46613437565b5b92915050565b600081519050919050565b600081905092915050565b6000613a6e82613a4d565b613a788185613a58565b9350613a88818560208601613372565b80840191505092915050565b6000613aa08284613a63565b915081905092915050565b6000613ab6826138e8565b91507f80000000000000000000000000000000000000000000000000000000000000008203613ae857613ae7613437565b5b60018203905091905056fea2646970667358221220f307738e766d105120920ed4d556ff73c2a042611560551ffa474916cffc085f64736f6c634300081c0033",
  "linkReferences": {},
  "deployedLinkReferences": {}
}