{
  "_format": "hh-sol-artifact-1",
  "contractName": "Auction",
  "sourceName": "contracts/auction.sol",
  "abi": [
    {
      "inputs": [],
      "stateMutability": "nonpayable",
      "type": "constructor"
    },
    {
      "inputs": [
        {
          "internalType": "address",
          "name": "",
          "type": "address"
        }
      ],
      "name": "allowedBuyers",
      "outputs": [
        {
          "internalType": "bool",
          "name": "",
          "type": "bool"
        }
      ],
      "stateMutability": "view",
      "type": "function"
    },
    {
      "inputs": [
        {
          "internalType": "address",
          "name": "toBeBuyer",
          "type": "address"
        }
      ],
      "name": "authorize",
      "outputs": [],
      "stateMutability": "nonpayable",
      "type": "function"
    },
    {
      "inputs": [
        {
          "internalType": "uint256",
          "name": "productCode",
          "type": "uint256"
        }
      ],
      "name": "bid",
      "outputs": [],
      "stateMutability": "payable",
      "type": "function"
    },
    {
      "inputs": [
        {
          "internalType": "uint256",
          "name": "",
          "type": "uint256"
        },
        {
          "internalType": "address",
          "name": "",
          "type": "address"
        }
      ],
      "name": "currentBids",
      "outputs": [
        {
          "internalType": "address",
          "name": "buyer",
          "type": "address"
        },
        {
          "internalType": "uint256",
          "name": "productCode",
          "type": "uint256"
        },
        {
          "internalType": "uint256",
          "name": "amount",
          "type": "uint256"
        },
        {
          "internalType": "bool",
          "name": "put",
          "type": "bool"
        }
      ],
      "stateMutability": "view",
      "type": "function"
    },
    {
      "inputs": [
        {
          "internalType": "uint256",
          "name": "productCode",
          "type": "uint256"
        },
        {
          "internalType": "address",
          "name": "bidderAddress",
          "type": "address"
        }
      ],
      "name": "getCurrentBids",
      "outputs": [
        {
          "internalType": "uint256",
          "name": "",
          "type": "uint256"
        }
      ],
      "stateMutability": "view",
      "type": "function"
    },
    {
      "inputs": [
        {
          "internalType": "uint256",
          "name": "productCode",
          "type": "uint256"
        }
      ],
      "name": "getHighestBid",
      "outputs": [
        {
          "internalType": "uint256",
          "name": "",
          "type": "uint256"
        }
      ],
      "stateMutability": "view",
      "type": "function"
    },
    {
      "inputs": [],
      "name": "getWinners",
      "outputs": [
        {
          "internalType": "string",
          "name": "",
          "type": "string"
        }
      ],
      "stateMutability": "view",
      "type": "function"
    },
    {
      "inputs": [],
      "name": "liveProductsCount",
      "outputs": [
        {
          "internalType": "uint256",
          "name": "",
          "type": "uint256"
        }
      ],
      "stateMutability": "view",
      "type": "function"
    },
    {
      "inputs": [],
      "name": "owner",
      "outputs": [
        {
          "internalType": "address",
          "name": "",
          "type": "address"
        }
      ],
      "stateMutability": "view",
      "type": "function"
    },
    {
      "inputs": [
        {
          "internalType": "uint256",
          "name": "productCode",
          "type": "uint256"
        },
        {
          "internalType": "uint256",
          "name": "startingBidPrice",
          "type": "uint256"
        },
        {
          "internalType": "bool",
          "name": "isRemove",
          "type": "bool"
        }
      ],
      "name": "product",
      "outputs": [],
      "stateMutability": "nonpayable",
      "type": "function"
    },
    {
      "inputs": [
        {
          "internalType": "uint256",
          "name": "",
          "type": "uint256"
        }
      ],
      "name": "productsKeys",
      "outputs": [
        {
          "internalType": "uint256",
          "name": "",
          "type": "uint256"
        }
      ],
      "stateMutability": "view",
      "type": "function"
    },
    {
      "inputs": [
        {
          "internalType": "uint256",
          "name": "",
          "type": "uint256"
        }
      ],
      "name": "productsMap",
      "outputs": [
        {
          "internalType": "uint256",
          "name": "code",
          "type": "uint256"
        },
        {
          "internalType": "uint256",
          "name": "startingPrice",
          "type": "uint256"
        },
        {
          "internalType": "bool",
          "name": "exists",
          "type": "bool"
        }
      ],
      "stateMutability": "view",
      "type": "function"
    },
    {
      "inputs": [
        {
          "internalType": "uint256",
          "name": "start",
          "type": "uint256"
        },
        {
          "internalType": "uint256",
          "name": "end",
          "type": "uint256"
        }
      ],
      "name": "setAuctionTiming",
      "outputs": [],
      "stateMutability": "nonpayable",
      "type": "function"
    },
    {
      "inputs": [
        {
          "internalType": "address",
          "name": "toBeBuyer",
          "type": "address"
        }
      ],
      "name": "unauthorize",
      "outputs": [],
      "stateMutability": "nonpayable",
      "type": "function"
    },
    {
      "inputs": [],
      "name": "withdraw",
      "outputs": [],
      "stateMutability": "nonpayable",
      "type": "function"
    },
    {
      "stateMutability": "payable",
      "type": "receive"
    }
  ],
  "bytecode": "0x6080604052600360015566038d7ea4c680006002556000600855348015602457600080fd5b50336000806101000a81548173ffffffffffffffffffffffffffffffffffffffff021916908373ffffffffffffffffffffffffffffffffffffffff1602179055506107086006819055506001600360008060009054906101000a900473ffffffffffffffffffffffffffffffffffffffff1673ffffffffffffffffffffffffffffffffffffffff1673ffffffffffffffffffffffffffffffffffffffff16815260200190815260200160002060006101000a81548160ff02191690831515021790555061394e806100f66000396000f3fe6080604052600436106100ec5760003560e01c8063825ae97e1161008a578063b6a5d7de11610059578063b6a5d7de14610309578063b9b4859514610332578063df15c37e1461036f578063f0b37c041461039a576100f3565b8063825ae97e1461023957806387e06e5e146102645780638da5cb5b146102a15780638f288644146102cc576100f3565b8063454a2ab3116100c6578063454a2ab3146101755780635b0ba29b1461019157806369b2643d146101ba57806377dec24c146101fa576100f3565b80630471b94b146100f85780633c7a1e7d146101215780633ccfd60b1461015e576100f3565b366100f357005b600080fd5b34801561010457600080fd5b5061011f600480360381019061011a9190612790565b6103c3565b005b34801561012d57600080fd5b5061014860048036038101906101439190612841565b61047b565b6040516101559190612890565b60405180910390f35b34801561016a57600080fd5b5061017361060f565b005b61018f600480360381019061018a91906128ab565b61088c565b005b34801561019d57600080fd5b506101b860048036038101906101b391906128d8565b610f5b565b005b3480156101c657600080fd5b506101e160048036038101906101dc9190612841565b611098565b6040516101f19493929190612936565b60405180910390f35b34801561020657600080fd5b50610221600480360381019061021c91906128ab565b611102565b6040516102309392919061297b565b60405180910390f35b34801561024557600080fd5b5061024e611139565b60405161025b9190612890565b60405180910390f35b34801561027057600080fd5b5061028b600480360381019061028691906128ab565b61113f565b6040516102989190612890565b60405180910390f35b3480156102ad57600080fd5b506102b6611163565b6040516102c391906129b2565b60405180910390f35b3480156102d857600080fd5b506102f360048036038101906102ee91906128ab565b611187565b6040516103009190612890565b60405180910390f35b34801561031557600080fd5b50610330600480360381019061032b91906129cd565b6112a0565b005b34801561033e57600080fd5b50610359600480360381019061035491906129cd565b61141c565b60405161036691906129fa565b60405180910390f35b34801561037b57600080fd5b5061038461143c565b6040516103919190612aa5565b60405180910390f35b3480156103a657600080fd5b506103c160048036038101906103bc91906129cd565b611760565b005b60008054906101000a900473ffffffffffffffffffffffffffffffffffffffff1673ffffffffffffffffffffffffffffffffffffffff163373ffffffffffffffffffffffffffffffffffffffff1614610451576040517f08c379a000000000000000000000000000000000000000000000000000000000815260040161044890612b13565b60405180910390fd5b600015158115150361046c5761046783836118d3565b610476565b61047583611aa0565b5b505050565b60008060009054906101000a900473ffffffffffffffffffffffffffffffffffffffff1673ffffffffffffffffffffffffffffffffffffffff163373ffffffffffffffffffffffffffffffffffffffff161461050c576040517f08c379a000000000000000000000000000000000000000000000000000000000815260040161050390612b13565b60405180910390fd5b60011515600a600085815260200190815260200160002060008473ffffffffffffffffffffffffffffffffffffffff1673ffffffffffffffffffffffffffffffffffffffff16815260200190815260200160002060030160009054906101000a900460ff161515146105b3576040517f08c379a00000000000000000000000000000000000000000000000000000000081526004016105aa90612b7f565b60405180910390fd5b600a600084815260200190815260200160002060008373ffffffffffffffffffffffffffffffffffffffff1673ffffffffffffffffffffffffffffffffffffffff16815260200190815260200160002060020154905092915050565b60011515600360003373ffffffffffffffffffffffffffffffffffffffff1673ffffffffffffffffffffffffffffffffffffffff16815260200190815260200160002060009054906101000a900460ff161515146106a2576040517f08c379a000000000000000000000000000000000000000000000000000000000815260040161069990612b13565b60405180910390fd5b6000600c60003373ffffffffffffffffffffffffffffffffffffffff1673ffffffffffffffffffffffffffffffffffffffff1681526020019081526020016000205411610724576040517f08c379a000000000000000000000000000000000000000000000000000000000815260040161071b90612beb565b60405180910390fd5b6000600d60003373ffffffffffffffffffffffffffffffffffffffff1673ffffffffffffffffffffffffffffffffffffffff168152602001908152602001600020549050600081600c60003373ffffffffffffffffffffffffffffffffffffffff1673ffffffffffffffffffffffffffffffffffffffff168152602001908152602001600020546107b59190612c3a565b905080600c60003373ffffffffffffffffffffffffffffffffffffffff1673ffffffffffffffffffffffffffffffffffffffff16815260200190815260200160002060008282546108069190612c3a565b92505081905550600115153373ffffffffffffffffffffffffffffffffffffffff166108fc839081150290604051600060405180830381858888f19350505050151514610888576040517f08c379a000000000000000000000000000000000000000000000000000000000815260040161087f90612cba565b60405180910390fd5b5050565b60011515600360003373ffffffffffffffffffffffffffffffffffffffff1673ffffffffffffffffffffffffffffffffffffffff16815260200190815260200160002060009054906101000a900460ff1615151461091f576040517f08c379a000000000000000000000000000000000000000000000000000000000815260040161091690612b13565b60405180910390fd5b6004544211610963576040517f08c379a000000000000000000000000000000000000000000000000000000000815260040161095a90612d26565b60405180910390fd5b60055442106109a7576040517f08c379a000000000000000000000000000000000000000000000000000000000815260040161099e90612d92565b60405180910390fd5b600115156007600083815260200190815260200160002060020160009054906101000a900460ff16151514610a11576040517f08c379a0000000000000000000000000000000000000000000000000000000008152600401610a0890612dfe565b60405180910390fd5b6000349050600254811015610a5b576040517f08c379a0000000000000000000000000000000000000000000000000000000008152600401610a5290612e6a565b60405180910390fd5b60011515600a600084815260200190815260200160002060003373ffffffffffffffffffffffffffffffffffffffff1673ffffffffffffffffffffffffffffffffffffffff16815260200190815260200160002060030160009054906101000a900460ff16151503610cb85780600a600084815260200190815260200160002060003373ffffffffffffffffffffffffffffffffffffffff1673ffffffffffffffffffffffffffffffffffffffff1681526020019081526020016000206002015410610b5c576040517f08c379a0000000000000000000000000000000000000000000000000000000008152600401610b5390612ed6565b60405180910390fd5b600a600083815260200190815260200160002060003373ffffffffffffffffffffffffffffffffffffffff1673ffffffffffffffffffffffffffffffffffffffff16815260200190815260200160002060020154600d60003373ffffffffffffffffffffffffffffffffffffffff1673ffffffffffffffffffffffffffffffffffffffff1681526020019081526020016000206000828254610bfe9190612c3a565b9250508190555080600d60003373ffffffffffffffffffffffffffffffffffffffff1673ffffffffffffffffffffffffffffffffffffffff1681526020019081526020016000206000828254610c549190612ef6565b9250508190555080600a600084815260200190815260200160002060003373ffffffffffffffffffffffffffffffffffffffff1673ffffffffffffffffffffffffffffffffffffffff16815260200190815260200160002060020181905550610e17565b80600d60003373ffffffffffffffffffffffffffffffffffffffff1673ffffffffffffffffffffffffffffffffffffffff1681526020019081526020016000206000828254610d079190612ef6565b9250508190555060405180608001604052803373ffffffffffffffffffffffffffffffffffffffff16815260200183815260200182815260200160011515815250600a600084815260200190815260200160002060003373ffffffffffffffffffffffffffffffffffffffff1673ffffffffffffffffffffffffffffffffffffffff16815260200190815260200160002060008201518160000160006101000a81548173ffffffffffffffffffffffffffffffffffffffff021916908373ffffffffffffffffffffffffffffffffffffffff160217905550602082015181600101556040820151816002015560608201518160030160006101000a81548160ff0219169083151502179055509050505b80600b6000848152602001908152602001600020600201541015610f015760405180608001604052803373ffffffffffffffffffffffffffffffffffffffff16815260200183815260200182815260200160011515815250600b600084815260200190815260200160002060008201518160000160006101000a81548173ffffffffffffffffffffffffffffffffffffffff021916908373ffffffffffffffffffffffffffffffffffffffff160217905550602082015181600101556040820151816002015560608201518160030160006101000a81548160ff0219169083151502179055509050505b80600c60003373ffffffffffffffffffffffffffffffffffffffff1673ffffffffffffffffffffffffffffffffffffffff1681526020019081526020016000206000828254610f509190612ef6565b925050819055505050565b60008054906101000a900473ffffffffffffffffffffffffffffffffffffffff1673ffffffffffffffffffffffffffffffffffffffff163373ffffffffffffffffffffffffffffffffffffffff1614610fe9576040517f08c379a0000000000000000000000000000000000000000000000000000000008152600401610fe090612b13565b60405180910390fd5b8082108015611005575060065482826110029190612c3a565b10155b611044576040517f08c379a000000000000000000000000000000000000000000000000000000000815260040161103b90612f76565b60405180910390fd5b814210611086576040517f08c379a000000000000000000000000000000000000000000000000000000000815260040161107d90612fe2565b60405180910390fd5b81600481905550806005819055505050565b600a602052816000526040600020602052806000526040600020600091509150508060000160009054906101000a900473ffffffffffffffffffffffffffffffffffffffff16908060010154908060020154908060030160009054906101000a900460ff16905084565b60076020528060005260406000206000915090508060000154908060010154908060020160009054906101000a900460ff16905083565b60085481565b6009818154811061114f57600080fd5b906000526020600020016000915090505481565b60008054906101000a900473ffffffffffffffffffffffffffffffffffffffff1681565b60008060009054906101000a900473ffffffffffffffffffffffffffffffffffffffff1673ffffffffffffffffffffffffffffffffffffffff163373ffffffffffffffffffffffffffffffffffffffff1614611218576040517f08c379a000000000000000000000000000000000000000000000000000000000815260040161120f90612b13565b60405180910390fd5b60011515600b600084815260200190815260200160002060030160009054906101000a900460ff16151514611282576040517f08c379a000000000000000000000000000000000000000000000000000000000815260040161127990612b7f565b60405180910390fd5b600b6000838152602001908152602001600020600201549050919050565b60008054906101000a900473ffffffffffffffffffffffffffffffffffffffff1673ffffffffffffffffffffffffffffffffffffffff163373ffffffffffffffffffffffffffffffffffffffff161461132e576040517f08c379a000000000000000000000000000000000000000000000000000000000815260040161132590612b13565b60405180910390fd5b60001515600360008373ffffffffffffffffffffffffffffffffffffffff1673ffffffffffffffffffffffffffffffffffffffff16815260200190815260200160002060009054906101000a900460ff161515146113c1576040517f08c379a00000000000000000000000000000000000000000000000000000000081526004016113b89061304e565b60405180910390fd5b6001600360008373ffffffffffffffffffffffffffffffffffffffff1673ffffffffffffffffffffffffffffffffffffffff16815260200190815260200160002060006101000a81548160ff02191690831515021790555050565b60036020528060005260406000206000915054906101000a900460ff1681565b606060011515600360003373ffffffffffffffffffffffffffffffffffffffff1673ffffffffffffffffffffffffffffffffffffffff16815260200190815260200160002060009054906101000a900460ff161515146114d1576040517f08c379a00000000000000000000000000000000000000000000000000000000081526004016114c890612b13565b60405180910390fd5b6005544211611515576040517f08c379a000000000000000000000000000000000000000000000000000000000815260040161150c906130e0565b60405180910390fd5b61151d612703565b61152681611d1b565b905060005b6009805490508110156117495760011515600b60006009848154811061155457611553613100565b5b9060005260206000200154815260200190815260200160002060030160009054906101000a900460ff1615150361173c5761158e82611d54565b915061160e6040518060400160405280600b81526020017f70726f64756374436f6465000000000000000000000000000000000000000000815250600b6000600985815481106115e1576115e0613100565b5b906000526020600020015481526020019081526020016000206001015484611d8d9092919063ffffffff16565b915061168e6040518060400160405280600681526020017f616d6f756e740000000000000000000000000000000000000000000000000000815250600b60006009858154811061166157611660613100565b5b906000526020600020015481526020019081526020016000206002015484611d8d9092919063ffffffff16565b915061172e6040518060400160405280600681526020017f77696e6e65720000000000000000000000000000000000000000000000000000815250600b6000600985815481106116e1576116e0613100565b5b9060005260206000200154815260200190815260200160002060000160009054906101000a900473ffffffffffffffffffffffffffffffffffffffff1684611e569092919063ffffffff16565b915061173982611f1f565b91505b808060010191505061152b565b5061175381611f58565b9050806020015191505090565b60008054906101000a900473ffffffffffffffffffffffffffffffffffffffff1673ffffffffffffffffffffffffffffffffffffffff163373ffffffffffffffffffffffffffffffffffffffff16146117ee576040517f08c379a00000000000000000000000000000000000000000000000000000000081526004016117e590612b13565b60405180910390fd5b60011515600360008373ffffffffffffffffffffffffffffffffffffffff1673ffffffffffffffffffffffffffffffffffffffff16815260200190815260200160002060009054906101000a900460ff16151514611881576040517f08c379a00000000000000000000000000000000000000000000000000000000081526004016118789061317b565b60405180910390fd5b600360008273ffffffffffffffffffffffffffffffffffffffff1673ffffffffffffffffffffffffffffffffffffffff16815260200190815260200160002060006101000a81549060ff021916905550565b6004544210611917576040517f08c379a000000000000000000000000000000000000000000000000000000000815260040161190e906131e7565b60405180910390fd5b60015460098054905010611960576040517f08c379a000000000000000000000000000000000000000000000000000000000815260040161195790613253565b60405180910390fd5b600082116119a3576040517f08c379a000000000000000000000000000000000000000000000000000000000815260040161199a906132bf565b60405180910390fd5b600115156007600084815260200190815260200160002060020160009054906101000a900460ff161515036119f257806007600084815260200190815260200160002060010181905550611a9c565b60405180606001604052808381526020018281526020016001151581525060076000848152602001908152602001600020600082015181600001556020820151816001015560408201518160020160006101000a81548160ff021916908315150217905550905050600982908060018154018082558091505060019003906000526020600020016000909190919091505560086000815480929190611a96906132df565b91905055505b5050565b6004544210611ae4576040517f08c379a0000000000000000000000000000000000000000000000000000000008152600401611adb906131e7565b60405180910390fd5b600115156007600083815260200190815260200160002060020160009054906101000a900460ff16151514611b4e576040517f08c379a0000000000000000000000000000000000000000000000000000000008152600401611b459061317b565b60405180910390fd5b60008111611b91576040517f08c379a0000000000000000000000000000000000000000000000000000000008152600401611b8890613373565b60405180910390fd5b600160098054905003611bc85760006009600081548110611bb557611bb4613100565b5b9060005260206000200181905550611cc6565b60005b600980549050811015611cc4578160098281548110611bed57611bec613100565b5b906000526020600020015414611cb757600060096001600980549050611c139190612c3a565b81548110611c2457611c23613100565b5b90600052602060002001549050600060096001600980549050611c479190612c3a565b81548110611c5857611c57613100565b5b90600052602060002001819055508060098381548110611c7b57611c7a613100565b5b90600052602060002001819055506009805480611c9b57611c9a613393565b5b6001900381819060005260206000200160009055905550611cc4565b8080600101915050611bcb565b505b6007600082815260200190815260200160002060008082016000905560018201600090556002820160006101000a81549060ff0219169055505060086000815480929190611d13906133c2565b919050555050565b611d23612703565b611d4d827f5b00000000000000000000000000000000000000000000000000000000000000611f91565b9050919050565b611d5c612703565b611d86827f7b00000000000000000000000000000000000000000000000000000000000000611f91565b9050919050565b611d95612703565b600084600001511215611e015783602001517f2c0000000000000000000000000000000000000000000000000000000000000084611dd285612079565b604051602001611de5949392919061350c565b6040516020818303038152906040528460200181905250611e3a565b836020015183611e1084612079565b604051602001611e2293929190613564565b60405160208183030381529060405284602001819052505b611e43846121f2565b8460000181815250508390509392505050565b611e5e612703565b600084600001511215611eca5783602001517f2c0000000000000000000000000000000000000000000000000000000000000084611e9b85612207565b604051602001611eae94939291906135f7565b6040516020818303038152906040528460200181905250611f03565b836020015183611ed984612207565b604051602001611eeb9392919061365a565b60405160208183030381529060405284602001819052505b611f0c846121f2565b8460000181815250508390509392505050565b611f27612703565b611f51827f7d0000000000000000000000000000000000000000000000000000000000000061265b565b9050919050565b611f60612703565b611f8a827f5d0000000000000000000000000000000000000000000000000000000000000061265b565b9050919050565b611f99612703565b600083600001511215611ffb5782602001517f2c0000000000000000000000000000000000000000000000000000000000000083604051602001611fdf939291906136ac565b604051602081830303815290604052836020018190525061202a565b8260200151826040516020016120129291906136e5565b60405160208183030381529060405283602001819052505b7f7fffffffffffffffffffffffffffffffffffffffffffffffffffffffffffffff83600001818151169150818152505082600001805180919061206c90613717565b8152505082905092915050565b6060600082036120c0576040518060400160405280600181526020017f300000000000000000000000000000000000000000000000000000000000000081525090506121ed565b600082905060005b600082146120f25780806120db906132df565b915050600a826120eb919061378e565b91506120c8565b60008167ffffffffffffffff81111561210e5761210d6137bf565b5b6040519080825280601f01601f1916602001820160405280156121405781602001600182028036833780820191505090505b50905060008290505b600086146121e557600a808761215f919061378e565b61216991906137ee565b866121749190612c3a565b6030612180919061383d565b60f81b828261218e906133c2565b925082815181106121a2576121a1613100565b5b60200101907effffffffffffffffffffffffffffffffffffffffffffffffffffffffffffff1916908160001a905350600a866121de919061378e565b9550612149565b819450505050505b919050565b600060ff6001901b8260000151179050919050565b60606000602867ffffffffffffffff811115612226576122256137bf565b5b6040519080825280601f01601f1916602001820160405280156122585781602001600182028036833780820191505090505b509050600083905060005b6028811015612332577f3031323334353637383961626364656600000000000000000000000000000000600f831673ffffffffffffffffffffffffffffffffffffffff16601081106122b8576122b7613100565b5b1a60f81b838260276122ca9190612c3a565b815181106122db576122da613100565b5b60200101907effffffffffffffffffffffffffffffffffffffffffffffffffffffffffffff1916908160001a90535060048273ffffffffffffffffffffffffffffffffffffffff16901c9150806001019050612263565b5060008260405160200161234691906138b9565b6040516020818303038152906040528051906020012090506000602a67ffffffffffffffff81111561237b5761237a6137bf565b5b6040519080825280601f01601f1916602001820160405280156123ad5781602001600182028036833780820191505090505b5090507f3000000000000000000000000000000000000000000000000000000000000000816000815181106123e5576123e4613100565b5b60200101907effffffffffffffffffffffffffffffffffffffffffffffffffffffffffffff1916908160001a9053507f78000000000000000000000000000000000000000000000000000000000000008160018151811061244957612448613100565b5b60200101907effffffffffffffffffffffffffffffffffffffffffffffffffffffffffffff1916908160001a905350600086905060008360601c90506000602990505b600181111561262d576000600f831673ffffffffffffffffffffffffffffffffffffffff1690506007811115612553577f3031323334353637383941424344454600000000000000000000000000000000600f851673ffffffffffffffffffffffffffffffffffffffff166010811061250857612507613100565b5b1a60f81b85838151811061251f5761251e613100565b5b60200101907effffffffffffffffffffffffffffffffffffffffffffffffffffffffffffff1916908160001a9053506125e6565b7f3031323334353637383961626364656600000000000000000000000000000000600f851673ffffffffffffffffffffffffffffffffffffffff166010811061259f5761259e613100565b5b1a60f81b8583815181106125b6576125b5613100565b5b60200101907effffffffffffffffffffffffffffffffffffffffffffffffffffffffffffff1916908160001a9053505b60048473ffffffffffffffffffffffffffffffffffffffff16901c935060048373ffffffffffffffffffffffffffffffffffffffff16901c9250816001900391505061248c565b508260405160200161263f91906138b9565b6040516020818303038152906040529650505050505050919050565b612663612703565b82602001518260405160200161267a9291906136e5565b604051602081830303815290604052836020018190525061269a836121f2565b83600001818152505060006126ae846126d3565b146126ca578260000180518091906126c5906138d0565b815250505b82905092915050565b60007f7fffffffffffffffffffffffffffffffffffffffffffffffffffffffffffffff8260000151169050919050565b604051806040016040528060008152602001606081525090565b600080fd5b6000819050919050565b61273581612722565b811461274057600080fd5b50565b6000813590506127528161272c565b92915050565b60008115159050919050565b61276d81612758565b811461277857600080fd5b50565b60008135905061278a81612764565b92915050565b6000806000606084860312156127a9576127a861271d565b5b60006127b786828701612743565b93505060206127c886828701612743565b92505060406127d98682870161277b565b9150509250925092565b600073ffffffffffffffffffffffffffffffffffffffff82169050919050565b600061280e826127e3565b9050919050565b61281e81612803565b811461282957600080fd5b50565b60008135905061283b81612815565b92915050565b600080604083850312156128585761285761271d565b5b600061286685828601612743565b92505060206128778582860161282c565b9150509250929050565b61288a81612722565b82525050565b60006020820190506128a56000830184612881565b92915050565b6000602082840312156128c1576128c061271d565b5b60006128cf84828501612743565b91505092915050565b600080604083850312156128ef576128ee61271d565b5b60006128fd85828601612743565b925050602061290e85828601612743565b9150509250929050565b61292181612803565b82525050565b61293081612758565b82525050565b600060808201905061294b6000830187612918565b6129586020830186612881565b6129656040830185612881565b6129726060830184612927565b95945050505050565b60006060820190506129906000830186612881565b61299d6020830185612881565b6129aa6040830184612927565b949350505050565b60006020820190506129c76000830184612918565b92915050565b6000602082840312156129e3576129e261271d565b5b60006129f18482850161282c565b91505092915050565b6000602082019050612a0f6000830184612927565b92915050565b600081519050919050565b600082825260208201905092915050565b60005b83811015612a4f578082015181840152602081019050612a34565b60008484015250505050565b6000601f19601f8301169050919050565b6000612a7782612a15565b612a818185612a20565b9350612a91818560208601612a31565b612a9a81612a5b565b840191505092915050565b60006020820190508181036000830152612abf8184612a6c565b905092915050565b7f464f5242494444454e0000000000000000000000000000000000000000000000600082015250565b6000612afd600983612a20565b9150612b0882612ac7565b602082019050919050565b60006020820190508181036000830152612b2c81612af0565b9050919050565b7f4249445f4e4f545f464f554e4400000000000000000000000000000000000000600082015250565b6000612b69600d83612a20565b9150612b7482612b33565b602082019050919050565b60006020820190508181036000830152612b9881612b5c565b9050919050565b7f4f55545f4f465f42414c414e4345000000000000000000000000000000000000600082015250565b6000612bd5600e83612a20565b9150612be082612b9f565b602082019050919050565b60006020820190508181036000830152612c0481612bc8565b9050919050565b7f4e487b7100000000000000000000000000000000000000000000000000000000600052601160045260246000fd5b6000612c4582612722565b9150612c5083612722565b9250828203905081811115612c6857612c67612c0b565b5b92915050565b7f5452414e534645525f4641494c45440000000000000000000000000000000000600082015250565b6000612ca4600f83612a20565b9150612caf82612c6e565b602082019050919050565b60006020820190508181036000830152612cd381612c97565b9050919050565b7f4e4f545f53544152544544000000000000000000000000000000000000000000600082015250565b6000612d10600b83612a20565b9150612d1b82612cda565b602082019050919050565b60006020820190508181036000830152612d3f81612d03565b9050919050565b7f414c52454144595f434c4f534544000000000000000000000000000000000000600082015250565b6000612d7c600e83612a20565b9150612d8782612d46565b602082019050919050565b60006020820190508181036000830152612dab81612d6f565b9050919050565b7f50524f445543545f4e4f545f464f554e44000000000000000000000000000000600082015250565b6000612de8601183612a20565b9150612df382612db2565b602082019050919050565b60006020820190508181036000830152612e1781612ddb565b9050919050565b7f4249445f544f4f5f4c4f57000000000000000000000000000000000000000000600082015250565b6000612e54600b83612a20565b9150612e5f82612e1e565b602082019050919050565b60006020820190508181036000830152612e8381612e47565b9050919050565b7f4249445f4c4f5745525f5448414e5f50524556494f5553000000000000000000600082015250565b6000612ec0601783612a20565b9150612ecb82612e8a565b602082019050919050565b60006020820190508181036000830152612eef81612eb3565b9050919050565b6000612f0182612722565b9150612f0c83612722565b9250828201905080821115612f2457612f23612c0b565b5b92915050565b7f4455524154494f4e5f544f4f5f53484f52540000000000000000000000000000600082015250565b6000612f60601283612a20565b9150612f6b82612f2a565b602082019050919050565b60006020820190508181036000830152612f8f81612f53565b9050919050565b7f4241445f53544152545f54494d45000000000000000000000000000000000000600082015250565b6000612fcc600e83612a20565b9150612fd782612f96565b602082019050919050565b60006020820190508181036000830152612ffb81612fbf565b9050919050565b7f4455504c49434154450000000000000000000000000000000000000000000000600082015250565b6000613038600983612a20565b915061304382613002565b602082019050919050565b600060208201905081810360008301526130678161302b565b9050919050565b7f77696e6e6572732061726520616e6e6f756e636564206166746572206175637460008201527f696f6e20656e6473000000000000000000000000000000000000000000000000602082015250565b60006130ca602883612a20565b91506130d58261306e565b604082019050919050565b600060208201905081810360008301526130f9816130bd565b9050919050565b7f4e487b7100000000000000000000000000000000000000000000000000000000600052603260045260246000fd5b7f4e4f545f464f554e440000000000000000000000000000000000000000000000600082015250565b6000613165600983612a20565b91506131708261312f565b602082019050919050565b6000602082019050818103600083015261319481613158565b9050919050565b7f4249445f414c52454144595f5354415254454400000000000000000000000000600082015250565b60006131d1601383612a20565b91506131dc8261319b565b602082019050919050565b60006020820190508181036000830152613200816131c4565b9050919050565b7f544f4f5f4d414e595f50524f4455435453000000000000000000000000000000600082015250565b600061323d601183612a20565b915061324882613207565b602082019050919050565b6000602082019050818103600083015261326c81613230565b9050919050565b7f4241445f50434f44450000000000000000000000000000000000000000000000600082015250565b60006132a9600983612a20565b91506132b482613273565b602082019050919050565b600060208201905081810360008301526132d88161329c565b9050919050565b60006132ea82612722565b91507fffffffffffffffffffffffffffffffffffffffffffffffffffffffffffffffff820361331c5761331b612c0b565b5b600182019050919050565b7f5a45524f5f50434f444500000000000000000000000000000000000000000000600082015250565b600061335d600a83612a20565b915061336882613327565b602082019050919050565b6000602082019050818103600083015261338c81613350565b9050919050565b7f4e487b7100000000000000000000000000000000000000000000000000000000600052603160045260246000fd5b60006133cd82612722565b9150600082036133e0576133df612c0b565b5b600182039050919050565b600081905092915050565b600061340182612a15565b61340b81856133eb565b935061341b818560208601612a31565b80840191505092915050565b60007fff0000000000000000000000000000000000000000000000000000000000000082169050919050565b6000819050919050565b61346e61346982613427565b613453565b82525050565b7f2200000000000000000000000000000000000000000000000000000000000000600082015250565b60006134aa6001836133eb565b91506134b582613474565b600182019050919050565b7f223a200000000000000000000000000000000000000000000000000000000000600082015250565b60006134f66003836133eb565b9150613501826134c0565b600382019050919050565b600061351882876133f6565b9150613524828661345d565b6001820191506135338261349d565b915061353f82856133f6565b915061354a826134e9565b915061355682846133f6565b915081905095945050505050565b600061357082866133f6565b915061357b8261349d565b915061358782856133f6565b9150613592826134e9565b915061359e82846133f6565b9150819050949350505050565b7f223a202200000000000000000000000000000000000000000000000000000000600082015250565b60006135e16004836133eb565b91506135ec826135ab565b600482019050919050565b600061360382876133f6565b915061360f828661345d565b60018201915061361e8261349d565b915061362a82856133f6565b9150613635826135d4565b915061364182846133f6565b915061364c8261349d565b915081905095945050505050565b600061366682866133f6565b91506136718261349d565b915061367d82856133f6565b9150613688826135d4565b915061369482846133f6565b915061369f8261349d565b9150819050949350505050565b60006136b882866133f6565b91506136c4828561345d565b6001820191506136d4828461345d565b600182019150819050949350505050565b60006136f182856133f6565b91506136fd828461345d565b6001820191508190509392505050565b6000819050919050565b60006137228261370d565b91507f7fffffffffffffffffffffffffffffffffffffffffffffffffffffffffffffff820361375457613753612c0b565b5b600182019050919050565b7f4e487b7100000000000000000000000000000000000000000000000000000000600052601260045260246000fd5b600061379982612722565b91506137a483612722565b9250826137b4576137b361375f565b5b828204905092915050565b7f4e487b7100000000000000000000000000000000000000000000000000000000600052604160045260246000fd5b60006137f982612722565b915061380483612722565b925082820261381281612722565b9150828204841483151761382957613828612c0b565b5b5092915050565b600060ff82169050919050565b600061384882613830565b915061385383613830565b9250828201905060ff81111561386c5761386b612c0b565b5b92915050565b600081519050919050565b600081905092915050565b600061389382613872565b61389d818561387d565b93506138ad818560208601612a31565b80840191505092915050565b60006138c58284613888565b915081905092915050565b60006138db8261370d565b91507f8000000000000000000000000000000000000000000000000000000000000000820361390d5761390c612c0b565b5b60018203905091905056fea2646970667358221220ae9b92533f022130ff5b5adbe559a473cc6a32a8ae3893b70dc9f355f3fcfe5164736f6c634300081c0033",
  "linkReferences": {},
  "deployedLinkReferences": {}
}